{
	"address": "0x5FC8d32690cc91D4c39d9d3abcBD16989F875707",
	"abi": [
		{
			"inputs": [
				{
					"internalType": "address",
					"name": "_governorToken",
					"type": "address"
				},
				{
					"internalType": "address",
					"name": "_timelock",
					"type": "address"
				},
				{
					"internalType": "address",
					"name": "_governor",
					"type": "address"
				},
				{
					"internalType": "address",
					"name": "_verifier",
					"type": "address"
				},
				{
					"internalType": "address",
					"name": "_linkAddress",
					"type": "address"
				},
				{
					"internalType": "address",
					"name": "_factory",
					"type": "address"
				}
			],
			"stateMutability": "nonpayable",
			"type": "constructor"
		},
		{
			"inputs": [],
			"name": "AMOUNT_MISMATCH",
			"type": "error"
		},
		{
			"inputs": [
				{
					"internalType": "uint256",
					"name": "daoId",
					"type": "uint256"
				}
			],
			"name": "DAONotFound",
			"type": "error"
		},
		{
			"inputs": [
				{
					"internalType": "uint256",
					"name": "daoId",
					"type": "uint256"
				}
			],
			"name": "DAO_NOT_FOUND",
			"type": "error"
		},
		{
			"inputs": [],
			"name": "FailedDeployment",
			"type": "error"
		},
		{
			"inputs": [],
			"name": "INSUFFICIENT_ALLOWANCE",
			"type": "error"
		},
		{
			"inputs": [],
			"name": "INSUFFICIENT_FUNDS",
			"type": "error"
		},
		{
			"inputs": [],
			"name": "INVALID_NULLIFIER",
			"type": "error"
		},
		{
			"inputs": [],
			"name": "INVALID_PROPOSAL_ID",
			"type": "error"
		},
		{
			"inputs": [],
			"name": "INVALID_VOTE_TYPE",
			"type": "error"
		},
		{
			"inputs": [
				{
					"internalType": "uint256",
					"name": "balance",
					"type": "uint256"
				},
				{
					"internalType": "uint256",
					"name": "needed",
					"type": "uint256"
				}
			],
			"name": "InsufficientBalance",
			"type": "error"
		},
		{
			"inputs": [],
			"name": "InvalidArrayLength",
			"type": "error"
		},
		{
			"inputs": [],
			"name": "InvalidParameters",
			"type": "error"
		},
		{
			"inputs": [],
			"name": "MISMATCH",
			"type": "error"
		},
		{
			"inputs": [],
			"name": "UNAUTHORIZED",
			"type": "error"
		},
		{
			"inputs": [],
			"name": "UnauthorizedCaller",
			"type": "error"
		},
		{
			"inputs": [
				{
					"internalType": "bytes32",
					"name": "requestId",
					"type": "bytes32"
				}
			],
			"name": "UnexpectedRequestID",
			"type": "error"
		},
		{
			"inputs": [],
			"name": "ZK_PROOF_FAILED",
			"type": "error"
		},
		{
			"anonymous": false,
			"inputs": [
				{
					"indexed": false,
					"internalType": "bool",
					"name": "enabled",
					"type": "bool"
				}
			],
			"name": "AutomationToggled",
			"type": "event"
		},
		{
			"anonymous": false,
			"inputs": [
				{
					"indexed": true,
					"internalType": "uint256",
					"name": "id",
					"type": "uint256"
				},
				{
					"indexed": true,
					"internalType": "address",
					"name": "deployer",
					"type": "address"
				},
				{
					"indexed": false,
					"internalType": "address",
					"name": "token",
					"type": "address"
				},
				{
					"indexed": false,
					"internalType": "address",
					"name": "timelock",
					"type": "address"
				},
				{
					"indexed": false,
					"internalType": "address",
					"name": "governor",
					"type": "address"
				}
			],
			"name": "DaoCreated",
			"type": "event"
		},
		{
			"anonymous": false,
			"inputs": [
				{
					"components": [
						{
							"internalType": "string",
							"name": "name",
							"type": "string"
						},
						{
							"internalType": "string",
							"name": "symbol",
							"type": "string"
						}
					],
					"indexed": false,
					"internalType": "struct IZKDAO.GovernorTokenParams",
					"name": "tokenParams",
					"type": "tuple"
				},
				{
					"indexed": false,
					"internalType": "uint256",
					"name": "minDelay",
					"type": "uint256"
				},
				{
					"components": [
						{
							"internalType": "string",
							"name": "name",
							"type": "string"
						},
						{
							"internalType": "string",
							"name": "description",
							"type": "string"
						},
						{
							"internalType": "string",
							"name": "logo",
							"type": "string"
						},
						{
							"internalType": "uint48",
							"name": "votingDelay",
							"type": "uint48"
						},
						{
							"internalType": "uint32",
							"name": "votingPeriod",
							"type": "uint32"
						},
						{
							"internalType": "uint256",
							"name": "proposalThreshold",
							"type": "uint256"
						},
						{
							"internalType": "uint256",
							"name": "quorumFraction",
							"type": "uint256"
						}
					],
					"indexed": false,
					"internalType": "struct IZKDAO.GovernorParams",
					"name": "governorParams",
					"type": "tuple"
				},
				{
					"indexed": false,
					"internalType": "address[]",
					"name": "to",
					"type": "address[]"
				},
				{
					"indexed": false,
					"internalType": "uint256[]",
					"name": "amounts",
					"type": "uint256[]"
				},
				{
					"indexed": false,
					"internalType": "uint256",
					"name": "value",
					"type": "uint256"
				}
			],
			"name": "PaidForDaoCreation",
			"type": "event"
		},
		{
			"anonymous": false,
			"inputs": [
				{
					"indexed": true,
					"internalType": "uint256",
					"name": "id",
					"type": "uint256"
				},
				{
					"indexed": false,
					"internalType": "uint256",
					"name": "snapshot",
					"type": "uint256"
				}
			],
			"name": "ProposalDequeued",
			"type": "event"
		},
		{
			"anonymous": false,
			"inputs": [
				{
					"indexed": true,
					"internalType": "address",
					"name": "dao",
					"type": "address"
				},
				{
					"indexed": true,
					"internalType": "uint256",
					"name": "daoId",
					"type": "uint256"
				},
				{
					"indexed": true,
					"internalType": "uint256",
					"name": "proposalId",
					"type": "uint256"
				},
				{
					"indexed": false,
					"internalType": "uint256",
					"name": "snapshot",
					"type": "uint256"
				},
				{
					"indexed": false,
					"internalType": "address",
					"name": "voteToken",
					"type": "address"
				}
			],
			"name": "ProposalQueued",
			"type": "event"
		},
		{
			"anonymous": false,
			"inputs": [
				{
					"indexed": true,
					"internalType": "bytes32",
					"name": "requestId",
					"type": "bytes32"
				},
				{
					"indexed": false,
					"internalType": "string",
					"name": "source",
					"type": "string"
				},
				{
					"indexed": false,
					"internalType": "string[]",
					"name": "args",
					"type": "string[]"
				}
			],
			"name": "RequestSent",
			"type": "event"
		},
		{
			"anonymous": false,
			"inputs": [
				{
					"indexed": true,
					"internalType": "bytes32",
					"name": "requestId",
					"type": "bytes32"
				},
				{
					"indexed": false,
					"internalType": "bytes",
					"name": "response",
					"type": "bytes"
				},
				{
					"indexed": false,
					"internalType": "bytes",
					"name": "err",
					"type": "bytes"
				}
			],
			"name": "Response",
			"type": "event"
		},
		{
			"anonymous": false,
			"inputs": [
				{
					"indexed": true,
					"internalType": "uint256",
					"name": "upkeepId",
					"type": "uint256"
				},
				{
					"indexed": false,
					"internalType": "uint256",
					"name": "proposalsProcessed",
					"type": "uint256"
				}
			],
			"name": "UpkeepPerformed",
			"type": "event"
		},
		{
			"inputs": [],
			"name": "NATIVE",
			"outputs": [
				{
					"internalType": "address",
					"name": "",
					"type": "address"
				}
			],
			"stateMutability": "view",
			"type": "function"
		},
		{
			"inputs": [
				{
					"internalType": "uint256",
					"name": "seconds_",
					"type": "uint256"
				}
			],
			"name": "advanceTime",
			"outputs": [],
			"stateMutability": "nonpayable",
			"type": "function"
		},
		{
			"inputs": [
				{
					"internalType": "bytes32",
					"name": "requestId",
					"type": "bytes32"
				}
			],
			"name": "autoFulfillRequest",
			"outputs": [],
			"stateMutability": "nonpayable",
			"type": "function"
		},
		{
			"inputs": [],
			"name": "automationEnabled",
			"outputs": [
				{
					"internalType": "bool",
					"name": "",
					"type": "bool"
				}
			],
			"stateMutability": "view",
			"type": "function"
		},
		{
			"inputs": [],
			"name": "automationRegistry",
			"outputs": [
				{
					"internalType": "address",
					"name": "",
					"type": "address"
				}
			],
			"stateMutability": "view",
			"type": "function"
		},
		{
			"inputs": [
				{
					"internalType": "address[]",
					"name": "daos",
					"type": "address[]"
				},
				{
					"internalType": "uint256[]",
					"name": "proposalIds",
					"type": "uint256[]"
				},
				{
					"internalType": "uint256[]",
					"name": "snapshots",
					"type": "uint256[]"
				},
				{
					"internalType": "address[]",
					"name": "voteTokens",
					"type": "address[]"
				}
			],
			"name": "batchQueueProposals",
			"outputs": [],
			"stateMutability": "nonpayable",
			"type": "function"
		},
		{
			"inputs": [
				{
					"internalType": "bytes",
					"name": "",
					"type": "bytes"
				}
			],
			"name": "checkUpkeep",
			"outputs": [
				{
					"internalType": "bool",
					"name": "upkeepNeeded",
					"type": "bool"
				},
				{
					"internalType": "bytes",
					"name": "performData",
					"type": "bytes"
				}
			],
			"stateMutability": "view",
			"type": "function"
		},
		{
			"inputs": [],
			"name": "cleanupQueue",
			"outputs": [],
			"stateMutability": "nonpayable",
			"type": "function"
		},
		{
			"inputs": [],
			"name": "clearProcessedProposals",
			"outputs": [],
			"stateMutability": "nonpayable",
			"type": "function"
		},
		{
			"inputs": [],
			"name": "clearQueue",
			"outputs": [],
			"stateMutability": "nonpayable",
			"type": "function"
		},
		{
			"inputs": [
				{
					"components": [
						{
							"internalType": "string",
							"name": "name",
							"type": "string"
						},
						{
							"internalType": "string",
							"name": "symbol",
							"type": "string"
						}
					],
					"internalType": "struct IZKDAO.GovernorTokenParams",
					"name": "_tokenParams",
					"type": "tuple"
				},
				{
					"internalType": "uint256",
					"name": "_minDelay",
					"type": "uint256"
				},
				{
					"components": [
						{
							"internalType": "string",
							"name": "name",
							"type": "string"
						},
						{
							"internalType": "string",
							"name": "description",
							"type": "string"
						},
						{
							"internalType": "string",
							"name": "logo",
							"type": "string"
						},
						{
							"internalType": "uint48",
							"name": "votingDelay",
							"type": "uint48"
						},
						{
							"internalType": "uint32",
							"name": "votingPeriod",
							"type": "uint32"
						},
						{
							"internalType": "uint256",
							"name": "proposalThreshold",
							"type": "uint256"
						},
						{
							"internalType": "uint256",
							"name": "quorumFraction",
							"type": "uint256"
						}
					],
					"internalType": "struct IZKDAO.GovernorParams",
					"name": "_governorParams",
					"type": "tuple"
				},
				{
					"internalType": "address[]",
					"name": "_to",
					"type": "address[]"
				},
				{
					"internalType": "uint256[]",
					"name": "_amounts",
					"type": "uint256[]"
				}
			],
			"name": "createDao",
			"outputs": [],
			"stateMutability": "payable",
			"type": "function"
		},
		{
			"inputs": [],
			"name": "daoCount",
			"outputs": [
				{
					"internalType": "uint256",
					"name": "",
					"type": "uint256"
				}
			],
			"stateMutability": "view",
			"type": "function"
		},
		{
			"inputs": [
				{
					"internalType": "address",
					"name": "",
					"type": "address"
				}
			],
			"name": "daoIds",
			"outputs": [
				{
					"internalType": "uint256",
					"name": "",
					"type": "uint256"
				}
			],
			"stateMutability": "view",
			"type": "function"
		},
		{
			"inputs": [],
			"name": "factory",
			"outputs": [
				{
					"internalType": "address",
					"name": "",
					"type": "address"
				}
			],
			"stateMutability": "view",
			"type": "function"
		},
		{
			"inputs": [],
			"name": "forceUpkeepNeeded",
			"outputs": [
				{
					"internalType": "bool",
					"name": "",
					"type": "bool"
				}
			],
			"stateMutability": "view",
			"type": "function"
		},
		{
			"inputs": [],
			"name": "getAutomationStats",
			"outputs": [
				{
					"internalType": "bool",
					"name": "enabled",
					"type": "bool"
				},
				{
					"internalType": "uint256",
					"name": "queueLength",
					"type": "uint256"
				},
				{
					"internalType": "uint256",
					"name": "pendingCount",
					"type": "uint256"
				},
				{
					"internalType": "uint256",
					"name": "processedCount",
					"type": "uint256"
				},
				{
					"internalType": "uint256",
					"name": "lastUpkeep",
					"type": "uint256"
				},
				{
					"internalType": "uint256",
					"name": "totalUpkeeps",
					"type": "uint256"
				}
			],
			"stateMutability": "view",
			"type": "function"
		},
		{
			"inputs": [
				{
					"internalType": "uint256",
					"name": "id",
					"type": "uint256"
				}
			],
			"name": "getDao",
			"outputs": [
				{
					"components": [
						{
							"internalType": "contract IGovernorToken",
							"name": "token",
							"type": "address"
						},
						{
							"internalType": "contract ITimeLock",
							"name": "timelock",
							"type": "address"
						},
						{
							"internalType": "contract IGovernor",
							"name": "governor",
							"type": "address"
						},
						{
							"internalType": "address",
							"name": "deployer",
							"type": "address"
						}
					],
					"internalType": "struct IZKDAO.DAO",
					"name": "dao",
					"type": "tuple"
				}
			],
			"stateMutability": "view",
			"type": "function"
		},
		{
			"inputs": [],
			"name": "getImplementations",
			"outputs": [
				{
					"internalType": "address",
					"name": "_governorToken",
					"type": "address"
				},
				{
					"internalType": "address",
					"name": "_timelock",
					"type": "address"
				},
				{
					"internalType": "address",
					"name": "_governor",
					"type": "address"
				},
				{
					"internalType": "address",
					"name": "_verifier",
					"type": "address"
				}
			],
			"stateMutability": "view",
			"type": "function"
		},
		{
			"inputs": [
				{
					"internalType": "address",
					"name": "account",
					"type": "address"
				}
			],
			"name": "getNonce",
			"outputs": [
				{
					"internalType": "uint256",
					"name": "",
					"type": "uint256"
				}
			],
			"stateMutability": "view",
			"type": "function"
		},
		{
			"inputs": [
				{
					"internalType": "address",
					"name": "dao",
					"type": "address"
				},
				{
					"internalType": "uint256",
					"name": "proposalId",
					"type": "uint256"
				}
			],
			"name": "getProposal",
			"outputs": [
				{
					"components": [
						{
							"internalType": "contract IGovernor",
							"name": "dao",
							"type": "address"
						},
						{
							"internalType": "uint256",
							"name": "daoId",
							"type": "uint256"
						},
						{
							"internalType": "uint256",
							"name": "proposalId",
							"type": "uint256"
						},
						{
							"internalType": "uint256",
							"name": "snapshot",
							"type": "uint256"
						},
						{
							"internalType": "address",
							"name": "voteToken",
							"type": "address"
						},
						{
							"internalType": "bool",
							"name": "queued",
							"type": "bool"
						},
						{
							"internalType": "bool",
							"name": "executed",
							"type": "bool"
						}
					],
					"internalType": "struct MockConsumer.Proposal",
					"name": "",
					"type": "tuple"
				}
			],
			"stateMutability": "view",
			"type": "function"
		},
		{
			"inputs": [],
			"name": "getQueueLength",
			"outputs": [
				{
					"internalType": "uint256",
					"name": "",
					"type": "uint256"
				}
			],
			"stateMutability": "view",
			"type": "function"
		},
		{
			"inputs": [],
			"name": "getRequestCounter",
			"outputs": [
				{
					"internalType": "uint256",
					"name": "",
					"type": "uint256"
				}
			],
			"stateMutability": "view",
			"type": "function"
		},
		{
			"inputs": [],
			"name": "governor",
			"outputs": [
				{
					"internalType": "contract IGovernor",
					"name": "",
					"type": "address"
				}
			],
			"stateMutability": "view",
			"type": "function"
		},
		{
			"inputs": [],
			"name": "governorToken",
			"outputs": [
				{
					"internalType": "contract IGovernorToken",
					"name": "",
					"type": "address"
				}
			],
			"stateMutability": "view",
			"type": "function"
		},
		{
			"inputs": [
				{
					"internalType": "address",
					"name": "dao",
					"type": "address"
				},
				{
					"internalType": "uint256",
					"name": "proposalId",
					"type": "uint256"
				}
			],
			"name": "isProposalProcessed",
			"outputs": [
				{
					"internalType": "bool",
					"name": "",
					"type": "bool"
				}
			],
			"stateMutability": "view",
			"type": "function"
		},
		{
			"inputs": [
				{
					"internalType": "bytes32",
					"name": "requestId",
					"type": "bytes32"
				}
			],
			"name": "isRequestPending",
			"outputs": [
				{
					"internalType": "bool",
					"name": "",
					"type": "bool"
				}
			],
			"stateMutability": "view",
			"type": "function"
		},
		{
			"inputs": [],
			"name": "lastUpkeepTimestamp",
			"outputs": [
				{
					"internalType": "uint256",
					"name": "",
					"type": "uint256"
				}
			],
			"stateMutability": "view",
			"type": "function"
		},
		{
			"inputs": [],
			"name": "linkToken",
			"outputs": [
				{
					"internalType": "contract IERC20",
					"name": "",
					"type": "address"
				}
			],
			"stateMutability": "view",
			"type": "function"
		},
		{
			"inputs": [],
			"name": "manualUpkeep",
			"outputs": [
				{
					"internalType": "uint256",
					"name": "processedCount",
					"type": "uint256"
				}
			],
			"stateMutability": "nonpayable",
			"type": "function"
		},
		{
			"inputs": [],
			"name": "mockBlockTimestamp",
			"outputs": [
				{
					"internalType": "uint256",
					"name": "",
					"type": "uint256"
				}
			],
			"stateMutability": "view",
			"type": "function"
		},
		{
			"inputs": [
				{
					"internalType": "bytes32",
					"name": "_requestId",
					"type": "bytes32"
				},
				{
					"internalType": "string",
					"name": "_cids",
					"type": "string"
				}
			],
			"name": "mockFulfillRequest",
			"outputs": [],
			"stateMutability": "nonpayable",
			"type": "function"
		},
		{
			"inputs": [
				{
					"internalType": "bytes32",
					"name": "requestId",
					"type": "bytes32"
				},
				{
					"internalType": "string",
					"name": "errorMessage",
					"type": "string"
				}
			],
			"name": "mockFulfillRequestWithError",
			"outputs": [],
			"stateMutability": "nonpayable",
			"type": "function"
		},
		{
			"inputs": [],
			"name": "owner",
			"outputs": [
				{
					"internalType": "address",
					"name": "",
					"type": "address"
				}
			],
			"stateMutability": "view",
			"type": "function"
		},
		{
			"inputs": [
				{
					"components": [
						{
							"internalType": "string",
							"name": "name",
							"type": "string"
						},
						{
							"internalType": "string",
							"name": "symbol",
							"type": "string"
						}
					],
					"internalType": "struct IZKDAO.GovernorTokenParams",
					"name": "_tokenParams",
					"type": "tuple"
				},
				{
					"internalType": "uint256",
					"name": "_minDelay",
					"type": "uint256"
				},
				{
					"components": [
						{
							"internalType": "string",
							"name": "name",
							"type": "string"
						},
						{
							"internalType": "string",
							"name": "description",
							"type": "string"
						},
						{
							"internalType": "string",
							"name": "logo",
							"type": "string"
						},
						{
							"internalType": "uint48",
							"name": "votingDelay",
							"type": "uint48"
						},
						{
							"internalType": "uint32",
							"name": "votingPeriod",
							"type": "uint32"
						},
						{
							"internalType": "uint256",
							"name": "proposalThreshold",
							"type": "uint256"
						},
						{
							"internalType": "uint256",
							"name": "quorumFraction",
							"type": "uint256"
						}
					],
					"internalType": "struct IZKDAO.GovernorParams",
					"name": "_governorParams",
					"type": "tuple"
				},
				{
					"internalType": "address[]",
					"name": "_to",
					"type": "address[]"
				},
				{
					"internalType": "uint256[]",
					"name": "_amounts",
					"type": "uint256[]"
				},
				{
					"internalType": "uint256",
					"name": "_value",
					"type": "uint256"
				}
			],
			"name": "payForDaoCreation",
			"outputs": [],
			"stateMutability": "payable",
			"type": "function"
		},
		{
			"inputs": [
				{
					"internalType": "bytes",
					"name": "performData",
					"type": "bytes"
				}
			],
			"name": "performUpkeep",
			"outputs": [],
			"stateMutability": "nonpayable",
			"type": "function"
		},
		{
			"inputs": [],
			"name": "price",
			"outputs": [
				{
					"internalType": "uint256",
					"name": "",
					"type": "uint256"
				}
			],
			"stateMutability": "view",
			"type": "function"
		},
		{
			"inputs": [],
			"name": "qetQueue",
			"outputs": [
				{
					"components": [
						{
							"internalType": "contract IGovernor",
							"name": "dao",
							"type": "address"
						},
						{
							"internalType": "uint256",
							"name": "daoId",
							"type": "uint256"
						},
						{
							"internalType": "uint256",
							"name": "proposalId",
							"type": "uint256"
						},
						{
							"internalType": "uint256",
							"name": "snapshot",
							"type": "uint256"
						},
						{
							"internalType": "address",
							"name": "voteToken",
							"type": "address"
						},
						{
							"internalType": "bool",
							"name": "queued",
							"type": "bool"
						},
						{
							"internalType": "bool",
							"name": "executed",
							"type": "bool"
						}
					],
					"internalType": "struct MockConsumer.Proposal[]",
					"name": "",
					"type": "tuple[]"
				}
			],
			"stateMutability": "view",
			"type": "function"
		},
		{
			"inputs": [
				{
					"internalType": "uint256",
					"name": "daoId",
					"type": "uint256"
				},
				{
					"internalType": "uint256",
					"name": "proposalId",
					"type": "uint256"
				},
				{
					"internalType": "uint256",
					"name": "snapshot",
					"type": "uint256"
				},
				{
					"internalType": "address",
					"name": "voteToken",
					"type": "address"
				}
			],
			"name": "queueProposal",
			"outputs": [],
			"stateMutability": "nonpayable",
			"type": "function"
		},
		{
			"inputs": [],
			"name": "s_lastError",
			"outputs": [
				{
					"internalType": "bytes",
					"name": "",
					"type": "bytes"
				}
			],
			"stateMutability": "view",
			"type": "function"
		},
		{
			"inputs": [],
			"name": "s_lastRequestId",
			"outputs": [
				{
					"internalType": "bytes32",
					"name": "",
					"type": "bytes32"
				}
			],
			"stateMutability": "view",
			"type": "function"
		},
		{
			"inputs": [],
			"name": "s_lastResponse",
			"outputs": [
				{
					"internalType": "bytes",
					"name": "",
					"type": "bytes"
				}
			],
			"stateMutability": "view",
			"type": "function"
		},
		{
			"inputs": [
				{
					"internalType": "bytes",
					"name": "request",
					"type": "bytes"
				},
				{
					"internalType": "uint64",
					"name": "subscriptionId",
					"type": "uint64"
				},
				{
					"internalType": "uint32",
					"name": "gasLimit",
					"type": "uint32"
				},
				{
					"internalType": "bytes32",
					"name": "donID",
					"type": "bytes32"
				}
			],
			"name": "sendRequestCBOR",
			"outputs": [
				{
					"internalType": "bytes32",
					"name": "requestId",
					"type": "bytes32"
				}
			],
			"stateMutability": "nonpayable",
			"type": "function"
		},
		{
			"inputs": [
				{
					"internalType": "address",
					"name": "registry",
					"type": "address"
				}
			],
			"name": "setAutomationRegistry",
			"outputs": [],
			"stateMutability": "nonpayable",
			"type": "function"
		},
		{
			"inputs": [
				{
					"internalType": "bool",
					"name": "force",
					"type": "bool"
				}
			],
			"name": "setForceUpkeepNeeded",
			"outputs": [],
			"stateMutability": "nonpayable",
			"type": "function"
		},
		{
			"inputs": [
				{
					"internalType": "uint256",
					"name": "timestamp",
					"type": "uint256"
				}
			],
			"name": "setMockBlockTimestamp",
			"outputs": [],
			"stateMutability": "nonpayable",
			"type": "function"
		},
		{
			"inputs": [
				{
					"internalType": "bytes32",
					"name": "requestId",
					"type": "bytes32"
				},
				{
					"internalType": "bytes",
					"name": "response",
					"type": "bytes"
				},
				{
					"internalType": "bytes",
					"name": "err",
					"type": "bytes"
				}
			],
			"name": "setPredefinedResponse",
			"outputs": [],
			"stateMutability": "nonpayable",
			"type": "function"
		},
		{
			"inputs": [],
			"name": "simulateAutomationCycle",
			"outputs": [
				{
					"internalType": "bool",
					"name": "executed",
					"type": "bool"
				},
				{
					"internalType": "uint256",
					"name": "processedCount",
					"type": "uint256"
				}
			],
			"stateMutability": "nonpayable",
			"type": "function"
		},
		{
			"inputs": [
				{
					"internalType": "string",
					"name": "input",
					"type": "string"
				}
			],
			"name": "splitByPipe",
			"outputs": [
				{
					"internalType": "string[]",
					"name": "",
					"type": "string[]"
				}
			],
			"stateMutability": "pure",
			"type": "function"
		},
		{
			"inputs": [],
			"name": "timelock",
			"outputs": [
				{
					"internalType": "contract ITimeLock",
					"name": "",
					"type": "address"
				}
			],
			"stateMutability": "view",
			"type": "function"
		},
		{
			"inputs": [
				{
					"internalType": "bool",
					"name": "enabled",
					"type": "bool"
				}
			],
			"name": "toggleAutomation",
			"outputs": [],
			"stateMutability": "nonpayable",
			"type": "function"
		},
		{
			"inputs": [
				{
					"internalType": "address",
					"name": "newOwner",
					"type": "address"
				}
			],
			"name": "transferOwnership",
			"outputs": [],
			"stateMutability": "nonpayable",
			"type": "function"
		},
		{
			"inputs": [],
			"name": "upkeepCounter",
			"outputs": [
				{
					"internalType": "uint256",
					"name": "",
					"type": "uint256"
				}
			],
			"stateMutability": "view",
			"type": "function"
		},
		{
			"inputs": [],
			"name": "verifier",
			"outputs": [
				{
					"internalType": "contract IVerifier",
					"name": "",
					"type": "address"
				}
			],
			"stateMutability": "view",
			"type": "function"
		},
		{
			"stateMutability": "payable",
			"type": "receive"
		}
	],
	"transactionHash": "0xcca7e0fe25fa918452be10388269eae7198a1d2c70bad8bf0f2967cf02663782",
	"args": [
		"0xe7f1725E7734CE288F8367e1Bb143E90bb3F0512",
		"0x9fE46736679d2D9a65F0992F2272dE9f3c7fa6e0",
		"0xCf7Ed3AccA5a467e9e704C703E8D87F634fB0Fc9",
		"0xDc64a140Aa3E981100a9becA4E685f962f0cF6C9",
		"0x5FbDB2315678afecb367f032d93F642f64180aa3",
		"0x522D818751B7D596bDD4018065dA7408e2bB8251"
	],
	"numDeployments": 1,
	"solcInputHash": "30fa80f705db498cb1e88b64dc0d25fb",
	"bytecode": "0x6080604052674563918244f4000060135534801561001c57600080fd5b50604051615d7b380380615d7b83398101604081905261003b916100f6565b60048054336001600160a01b03199182168117909255600b80546001600160a81b0319166101009093029290921760011790915542600f556016805482166001600160a01b03988916179055601780548216968816969096179095556019805486169487169490941790935560188054851692861692909217909155601a8054841691851691909117905560158054909216921691909117905561016a565b80516001600160a01b03811681146100f157600080fd5b919050565b60008060008060008060c0878903121561010f57600080fd5b610118876100da565b9550610126602088016100da565b9450610134604088016100da565b9350610142606088016100da565b9250610150608088016100da565b915061015e60a088016100da565b90509295509295509295565b615c02806101796000396000f3fe60806040526004361061034e5760003560e01c8063a035b1fe116101bb578063c848ebde116100f7578063d462eaa411610095578063e8c016e61161006f578063e8c016e614610b8f578063f22cb87414610baf578063f2fde38b14610bc4578063f96ec28f14610be457600080fd5b8063d462eaa414610b40578063d966a59414610b60578063d9c39ba414610b7a57600080fd5b8063d01cf419116100d1578063d01cf41914610ac7578063d1e93d1414610add578063d2d16f3014610b0d578063d33219b414610b2057600080fd5b8063c848ebde1461098c578063cec9cf98146109ac578063cfa38da7146109d957600080fd5b8063af38187a11610164578063b404a5841161013e578063b404a58414610922578063b67be84214610942578063b8f7700514610957578063c45a01551461096c57600080fd5b8063af38187a146108d2578063b04dfe60146108f2578063b1e217491461090c57600080fd5b8063a2785f0b11610195578063a2785f0b14610879578063a3d3c0d21461088e578063ab37b0ad146108a457600080fd5b8063a035b1fe1461074d578063a07b57f614610763578063a0cf0aea1461085157600080fd5b80634b0795a81161028a5780636cd2c43d116102335780638da5cb5b1161020d5780638da5cb5b146106cb5780638fb987eb146106eb5780639681096f14610718578063977caf4f1461073857600080fd5b80636cd2c43d1461065b5780636e04ff0d14610671578063835f93601461069f57600080fd5b80635ff2d2aa116102645780635ff2d2aa1461059e578063615f64fe146105f8578063624cffd41461064557600080fd5b80634b0795a81461054457806357970e93146105595780635dc228a01461057957600080fd5b8063302288e2116102f75780633b257a5d116102d15780633b257a5d146104b45780633df10fa1146104d457806340785b46146104f45780634585e33b1461052457600080fd5b8063302288e21461045f57806334b65e2e1461047f5780633944ea3a1461049257600080fd5b80631a402c94116103285780631a402c94146103db5780632b7ac3f3146103fb5780632d0335ab1461041b57600080fd5b806307e32f0a1461035a5780630c340a241461037c5780630fc7a9b7146103b957600080fd5b3661035557005b600080fd5b34801561036657600080fd5b5061037a6103753660046144a3565b610c28565b005b34801561038857600080fd5b5060195461039c906001600160a01b031681565b6040516001600160a01b0390911681526020015b60405180910390f35b3480156103c557600080fd5b506103ce610c51565b6040516103b091906144bc565b3480156103e757600080fd5b5061037a6103f6366004614645565b610d0e565b34801561040757600080fd5b5060185461039c906001600160a01b031681565b34801561042757600080fd5b506104516104363660046146a1565b6001600160a01b031660009081526010602052604090205490565b6040519081526020016103b0565b34801561046b57600080fd5b5061037a61047a3660046144a3565b610daf565b61037a61048d36600461472d565b610f56565b34801561049e57600080fd5b506104a7611575565b6040516103b09190614853565b3480156104c057600080fd5b5061037a6104cf366004614645565b611603565b3480156104e057600080fd5b5061037a6104ef366004614874565b61167c565b34801561050057600080fd5b5061051461050f366004614891565b6116c3565b60405190151581526020016103b0565b34801561053057600080fd5b5061037a61053f3660046148bd565b6116fb565b34801561055057600080fd5b506104a7611b0f565b34801561056557600080fd5b50601a5461039c906001600160a01b031681565b34801561058557600080fd5b50600b5461039c9061010090046001600160a01b031681565b3480156105aa57600080fd5b5061037a6105b93660046146a1565b600b80546001600160a01b03909216610100027fffffffffffffffffffffff0000000000000000000000000000000000000000ff909216919091179055565b34801561060457600080fd5b50601654601754601954601854604080516001600160a01b0395861681529385166020850152918416918301919091529190911660608201526080016103b0565b34801561065157600080fd5b50610451600c5481565b34801561066757600080fd5b50610451600f5481565b34801561067d57600080fd5b5061069161068c3660046148bd565b611b1c565b6040516103b0929190614931565b3480156106ab57600080fd5b506106b4611ee7565b6040805192151583526020830191909152016103b0565b3480156106d757600080fd5b5060045461039c906001600160a01b031681565b3480156106f757600080fd5b506104516107063660046146a1565b60126020526000908152604090205481565b34801561072457600080fd5b50610451610733366004614960565b612030565b34801561074457600080fd5b50610451612104565b34801561075957600080fd5b5061045160135481565b34801561076f57600080fd5b506107f561077e3660046144a3565b60408051608081018252600080825260208201819052918101829052606081019190915250600090815260116020908152604091829020825160808101845281546001600160a01b039081168252600183015481169382019390935260028201548316938101939093526003015416606082015290565b6040516103b0919060006080820190506001600160a01b0383511682526001600160a01b0360208401511660208301526001600160a01b0360408401511660408301526001600160a01b03606084015116606083015292915050565b34801561085d57600080fd5b5061039c73eeeeeeeeeeeeeeeeeeeeeeeeeeeeeeeeeeeeeeee81565b34801561088557600080fd5b50600554610451565b34801561089a57600080fd5b50610451600d5481565b3480156108b057600080fd5b5061037a6108bf366004614874565b600e805460ff1916911515919091179055565b3480156108de57600080fd5b5060165461039c906001600160a01b031681565b3480156108fe57600080fd5b50600e546105149060ff1681565b34801561091857600080fd5b5061045160005481565b34801561092e57600080fd5b5061037a61093d3660046149d5565b61222f565b34801561094e57600080fd5b5061037a6124f2565b34801561096357600080fd5b50600354610451565b34801561097857600080fd5b5060155461039c906001600160a01b031681565b34801561099857600080fd5b5061037a6109a7366004614aac565b6125a2565b3480156109b857600080fd5b506109cc6109c7366004614b1e565b61261d565b6040516103b09190614baf565b3480156109e557600080fd5b50610aba6109f4366004614891565b6040805160e081018252600080825260208201819052918101829052606081018290526080810182905260a0810182905260c0810191909152506001600160a01b03918216600090815260066020908152604080832093835292815290829020825160e081018452815485168152600182015492810192909252600281015492820192909252600382015460608201526004909101549182166080820152600160a01b820460ff908116151560a0830152600160a81b909204909116151560c082015290565b6040516103b09190614bc2565b348015610ad357600080fd5b5061045160145481565b348015610ae957600080fd5b50610514610af83660046144a3565b6000908152600a602052604090205460ff1690565b61037a610b1b366004614c25565b61297a565b348015610b2c57600080fd5b5060175461039c906001600160a01b031681565b348015610b4c57600080fd5b5061037a610b5b3660046144a3565b600f55565b348015610b6c57600080fd5b50600b546105149060ff1681565b348015610b8657600080fd5b5061037a612b83565b348015610b9b57600080fd5b5061037a610baa366004614d02565b612f13565b348015610bbb57600080fd5b5061037a612fc6565b348015610bd057600080fd5b5061037a610bdf3660046146a1565b612fd4565b348015610bf057600080fd5b50610bf961304d565b6040805196151587526020870195909552938501929092526060840152608083015260a082015260c0016103b0565b600f54600003610c375742600f555b80600f6000828254610c499190614d59565b909155505050565b60606003805480602002602001604051908101604052809291908181526020016000905b82821015610d055760008481526020908190206040805160e0810182526005860290920180546001600160a01b0390811684526001808301548587015260028301549385019390935260038201546060850152600490910154908116608084015260ff600160a01b82048116151560a0850152600160a81b90910416151560c08301529083529092019101610c75565b50505050905090565b6000828152600a602052604090205460ff16610d715760405162461bcd60e51b815260206004820152601360248201527f52657175657374206e6f742070656e64696e670000000000000000000000000060448201526064015b60405180910390fd5b600081604051602001610d849190614853565b60408051601f1981840301815260208301909152600082529150610da9848383613184565b50505050565b6000818152600a602052604090205460ff16610e0d5760405162461bcd60e51b815260206004820152601360248201527f52657175657374206e6f742070656e64696e67000000000000000000000000006044820152606401610d68565b60008181526008602052604081208054610e2690614d6c565b80601f0160208091040260200160405190810160405280929190818152602001828054610e5290614d6c565b8015610e9f5780601f10610e7457610100808354040283529160200191610e9f565b820191906000526020600020905b815481529060010190602001808311610e8257829003601f168201915b505050505090506000600960008481526020019081526020016000208054610ec690614d6c565b80601f0160208091040260200160405190810160405280929190818152602001828054610ef290614d6c565b8015610f3f5780601f10610f1457610100808354040283529160200191610f3f565b820191906000526020600020905b815481529060010190602001808311610f2257829003601f168201915b50505050509050610f51838383613184565b505050565b6015546001600160a01b03163314610f9a576040517f075fd2b100000000000000000000000000000000000000000000000000000000815260040160405180910390fd5b828114610fd3576040517f636e39bb00000000000000000000000000000000000000000000000000000000815260040160405180910390fd5b33600090815260106020526040812080548290610fef90614da0565b9190508190559050600060146000815461100890614da0565b918290555060165490915060009061102a906001600160a01b03163385613516565b601754909150600090611051906001600160a01b03163361104c876001614d59565b613516565b601954909150600090611073906001600160a01b03163361104c886002614d59565b9050611080856002614d59565b3360009081526010602052604090205561109a838d61356e565b6110a4828c6135eb565b6018546110c1908290859085906001600160a01b03168e89613648565b816001600160a01b0316632f2ff15d836001600160a01b0316638f61f4f56040518163ffffffff1660e01b8152600401602060405180830381865afa15801561110e573d6000803e3d6000fd5b505050506040513d601f19601f820116820180604052508101906111329190614dba565b6040517fffffffff0000000000000000000000000000000000000000000000000000000060e084901b16815260048101919091526001600160a01b0384166024820152604401600060405180830381600087803b15801561119257600080fd5b505af11580156111a6573d6000803e3d6000fd5b50505050816001600160a01b0316632f2ff15d836001600160a01b03166307bd02656040518163ffffffff1660e01b8152600401602060405180830381865afa1580156111f7573d6000803e3d6000fd5b505050506040513d601f19601f8201168201806040525081019061121b9190614dba565b6040517fffffffff0000000000000000000000000000000000000000000000000000000060e084901b168152600481019190915260006024820152604401600060405180830381600087803b15801561127357600080fd5b505af1158015611287573d6000803e3d6000fd5b50505050816001600160a01b03166336568abe836001600160a01b031663a217fddf6040518163ffffffff1660e01b8152600401602060405180830381865afa1580156112d8573d6000803e3d6000fd5b505050506040513d601f19601f820116820180604052508101906112fc9190614dba565b6040517fffffffff0000000000000000000000000000000000000000000000000000000060e084901b1681526004810191909152306024820152604401600060405180830381600087803b15801561135357600080fd5b505af1158015611367573d6000803e3d6000fd5b50506040517f7c88e3d90000000000000000000000000000000000000000000000000000000081526001600160a01b0386169250637c88e3d991506113b6908c908c908c908c90600401614e68565b600060405180830381600087803b1580156113d057600080fd5b505af11580156113e4573d6000803e3d6000fd5b50506040517ff2fde38b0000000000000000000000000000000000000000000000000000000081526001600160a01b0385811660048301528616925063f2fde38b9150602401600060405180830381600087803b15801561144457600080fd5b505af1158015611458573d6000803e3d6000fd5b5050506001600160a01b0380831660008181526012602090815260408083208a90558051608081018252898616815288861681840190815281830195865233606083018181528d87526011909552948390209151825490881673ffffffffffffffffffffffffffffffffffffffff19918216178355905160018301805491891691831691909117905594516002820180549188169187169190911790559151600390920180549290951691909316179092555190915085907f3b785ea6f499a552d583841394f9e27727de143f34ed2585796814f93887d84f9061155f908790879087906001600160a01b0393841681529183166020830152909116604082015260600190565b60405180910390a3505050505050505050505050565b6001805461158290614d6c565b80601f01602080910402602001604051908101604052809291908181526020018280546115ae90614d6c565b80156115fb5780601f106115d0576101008083540402835291602001916115fb565b820191906000526020600020905b8154815290600101906020018083116115de57829003601f168201915b505050505081565b6000828152600a602052604090205460ff166116615760405162461bcd60e51b815260206004820152601360248201527f52657175657374206e6f742070656e64696e67000000000000000000000000006044820152606401610d68565b60408051602081019091526000815281610da9848383613184565b600b805460ff19168215159081179091556040519081527f597db723170e2062ff01c7a921f699b0274807a884be8bdce5f2fcf3d645844b9060200160405180910390a150565b6001600160a01b0382166000908152600660209081526040808320848452909152902060040154600160a01b900460ff165b92915050565b600b5461010090046001600160a01b031633148061171857503330145b61178a5760405162461bcd60e51b815260206004820152602660248201527f4f6e6c79206175746f6d6174696f6e2072656769737472792063616e2063616c60448201527f6c207468697300000000000000000000000000000000000000000000000000006064820152608401610d68565b600b5460ff166117dc5760405162461bcd60e51b815260206004820152601660248201527f4175746f6d6174696f6e2069732064697361626c6564000000000000000000006044820152606401610d68565b60006117ea82840184614ebe565b90506000815167ffffffffffffffff81111561180857611808614554565b60405190808252806020026020018201604052801561183b57816020015b60608152602001906001900390816118265790505b50905060005b8251811015611ab257600083828151811061185e5761185e614fd1565b60209081029190910181015180516001600160a01b031660009081526006835260408082208184015183529093529190912060040154909150606090600160a01b900460ff16611a025781516001600160a01b03166000908152600660209081526040808320818601518452909152902060040180547fffffffffffffffffffffff00ffffffffffffffffffffffffffffffffffffffff16600160a01b17905581516119099061381a565b61191683602001516139fb565b61192384604001516139fb565b61193085606001516139fb565b61193d866080015161381a565b604051602001611951959493929190615003565b60405160208183030381529060405290508084848151811061197557611975614fd1565b60200260200101819052506119bf6040518060400160405280601481526020017f53657269616c697a65642070726f706f73616c3a00000000000000000000000081525082613b20565b81604001517f3e069fb74dcf5fbc07740b0d40d7f7fc48e9c0ca5dc3d19eb34d2e05d74c554383606001516040516119f991815260200190565b60405180910390a25b6040805161012081018252600d60e082019081527f717565756550726f706f73616c00000000000000000000000000000000000000610100830152815281516020808201845260008083528184019290925282840182905260608301829052608083018890528351828152908101909352611aa79260a0830191611a96565b6060815260200190600190039081611a815790505b508152600060209091015286613b97565b505050600101611841565b5042600c55600d8054906000611ac783614da0565b9190505550600d547f9fbc2aeb5bf6200e5499d345acddf1dd462c37becb4673d661250b89ced7ff6a8351604051611b0191815260200190565b60405180910390a250505050565b6002805461158290614d6c565b600e5460009060609060ff1615611b595760016003604051602001611b419190615144565b60405160208183030381529060405291509150611ee0565b600b5460ff16611b7b5750506040805160208101909152600080825290611ee0565b60008080600f5411611b8d5742611b91565b600f545b905060005b600354811015611c74578160038281548110611bb457611bb4614fd1565b90600052602060002090600502016003015411158015611c5957506006600060038381548110611be657611be6614fd1565b600091825260208083206005909202909101546001600160a01b0316835282019290925260400181206003805491929184908110611c2657611c26614fd1565b906000526020600020906005020160020154815260200190815260200160002060040160149054906101000a900460ff16155b15611c6c5782611c6881614da0565b9350505b600101611b96565b5081600003611c9a57600060405180602001604052806000815250935093505050611ee0565b60008267ffffffffffffffff811115611cb557611cb5614554565b604051908082528060200260200182016040528015611d1c57816020015b6040805160e08101825260008082526020808301829052928201819052606082018190526080820181905260a0820181905260c08201528252600019909201910181611cd35790505b5090506000805b600354811015611eb2578360038281548110611d4157611d41614fd1565b90600052602060002090600502016003015411158015611de657506006600060038381548110611d7357611d73614fd1565b600091825260208083206005909202909101546001600160a01b0316835282019290925260400181206003805491929184908110611db357611db3614fd1565b906000526020600020906005020160020154815260200190815260200160002060040160149054906101000a900460ff16155b15611eaa5760038181548110611dfe57611dfe614fd1565b60009182526020918290206040805160e081018252600590930290910180546001600160a01b0390811684526001820154948401949094526002810154918301919091526003810154606083015260040154918216608082015260ff600160a01b83048116151560a0830152600160a81b909204909116151560c08201528351849084908110611e9057611e90614fd1565b60200260200101819052508180611ea690614da0565b9250505b600101611d23565b5081604051602001611ec491906144bc565b6040516020818303038152906040529450600084119550505050505b9250929050565b600b54600090819060ff16611eff5750600091829150565b6040517f6e04ff0d000000000000000000000000000000000000000000000000000000008152602060048201526000602482018190529081903090636e04ff0d90604401600060405180830381865afa158015611f60573d6000803e3d6000fd5b505050506040513d6000823e601f3d908101601f19168201604052611f889190810190615212565b915091508115612024576040517f4585e33b0000000000000000000000000000000000000000000000000000000081523090634585e33b90611fce908490600401614853565b600060405180830381600087803b158015611fe857600080fd5b505af1158015611ffc573d6000803e3d6000fd5b50505050600081806020019051810190612016919061526d565b516001969095509350505050565b50600093849350915050565b6004546000906001600160a01b0316331461207d5760405162461bcd60e51b815260206004820152600d60248201526c2737ba103a34329037bbb732b960991b6044820152606401610d68565b60058054429144913391600061209283614da0565b909155506040805160208101959095528401929092526bffffffffffffffffffffffff19606091821b1690830152607482015260940160408051601f1981840301815291815281516020928301206000818155818152600a9093529120805460ff191660011790559050949350505050565b6040517f6e04ff0d0000000000000000000000000000000000000000000000000000000081526020600482015260006024820181905290819081903090636e04ff0d90604401600060405180830381865afa158015612167573d6000803e3d6000fd5b505050506040513d6000823e601f3d908101601f1916820160405261218f9190810190615212565b915091508115612226576040517f4585e33b0000000000000000000000000000000000000000000000000000000081523090634585e33b906121d5908490600401614853565b600060405180830381600087803b1580156121ef57600080fd5b505af1158015612203573d6000803e3d6000fd5b5050505060008180602001905181019061221d919061526d565b51949350505050565b60009250505090565b868514801561223d57508483145b6122895760405162461bcd60e51b815260206004820152601660248201527f417272617973206c656e677468206d69736d61746368000000000000000000006044820152606401610d68565b60005b878110156124e75760036040518060e001604052808b8b858181106122b3576122b3614fd1565b90506020020160208101906122c891906146a1565b6001600160a01b03168152602001600081526020018989858181106122ef576122ef614fd1565b90506020020135815260200187878581811061230d5761230d614fd1565b90506020020135815260200185858581811061232b5761232b614fd1565b905060200201602081019061234091906146a1565b6001600160a01b039081168252600060208084018290526040938401829052855460018181018855968352918190208551600590930201805492841673ffffffffffffffffffffffffffffffffffffffff19909316929092178255840151948101949094559082015160028401556060820151600384015560808201516004909301805460a084015160c0909401511515600160a81b0260ff60a81b19941515600160a01b0274ffffffffffffffffffffffffffffffffffffffffff199092169590931694909417939093179190911617905586868281811061242557612425614fd1565b9050602002013560008a8a8481811061244057612440614fd1565b905060200201602081019061245591906146a1565b6001600160a01b03167fb65a679ed33acf689f42e48df6479c5b17db675374667f1e11a2f24e3bed897a88888681811061249157612491614fd1565b905060200201358787878181106124aa576124aa614fd1565b90506020020160208101906124bf91906146a1565b604080519283526001600160a01b0390911660208301520160405180910390a460010161228c565b505050505050505050565b60005b60035481101561259f576000600660006003848154811061251857612518614fd1565b600091825260208083206005909202909101546001600160a01b031683528201929092526040018120600380549192918590811061255857612558614fd1565b906000526020600020906005020160020154815260200190815260200160002060040160146101000a81548160ff02191690831515021790555080806001019150506124f5565b50565b6004546001600160a01b031633146125ec5760405162461bcd60e51b815260206004820152600d60248201526c2737ba103a34329037bbb732b960991b6044820152606401610d68565b600083815260086020526040902061260483826153bd565b506000838152600960205260409020610da982826153bd565b606081600160005b82518110156126a35782818151811061264057612640614fd1565b01602001517fff00000000000000000000000000000000000000000000000000000000000000167f7c000000000000000000000000000000000000000000000000000000000000000361269b578161269781614da0565b9250505b600101612625565b5060008167ffffffffffffffff8111156126bf576126bf614554565b6040519080825280602002602001820160405280156126f257816020015b60608152602001906001900390816126dd5790505b50905060008060005b85518110156128725785818151811061271657612716614fd1565b01602001517fff00000000000000000000000000000000000000000000000000000000000000167f7c000000000000000000000000000000000000000000000000000000000000000361286a57600061276f848361547c565b67ffffffffffffffff81111561278757612787614554565b6040519080825280601f01601f1916602001820160405280156127b1576020820181803683370190505b509050835b82811015612831578781815181106127d0576127d0614fd1565b01602001517fff000000000000000000000000000000000000000000000000000000000000001682612802878461547c565b8151811061281257612812614fd1565b60200101906001600160f81b031916908160001a9053506001016127b6565b5080858461283e81614da0565b95508151811061285057612850614fd1565b6020908102919091010152612866826001614d59565b9350505b6001016126fb565b50845182101561296f57600082865161288b919061547c565b67ffffffffffffffff8111156128a3576128a3614554565b6040519080825280601f01601f1916602001820160405280156128cd576020820181803683370190505b509050825b865181101561294e578681815181106128ed576128ed614fd1565b01602001517fff00000000000000000000000000000000000000000000000000000000000000168261291f868461547c565b8151811061292f5761292f614fd1565b60200101906001600160f81b031916908160001a9053506001016128d2565b508084838151811061296257612962614fd1565b6020026020010181905250505b509095945050505050565b601354601a546040517f70a082310000000000000000000000000000000000000000000000000000000081523360048201526001600160a01b03909116906370a0823190602401602060405180830381865afa1580156129de573d6000803e3d6000fd5b505050506040513d601f19601f82011682018060405250810190612a029190614dba565b1015612a3a576040517fe793143800000000000000000000000000000000000000000000000000000000815260040160405180910390fd5b601354601a546040517fdd62ed3e0000000000000000000000000000000000000000000000000000000081523360048201523060248201526001600160a01b039091169063dd62ed3e90604401602060405180830381865afa158015612aa4573d6000803e3d6000fd5b505050506040513d601f19601f82011682018060405250810190612ac89190614dba565b1015612b00576040517f0fd3919300000000000000000000000000000000000000000000000000000000815260040160405180910390fd5b601a546040805160608101825233815230602082015260135491810191909152612b33916001600160a01b031690613ff1565b507f8e89a238ee2d1df84f7e9b3f32630993ecc9e38a775b1a9a7a28bcb158660da08888888888888888604051612b71989796959493929190615516565b60405180910390a15050505050505050565b6000805b600354811015612c33576006600060038381548110612ba857612ba8614fd1565b600091825260208083206005909202909101546001600160a01b0316835282019290925260400181206003805491929184908110612be857612be8614fd1565b906000526020600020906005020160020154815260200190815260200160002060040160149054906101000a900460ff16612c2b5781612c2781614da0565b9250505b600101612b87565b5060008167ffffffffffffffff811115612c4f57612c4f614554565b604051908082528060200260200182016040528015612cb657816020015b6040805160e08101825260008082526020808301829052928201819052606082018190526080820181905260a0820181905260c08201528252600019909201910181612c6d5790505b5090506000805b600354811015612e1a576006600060038381548110612cde57612cde614fd1565b600091825260208083206005909202909101546001600160a01b0316835282019290925260400181206003805491929184908110612d1e57612d1e614fd1565b906000526020600020906005020160020154815260200190815260200160002060040160149054906101000a900460ff16612e125760038181548110612d6657612d66614fd1565b60009182526020918290206040805160e081018252600590930290910180546001600160a01b0390811684526001820154948401949094526002810154918301919091526003810154606083015260040154918216608082015260ff600160a01b83048116151560a0830152600160a81b909204909116151560c08201528351849084908110612df857612df8614fd1565b60200260200101819052508180612e0e90614da0565b9250505b600101612cbd565b50612e2760036000614418565b60005b8251811015610da9576003838281518110612e4757612e47614fd1565b602090810291909101810151825460018181018555600094855293839020825160059092020180546001600160a01b0392831673ffffffffffffffffffffffffffffffffffffffff199091161781559282015183850155604082015160028401556060820151600384015560808201516004909301805460a084015160c0909401511515600160a81b0260ff60a81b19941515600160a01b0274ffffffffffffffffffffffffffffffffffffffffff199092169590931694909417939093179190911617905501612e2a565b3360009081526012602052604081205490819003612f60576040517f442d09d900000000000000000000000000000000000000000000000000000000815260048101829052602401610d68565b6000818152601160205260409020600201546001600160a01b03163314612fb3576040517f075fd2b100000000000000000000000000000000000000000000000000000000815260040160405180910390fd5b612fbf85858585614094565b5050505050565b612fd260036000614418565b565b6004546001600160a01b0316331461301e5760405162461bcd60e51b815260206004820152600d60248201526c2737ba103a34329037bbb732b960991b6044820152606401610d68565b6004805473ffffffffffffffffffffffffffffffffffffffff19166001600160a01b0392909216919091179055565b600080600080600080600080600080600f541161306a574261306e565b600f545b905060005b60035481101561315d57816003828154811061309157613091614fd1565b906000526020600020906005020160030154116131555760066000600383815481106130bf576130bf614fd1565b600091825260208083206005909202909101546001600160a01b03168352820192909252604001812060038054919291849081106130ff576130ff614fd1565b906000526020600020906005020160020154815260200190815260200160002060040160149054906101000a900460ff1615613147578261313f81614da0565b935050613155565b8361315181614da0565b9450505b600101613073565b5050600b54600354600c54600d5460ff9093169b919a509398509196509194509092509050565b6000838152600a602052604090205460ff166131cf576040517fd068bf5b00000000000000000000000000000000000000000000000000000000815260048101849052602401610d68565b6000838152600a60205260409020805460ff1916905560016131f183826153bd565b5060026131fe82826153bd565b508151156134d55760008280602001905181019061321c919061567d565b905060006132298261261d565b905060006007600080548152602001908152602001600020805480602002602001604051908101604052809291908181526020016000905b828210156132f15760008481526020908190206040805160e0810182526005860290920180546001600160a01b0390811684526001808301548587015260028301549385019390935260038201546060850152600490910154908116608084015260ff600160a01b82048116151560a0850152600160a81b90910416151560c08301529083529092019101613261565b50505050905060005b81518110156134d0576006600083838151811061331957613319614fd1565b6020026020010151600001516001600160a01b03166001600160a01b03168152602001908152602001600020600083838151811061335957613359614fd1565b602002602001015160400151815260200190815260200160002060040160159054906101000a900460ff166134c85781818151811061339a5761339a614fd1565b6020026020010151600001516001600160a01b0316633216e1f68383815181106133c6576133c6614fd1565b6020026020010151604001518584815181106133e4576133e4614fd1565b60200260200101516040518363ffffffff1660e01b81526004016134099291906156c6565b600060405180830381600087803b15801561342357600080fd5b505af1158015613437573d6000803e3d6000fd5b5050505060016006600084848151811061345357613453614fd1565b6020026020010151600001516001600160a01b03166001600160a01b03168152602001908152602001600020600084848151811061349357613493614fd1565b602002602001015160400151815260200190815260200160002060040160156101000a81548160ff0219169083151502179055505b6001016132fa565b505050505b827f7873807bf6ddc50401cd3d29bbe0decee23fd4d68d273f4b5eb83cded4d2f17260016002604051613509929190615762565b60405180910390a2505050565b6040516bffffffffffffffffffffffff19606084901b1660208201526034810182905260009081906054016040516020818303038152906040528051906020012090506135638582614259565b9150505b9392505050565b6001600160a01b03821663077f224a6135878380615787565b6135946020860186615787565b306040518663ffffffff1660e01b81526004016135b59594939291906157ce565b600060405180830381600087803b1580156135cf57600080fd5b505af11580156135e3573d6000803e3d6000fd5b505050505050565b60408051600080825260208201908152818301928390527fc4c4c7b3000000000000000000000000000000000000000000000000000000009092526001600160a01b0384169163c4c4c7b3916135b591859190306044830161584c565b604080516101408101909152600090806136628580615787565b8080601f0160208091040260200160405190810160405280939291908181526020018383808284376000920191909152505050908252506001600160a01b038089166020830152871660408201526060908101906136c69060808701908701615892565b65ffffffffffff1681526020016136e360a08601608087016158ad565b63ffffffff1681526020018460a0013581526020018460c0013581526020018381526020018480602001906137189190615787565b8080601f01602080910402602001604051908101604052809392919081815260200183838082843760009201919091525050509082525060200161375f6040860186615787565b8080601f01602080910402602001604051908101604052809392919081815260200183838082843760009201919091525050509152506040517fb08d74340000000000000000000000000000000000000000000000000000000081529091506001600160a01b0388169063b08d7434906137df90849088906004016158c8565b600060405180830381600087803b1580156137f957600080fd5b505af115801561380d573d6000803e3d6000fd5b5050505050505050505050565b60408051602a8082526060828101909352600091906020820181803683370190505090507f30000000000000000000000000000000000000000000000000000000000000008160008151811061387257613872614fd1565b60200101906001600160f81b031916908160001a9053507f7800000000000000000000000000000000000000000000000000000000000000816001815181106138bd576138bd614fd1565b60200101906001600160f81b031916908160001a90535060005b60148110156139f45760006138ed82601361547c565b6138f89060086159b4565b613903906002615ab2565b613916906001600160a01b038716615ad4565b60f81b9050600060108260f81c61392d9190615ae8565b60f81b905060008160f81c60106139449190615b0a565b8360f81c6139529190615b26565b60f81b905061396082614267565b8561396c8660026159b4565b613977906002614d59565b8151811061398757613987614fd1565b60200101906001600160f81b031916908160001a9053506139a781614267565b856139b38660026159b4565b6139be906003614d59565b815181106139ce576139ce614fd1565b60200101906001600160f81b031916908160001a90535050600190920191506138d79050565b5092915050565b606081600003613a3e57505060408051808201909152600181527f3000000000000000000000000000000000000000000000000000000000000000602082015290565b6000825b8015613a685781613a5281614da0565b9250613a619050600a82615ad4565b9050613a42565b60008267ffffffffffffffff811115613a8357613a83614554565b6040519080825280601f01601f191660200182016040528015613aad576020820181803683370190505b5090505b8415613b1857613ac260018461547c565b9250613acf600a86615b3f565b613ada906030614d59565b60f81b818481518110613aef57613aef614fd1565b60200101906001600160f81b031916908160001a905350613b11600a86615ad4565b9450613ab1565b949350505050565b613b938282604051602401613b36929190615b53565b60408051601f198184030181529190526020810180517bffffffffffffffffffffffffffffffffffffffffffffffffffffffff167f4b5c4277000000000000000000000000000000000000000000000000000000001790526142a2565b5050565b6004546000906001600160a01b03163314613be45760405162461bcd60e51b815260206004820152600d60248201526c2737ba103a34329037bbb732b960991b6044820152606401610d68565b600580544291449133916000613bf983614da0565b909155506040805160208101959095528401929092526bffffffffffffffffffffffff19606091821b1690830152607482015260940160405160208183030381529060405280519060200120905060005b8251811015613f8b5760008281526007602052604090208351849083908110613c7557613c75614fd1565b6020908102919091018101518254600181810185556000948552838520835160059093020180546001600160a01b0393841673ffffffffffffffffffffffffffffffffffffffff199091161781559383015190840155604082015160028401556060820151600384015560808201516004909301805460a084015160c0909401511515600160a81b0260ff60a81b19941515600160a01b0274ffffffffffffffffffffffffffffffffffffffffff19909216959093169490941793909317919091161790555b600354811015613f8257838281518110613d5757613d57614fd1565b6020026020010151600001516001600160a01b031660038281548110613d7f57613d7f614fd1565b60009182526020909120600590910201546001600160a01b0316148015613de65750838281518110613db357613db3614fd1565b60200260200101516040015160038281548110613dd257613dd2614fd1565b906000526020600020906005020160020154145b15613f7a5760038054613dfb9060019061547c565b81548110613e0b57613e0b614fd1565b906000526020600020906005020160038281548110613e2c57613e2c614fd1565b600091825260209091208254600590920201805473ffffffffffffffffffffffffffffffffffffffff199081166001600160a01b0393841617825560018085015490830155600280850154908301556003808501548184015560049485018054959093018054928316959094169485178455825460ff600160a01b918290048116151590910274ffffffffffffffffffffffffffffffffffffffffff19909316909517919091178084559154600160a81b90819004909416151590930260ff60a81b19909116179055805480613f0457613f04615b78565b600082815260208120600560001990930192830201805473ffffffffffffffffffffffffffffffffffffffff191681556001810182905560028101829055600381019190915560040180547fffffffffffffffffffff000000000000000000000000000000000000000000001690559055613f82565b600101613d3b565b50600101613c4a565b506000818155818152600a602052604090819020805460ff1916600117905583516080850151915183927f5e87b5b259a63aac337d64eab6329a5b338a5c09b41c8fa0e5c4730da890d6d292613fe392909190615b8e565b60405180910390a292915050565b60408101516000907fffffffffffffffffffffffff11111111111111111111111111111111111111126001600160a01b038516016140765780341015614063576040517f74c5672b00000000000000000000000000000000000000000000000000000000815260040160405180910390fd5b6140718360200151826142ab565b61408a565b61408a8484600001518560200151846142c7565b5060019392505050565b6040805160e081018252338082526020808301888152838501888152606085018881526001600160a01b0388811660808801818152600060a08a0181815260c08b018281526003805460018101825593529a517fc2575a0e9e593c00f959f8c92f12db2869c3395a3b0502d05e2516446f71f85b6005909302928301805473ffffffffffffffffffffffffffffffffffffffff191691871691909117905596517fc2575a0e9e593c00f959f8c92f12db2869c3395a3b0502d05e2516446f71f85c82015594517fc2575a0e9e593c00f959f8c92f12db2869c3395a3b0502d05e2516446f71f85d86015592517fc2575a0e9e593c00f959f8c92f12db2869c3395a3b0502d05e2516446f71f85e85015591517fc2575a0e9e593c00f959f8c92f12db2869c3395a3b0502d05e2516446f71f85f9093018054945197519390911674ffffffffffffffffffffffffffffffffffffffffff1990941693909317600160a01b961515969096029590951760ff60a81b1916600160a81b91151591909102179055835186815290810192909252859287927fb65a679ed33acf689f42e48df6479c5b17db675374667f1e11a2f24e3bed897a910160405180910390a450505050565b60006135678383600061432e565b6000600a60f883901c101561428e5761428560f883901c6030615bb3565b60f81b92915050565b61428560f883901c6057615bb3565b919050565b61259f816143f7565b60003860003884865af1613b935763b12d13eb6000526004601cfd5b60405181606052826040528360601b602c526f23b872dd000000000000000000000000600c52602060006064601c6000895af1806001600051141661431f57803d873b15171061431f57637939f4246000526004601cfd5b50600060605260405250505050565b600081471015614373576040517fcf47918100000000000000000000000000000000000000000000000000000000815247600482015260248101839052604401610d68565b763d602d80600a3d3981f3363d3d373d3d3d363d730000008460601b60e81c176000526e5af43d82803e903d91602b57fd5bf38460781b17602052826037600984f590506001600160a01b038116613567576040517fb06ebf3d00000000000000000000000000000000000000000000000000000000815260040160405180910390fd5b60006a636f6e736f6c652e6c6f679050600080835160208501845afa505050565b508054600082556005029060005260206000209081019061259f91905b8082111561449f57805473ffffffffffffffffffffffffffffffffffffffff191681556000600182018190556002820181905560038201556004810180547fffffffffffffffffffff00000000000000000000000000000000000000000000169055600501614435565b5090565b6000602082840312156144b557600080fd5b5035919050565b602080825282518282018190526000918401906040840190835b8181101561296f5761453e8385516001600160a01b0381511682526020810151602083015260408101516040830152606081015160608301526001600160a01b03608082015116608083015260a0810151151560a083015260c0810151151560c08301525050565b6020939093019260e092909201916001016144d6565b634e487b7160e01b600052604160045260246000fd5b60405160e0810167ffffffffffffffff8111828210171561458d5761458d614554565b60405290565b604051601f8201601f1916810167ffffffffffffffff811182821017156145bc576145bc614554565b604052919050565b600067ffffffffffffffff8211156145de576145de614554565b50601f01601f191660200190565b600082601f8301126145fd57600080fd5b8135602083016000614616614611846145c4565b614593565b905082815285838301111561462a57600080fd5b82826020830137600092810160200192909252509392505050565b6000806040838503121561465857600080fd5b82359150602083013567ffffffffffffffff81111561467657600080fd5b614682858286016145ec565b9150509250929050565b6001600160a01b038116811461259f57600080fd5b6000602082840312156146b357600080fd5b81356135678161468c565b6000604082840312156146d057600080fd5b50919050565b600060e082840312156146d057600080fd5b60008083601f8401126146fa57600080fd5b50813567ffffffffffffffff81111561471257600080fd5b6020830191508360208260051b8501011115611ee057600080fd5b600080600080600080600060a0888a03121561474857600080fd5b873567ffffffffffffffff81111561475f57600080fd5b61476b8a828b016146be565b97505060208801359550604088013567ffffffffffffffff81111561478f57600080fd5b61479b8a828b016146d6565b955050606088013567ffffffffffffffff8111156147b857600080fd5b6147c48a828b016146e8565b909550935050608088013567ffffffffffffffff8111156147e457600080fd5b6147f08a828b016146e8565b989b979a50959850939692959293505050565b60005b8381101561481e578181015183820152602001614806565b50506000910152565b6000815180845261483f816020860160208601614803565b601f01601f19169290920160200192915050565b6020815260006135676020830184614827565b801515811461259f57600080fd5b60006020828403121561488657600080fd5b813561356781614866565b600080604083850312156148a457600080fd5b82356148af8161468c565b946020939093013593505050565b600080602083850312156148d057600080fd5b823567ffffffffffffffff8111156148e757600080fd5b8301601f810185136148f857600080fd5b803567ffffffffffffffff81111561490f57600080fd5b85602082840101111561492157600080fd5b6020919091019590945092505050565b8215158152604060208201526000613b186040830184614827565b803563ffffffff8116811461429d57600080fd5b6000806000806080858703121561497657600080fd5b843567ffffffffffffffff81111561498d57600080fd5b614999878288016145ec565b945050602085013567ffffffffffffffff811681146149b757600080fd5b92506149c56040860161494c565b9396929550929360600135925050565b6000806000806000806000806080898b0312156149f157600080fd5b883567ffffffffffffffff811115614a0857600080fd5b614a148b828c016146e8565b909950975050602089013567ffffffffffffffff811115614a3457600080fd5b614a408b828c016146e8565b909750955050604089013567ffffffffffffffff811115614a6057600080fd5b614a6c8b828c016146e8565b909550935050606089013567ffffffffffffffff811115614a8c57600080fd5b614a988b828c016146e8565b999c989b5096995094979396929594505050565b600080600060608486031215614ac157600080fd5b83359250602084013567ffffffffffffffff811115614adf57600080fd5b614aeb868287016145ec565b925050604084013567ffffffffffffffff811115614b0857600080fd5b614b14868287016145ec565b9150509250925092565b600060208284031215614b3057600080fd5b813567ffffffffffffffff811115614b4757600080fd5b613b18848285016145ec565b600082825180855260208501945060208160051b8301016020850160005b83811015614ba357601f19858403018852614b8d838351614827565b6020988901989093509190910190600101614b71565b50909695505050505050565b6020815260006135676020830184614b53565b60e081016116f582846001600160a01b0381511682526020810151602083015260408101516040830152606081015160608301526001600160a01b03608082015116608083015260a0810151151560a083015260c0810151151560c08301525050565b60008060008060008060008060c0898b031215614c4157600080fd5b883567ffffffffffffffff811115614c5857600080fd5b614c648b828c016146be565b98505060208901359650604089013567ffffffffffffffff811115614c8857600080fd5b614c948b828c016146d6565b965050606089013567ffffffffffffffff811115614cb157600080fd5b614cbd8b828c016146e8565b909650945050608089013567ffffffffffffffff811115614cdd57600080fd5b614ce98b828c016146e8565b999c989b50969995989497949560a00135949350505050565b60008060008060808587031215614d1857600080fd5b8435935060208501359250604085013591506060850135614d388161468c565b939692955090935050565b634e487b7160e01b600052601160045260246000fd5b808201808211156116f5576116f5614d43565b600181811c90821680614d8057607f821691505b6020821081036146d057634e487b7160e01b600052602260045260246000fd5b60006000198203614db357614db3614d43565b5060010190565b600060208284031215614dcc57600080fd5b5051919050565b81835260208301925060008160005b84811015614e13578135614df58161468c565b6001600160a01b031686526020958601959190910190600101614de2565b5093949350505050565b81835260007f07ffffffffffffffffffffffffffffffffffffffffffffffffffffffffffffff831115614e4f57600080fd5b8260051b80836020870137939093016020019392505050565b604081526000614e7c604083018688614dd3565b8281036020840152614e8f818587614e1d565b979650505050505050565b600067ffffffffffffffff821115614eb457614eb4614554565b5060051b60200190565b600060208284031215614ed057600080fd5b813567ffffffffffffffff811115614ee757600080fd5b8201601f81018413614ef857600080fd5b8035614f0661461182614e9a565b80828252602082019150602060e08402850101925086831115614f2857600080fd5b6020840193505b82841015614fc75760e08488031215614f4757600080fd5b614f4f61456a565b8435614f5a8161468c565b81526020858101359082015260408086013590820152606080860135908201526080850135614f888161468c565b608082015260a0850135614f9b81614866565b60a082015260c0850135614fae81614866565b60c0820152825260e09390930192602090910190614f2f565b9695505050505050565b634e487b7160e01b600052603260045260246000fd5b60008151614ff9818560208601614803565b9290920192915050565b7f64616f3d0000000000000000000000000000000000000000000000000000000081526000865161503b816004850160208b01614803565b7f3b64616f49643d00000000000000000000000000000000000000000000000000600491840191820152865161507881600b840160208b01614803565b6004818301019150507f3b70726f706f73616c49643d0000000000000000000000000000000000000000600782015285516150ba816013840160208a01614803565b6007818301019150507f3b736e617073686f743d00000000000000000000000000000000000000000000600c82015284516150fc816016840160208901614803565b6151376151316016848401017f3b766f7465546f6b656e3d0000000000000000000000000000000000000000008152600b0190565b86614fe7565b9998505050505050505050565b602080825282548282018190526000848152918220906040840190835b8181101561296f5783546001600160a01b039081168452600185015460208501526002850154604085015260038501546060850152600485015490811660808501526151b760a0850160ff8360a01c1615159052565b6151cb60c0850160ff8360a81c1615159052565b506005939093019260e09290920191600101615161565b60006151f0614611846145c4565b905082815283838301111561520457600080fd5b613567836020830184614803565b6000806040838503121561522557600080fd5b825161523081614866565b602084015190925067ffffffffffffffff81111561524d57600080fd5b8301601f8101851361525e57600080fd5b614682858251602084016151e2565b60006020828403121561527f57600080fd5b815167ffffffffffffffff81111561529657600080fd5b8201601f810184136152a757600080fd5b80516152b561461182614e9a565b80828252602082019150602060e084028501019250868311156152d757600080fd5b6020840193505b82841015614fc75760e084880312156152f657600080fd5b6152fe61456a565b84516153098161468c565b815260208581015190820152604080860151908201526060808601519082015260808501516153378161468c565b608082015260a085015161534a81614866565b60a082015260c085015161535d81614866565b60c0820152825260e093909301926020909101906152de565b601f821115610f5157806000526020600020601f840160051c8101602085101561539d5750805b601f840160051c820191505b81811015612fbf57600081556001016153a9565b815167ffffffffffffffff8111156153d7576153d7614554565b6153eb816153e58454614d6c565b84615376565b6020601f82116001811461541f57600083156154075750848201515b600019600385901b1c1916600184901b178455612fbf565b600084815260208120601f198516915b8281101561544f578785015182556020948501946001909201910161542f565b508482101561546d5786840151600019600387901b60f8161c191681555b50505050600190811b01905550565b818103818111156116f5576116f5614d43565b6000808335601e198436030181126154a657600080fd5b830160208101925035905067ffffffffffffffff8111156154c657600080fd5b803603821315611ee057600080fd5b818352818160208501375060006020828401015260006020601f19601f840116840101905092915050565b803565ffffffffffff8116811461429d57600080fd5b60c0815260006155268a8b61548f565b604060c085015261553c610100850182846154d5565b91505061554c60208c018c61548f565b7fffffffffffffffffffffffffffffffffffffffffffffffffffffffffffffff408584030160e08601526155818382846154d5565b92505050896020840152828103604084015261559d898a61548f565b60e083526155af60e0840182846154d5565b9150506155bf60208b018b61548f565b83830360208501526155d28382846154d5565b925050506155e360408b018b61548f565b83830360408501526155f68382846154d5565b9250505065ffffffffffff61560d60608c01615500565b16606083015263ffffffff61562460808c0161494c565b16608083015260a08a8101359083015260c0808b013590830152838103606085015261565181898b614dd3565b9150508281036080840152615667818688614e1d565b9150508260a08301529998505050505050505050565b60006020828403121561568f57600080fd5b815167ffffffffffffffff8111156156a657600080fd5b8201601f810184136156b757600080fd5b613b18848251602084016151e2565b828152604060208201526000613b186040830184614827565b600081546156ec81614d6c565b808552600182168015615706576001811461572257615759565b60ff1983166020870152602082151560051b8701019350615759565b84600052602060002060005b838110156157505781546020828a01015260018201915060208101905061572e565b87016020019450505b50505092915050565b60408152600061577560408301856156df565b828103602084015261356381856156df565b6000808335601e1984360301811261579e57600080fd5b83018035915067ffffffffffffffff8211156157b957600080fd5b602001915036819003821315611ee057600080fd5b6060815260006157e26060830187896154d5565b82810360208401526157f58186886154d5565b9150506001600160a01b03831660408301529695505050505050565b600081518084526020840193506020830160005b82811015614e135781516001600160a01b0316865260209586019590910190600101615825565b8481526080602082015260006158656080830186615811565b82810360408401526158778186615811565b9150506001600160a01b038316606083015295945050505050565b6000602082840312156158a457600080fd5b61356782615500565b6000602082840312156158bf57600080fd5b6135678261494c565b604081526000835161014060408401526158e6610180840182614827565b9050602085015161590260608501826001600160a01b03169052565b5060408501516001600160a01b038116608085015250606085015165ffffffffffff811660a085015250608085015163ffffffff811660c08501525060a085015160e084015260c085015161010084015260e0850151610120840152610100850151603f198483030161014085015261597b8282614827565b915050610120850151603f198483030161016085015261599b8282614827565b9250505061356760208301846001600160a01b03169052565b80820281158282048414176116f5576116f5614d43565b6001815b6001841115615a06578085048111156159ea576159ea614d43565b60018416156159f857908102905b60019390931c9280026159cf565b935093915050565b600082615a1d575060016116f5565b81615a2a575060006116f5565b8160018114615a405760028114615a4a57615a66565b60019150506116f5565b60ff841115615a5b57615a5b614d43565b50506001821b6116f5565b5060208310610133831016604e8410600b8410161715615a89575081810a6116f5565b615a9660001984846159cb565b8060001904821115615aaa57615aaa614d43565b029392505050565b60006135678383615a0e565b634e487b7160e01b600052601260045260246000fd5b600082615ae357615ae3615abe565b500490565b600060ff831680615afb57615afb615abe565b8060ff84160491505092915050565b60ff81811683821602908116908181146139f4576139f4614d43565b60ff82811682821603908111156116f5576116f5614d43565b600082615b4e57615b4e615abe565b500690565b604081526000615b666040830185614827565b82810360208401526135638185614827565b634e487b7160e01b600052603160045260246000fd5b604081526000615ba16040830185614827565b82810360208401526135638185614b53565b60ff81811683821601908111156116f5576116f5614d4356fea2646970667358221220637c3c223f61d207c632303ddd34ebab8391f230804366b195a35c08294e063464736f6c634300081c0033",
	"devdoc": {
		"errors": {
			"FailedDeployment()": [
				{
					"details": "The deployment failed."
				}
			],
			"InsufficientBalance(uint256,uint256)": [
				{
					"details": "The ETH balance of the account is not enough to perform the operation."
				}
			]
		},
		"kind": "dev",
		"methods": {
			"autoFulfillRequest(bytes32)": {
				"params": {
					"requestId": "Request ID to auto-fulfill"
				}
			},
			"createDao((string,string),uint256,(string,string,string,uint48,uint32,uint256,uint256),address[],uint256[])": {
				"details": "Arrays _to and _amounts must have the same lengthEmits DaoCreated event upon successful creation",
				"params": {
					"_amounts": "Array of token amounts corresponding to _to addresses",
					"_governorParams": "Parameters for the governor contract",
					"_minDelay": "Minimum delay for timelock operations (in seconds)",
					"_to": "Array of addresses to receive initial token allocation",
					"_tokenParams": "Parameters for the governance token"
				}
			},
			"getImplementations()": {
				"returns": {
					"_governor": "Governor implementation address",
					"_governorToken": "Governor token implementation address",
					"_timelock": "Timelock implementation address",
					"_verifier": "ZK verifier implementation address"
				}
			},
			"getNonce(address)": {
				"params": {
					"account": "User address"
				},
				"returns": {
					"_0": "Current nonce value"
				}
			},
			"mockFulfillRequest(bytes32,string)": {
				"params": {
					"_cids": "Merkle root for the proposal",
					"_requestId": "The request ID to fulfill"
				}
			},
			"mockFulfillRequestWithError(bytes32,string)": {
				"params": {
					"errorMessage": "Error message to return",
					"requestId": "The request ID to fulfill with error"
				}
			},
			"queueProposal(uint256,uint256,uint256,address)": {
				"details": "Only callable by registered Governor contracts",
				"params": {
					"daoId": "DAO identifier",
					"proposalId": "Proposal identifier within the DAO",
					"snapshot": "Block number snapshot for the proposal"
				}
			},
			"setPredefinedResponse(bytes32,bytes,bytes)": {
				"params": {
					"err": "Error data",
					"requestId": "Request ID",
					"response": "Response data"
				}
			}
		},
		"version": 1
	},
	"userdoc": {
		"errors": {
			"DAO_NOT_FOUND(uint256)": [
				{
					"notice": "====================== ======= ZK DAO ======= ======================"
				}
			],
			"INSUFFICIENT_ALLOWANCE()": [
				{
					"notice": "====================== ====== Generic ======= ======================"
				}
			],
			"INVALID_VOTE_TYPE()": [
				{
					"notice": "====================== ====== Governor ====== ======================"
				}
			],
			"UnexpectedRequestID(bytes32)": [
				{
					"notice": "====================== ======= Errors ======= ======================"
				}
			]
		},
		"events": {
			"DaoCreated(uint256,address,address,address,address)": {
				"notice": "====================== ======= Events ======= ======================"
			},
			"ProposalQueued(address,uint256,uint256,uint256,address)": {
				"notice": "====================== ======= Events ======= ======================"
			},
			"Response(bytes32,bytes,bytes)": {
				"notice": "====================== ======= Events ======= ======================"
			}
		},
		"kind": "user",
		"methods": {
			"advanceTime(uint256)": {
				"notice": "Advance mock time by specified seconds"
			},
			"autoFulfillRequest(bytes32)": {
				"notice": "Auto-fulfill request with predefined response"
			},
			"automationEnabled()": {
				"notice": "========================= === Storage Variables === ========================="
			},
			"batchQueueProposals(address[],uint256[],uint256[],address[])": {
				"notice": "Batch queue multiple proposals for testing"
			},
			"checkUpkeep(bytes)": {
				"notice": "========================== ===== View Functions ===== =========================="
			},
			"cleanupQueue()": {
				"notice": "Remove processed proposals from queue"
			},
			"clearProcessedProposals()": {
				"notice": "Clear all processed proposals (for testing)"
			},
			"clearQueue()": {
				"notice": "Clear the entire queue (for testing)"
			},
			"constructor": {
				"notice": "========================= ====== Constructor ====== ========================="
			},
			"createDao((string,string),uint256,(string,string,string,uint48,uint32,uint256,uint256),address[],uint256[])": {
				"notice": "Create a new DAO with governance token, timelock, and governor"
			},
			"getAutomationStats()": {
				"notice": "Get automation stats for monitoring"
			},
			"getDao(uint256)": {
				"notice": "========================== ===== View Functions ===== =========================="
			},
			"getImplementations()": {
				"notice": "Get all implementation contract addresses"
			},
			"getNonce(address)": {
				"notice": "Get user's current nonce for deterministic address generation"
			},
			"getRequestCounter()": {
				"notice": "Get request counter for testing"
			},
			"isRequestPending(bytes32)": {
				"notice": "Check if request is pending"
			},
			"manualUpkeep()": {
				"notice": "Manually trigger upkeep (simulates Chainlink calling performUpkeep)"
			},
			"mockFulfillRequest(bytes32,string)": {
				"notice": "Mock function to simulate successful response"
			},
			"mockFulfillRequestWithError(bytes32,string)": {
				"notice": "Mock function to simulate error response"
			},
			"payForDaoCreation((string,string),uint256,(string,string,string,uint48,uint32,uint256,uint256),address[],uint256[],uint256)": {
				"notice": "================================= == External / Public Functions == ================================="
			},
			"performUpkeep(bytes)": {
				"notice": "================================= == External / Public Functions == ================================="
			},
			"queueProposal(uint256,uint256,uint256,address)": {
				"notice": "Queue a proposal for processing (called by Governor contracts)"
			},
			"s_lastRequestId()": {
				"notice": "========================= === Storage Variables === ========================="
			},
			"sendRequestCBOR(bytes,uint64,uint32,bytes32)": {
				"notice": "Send a pre-encoded CBOR request (mocked)"
			},
			"setAutomationRegistry(address)": {
				"notice": "Set automation registry address"
			},
			"setForceUpkeepNeeded(bool)": {
				"notice": "Force upkeep to be needed for testing"
			},
			"setMockBlockTimestamp(uint256)": {
				"notice": "Set mock block timestamp for testing time-dependent logic"
			},
			"setPredefinedResponse(bytes32,bytes,bytes)": {
				"notice": "Set predefined response for a request (for advanced testing)"
			},
			"simulateAutomationCycle()": {
				"notice": "Simulate automated upkeep cycle"
			},
			"toggleAutomation(bool)": {
				"notice": "Toggle automation on/off for testing"
			},
			"transferOwnership(address)": {
				"notice": "Transfer ownership"
			}
		},
		"version": 1
	},
	"storageLayout": {
		"storage": [
			{
				"astId": 27721,
				"contract": "contracts/core/mocks/MockZKDAO.sol:MockZKDAO",
				"label": "s_lastRequestId",
				"offset": 0,
				"slot": "0",
				"type": "t_bytes32"
			},
			{
				"astId": 27723,
				"contract": "contracts/core/mocks/MockZKDAO.sol:MockZKDAO",
				"label": "s_lastResponse",
				"offset": 0,
				"slot": "1",
				"type": "t_bytes_storage"
			},
			{
				"astId": 27725,
				"contract": "contracts/core/mocks/MockZKDAO.sol:MockZKDAO",
				"label": "s_lastError",
				"offset": 0,
				"slot": "2",
				"type": "t_bytes_storage"
			},
			{
				"astId": 27729,
				"contract": "contracts/core/mocks/MockZKDAO.sol:MockZKDAO",
				"label": "queue",
				"offset": 0,
				"slot": "3",
				"type": "t_array(t_struct(Proposal)27696_storage)dyn_storage"
			},
			{
				"astId": 27731,
				"contract": "contracts/core/mocks/MockZKDAO.sol:MockZKDAO",
				"label": "owner",
				"offset": 0,
				"slot": "4",
				"type": "t_address"
			},
			{
				"astId": 27733,
				"contract": "contracts/core/mocks/MockZKDAO.sol:MockZKDAO",
				"label": "requestCounter",
				"offset": 0,
				"slot": "5",
				"type": "t_uint256"
			},
			{
				"astId": 27741,
				"contract": "contracts/core/mocks/MockZKDAO.sol:MockZKDAO",
				"label": "proposals",
				"offset": 0,
				"slot": "6",
				"type": "t_mapping(t_contract(IGovernor)27145,t_mapping(t_uint256,t_struct(Proposal)27696_storage))"
			},
			{
				"astId": 27747,
				"contract": "contracts/core/mocks/MockZKDAO.sol:MockZKDAO",
				"label": "pendingProposals",
				"offset": 0,
				"slot": "7",
				"type": "t_mapping(t_bytes32,t_array(t_struct(Proposal)27696_storage)dyn_storage)"
			},
			{
				"astId": 27751,
				"contract": "contracts/core/mocks/MockZKDAO.sol:MockZKDAO",
				"label": "mockResponses",
				"offset": 0,
				"slot": "8",
				"type": "t_mapping(t_bytes32,t_bytes_storage)"
			},
			{
				"astId": 27755,
				"contract": "contracts/core/mocks/MockZKDAO.sol:MockZKDAO",
				"label": "mockErrors",
				"offset": 0,
				"slot": "9",
				"type": "t_mapping(t_bytes32,t_bytes_storage)"
			},
			{
				"astId": 27759,
				"contract": "contracts/core/mocks/MockZKDAO.sol:MockZKDAO",
				"label": "pendingRequests",
				"offset": 0,
				"slot": "10",
				"type": "t_mapping(t_bytes32,t_bool)"
			},
			{
				"astId": 28736,
				"contract": "contracts/core/mocks/MockZKDAO.sol:MockZKDAO",
				"label": "automationEnabled",
				"offset": 0,
				"slot": "11",
				"type": "t_bool"
			},
			{
				"astId": 28738,
				"contract": "contracts/core/mocks/MockZKDAO.sol:MockZKDAO",
				"label": "automationRegistry",
				"offset": 1,
				"slot": "11",
				"type": "t_address"
			},
			{
				"astId": 28740,
				"contract": "contracts/core/mocks/MockZKDAO.sol:MockZKDAO",
				"label": "lastUpkeepTimestamp",
				"offset": 0,
				"slot": "12",
				"type": "t_uint256"
			},
			{
				"astId": 28742,
				"contract": "contracts/core/mocks/MockZKDAO.sol:MockZKDAO",
				"label": "upkeepCounter",
				"offset": 0,
				"slot": "13",
				"type": "t_uint256"
			},
			{
				"astId": 28744,
				"contract": "contracts/core/mocks/MockZKDAO.sol:MockZKDAO",
				"label": "forceUpkeepNeeded",
				"offset": 0,
				"slot": "14",
				"type": "t_bool"
			},
			{
				"astId": 28746,
				"contract": "contracts/core/mocks/MockZKDAO.sol:MockZKDAO",
				"label": "mockBlockTimestamp",
				"offset": 0,
				"slot": "15",
				"type": "t_uint256"
			},
			{
				"astId": 30035,
				"contract": "contracts/core/mocks/MockZKDAO.sol:MockZKDAO",
				"label": "nonces",
				"offset": 0,
				"slot": "16",
				"type": "t_mapping(t_address,t_uint256)"
			},
			{
				"astId": 30040,
				"contract": "contracts/core/mocks/MockZKDAO.sol:MockZKDAO",
				"label": "daos",
				"offset": 0,
				"slot": "17",
				"type": "t_mapping(t_uint256,t_struct(DAO)27286_storage)"
			},
			{
				"astId": 30044,
				"contract": "contracts/core/mocks/MockZKDAO.sol:MockZKDAO",
				"label": "daoIds",
				"offset": 0,
				"slot": "18",
				"type": "t_mapping(t_address,t_uint256)"
			},
			{
				"astId": 30047,
				"contract": "contracts/core/mocks/MockZKDAO.sol:MockZKDAO",
				"label": "price",
				"offset": 0,
				"slot": "19",
				"type": "t_uint256"
			},
			{
				"astId": 30049,
				"contract": "contracts/core/mocks/MockZKDAO.sol:MockZKDAO",
				"label": "daoCount",
				"offset": 0,
				"slot": "20",
				"type": "t_uint256"
			},
			{
				"astId": 30051,
				"contract": "contracts/core/mocks/MockZKDAO.sol:MockZKDAO",
				"label": "factory",
				"offset": 0,
				"slot": "21",
				"type": "t_address"
			},
			{
				"astId": 30054,
				"contract": "contracts/core/mocks/MockZKDAO.sol:MockZKDAO",
				"label": "governorToken",
				"offset": 0,
				"slot": "22",
				"type": "t_contract(IGovernorToken)27180"
			},
			{
				"astId": 30057,
				"contract": "contracts/core/mocks/MockZKDAO.sol:MockZKDAO",
				"label": "timelock",
				"offset": 0,
				"slot": "23",
				"type": "t_contract(ITimeLock)27243"
			},
			{
				"astId": 30060,
				"contract": "contracts/core/mocks/MockZKDAO.sol:MockZKDAO",
				"label": "verifier",
				"offset": 0,
				"slot": "24",
				"type": "t_contract(IVerifier)24860"
			},
			{
				"astId": 30063,
				"contract": "contracts/core/mocks/MockZKDAO.sol:MockZKDAO",
				"label": "governor",
				"offset": 0,
				"slot": "25",
				"type": "t_contract(IGovernor)27145"
			},
			{
				"astId": 30066,
				"contract": "contracts/core/mocks/MockZKDAO.sol:MockZKDAO",
				"label": "linkToken",
				"offset": 0,
				"slot": "26",
				"type": "t_contract(IERC20)9387"
			}
		],
		"types": {
			"t_address": {
				"encoding": "inplace",
				"label": "address",
				"numberOfBytes": "20"
			},
			"t_array(t_struct(Proposal)27696_storage)dyn_storage": {
				"base": "t_struct(Proposal)27696_storage",
				"encoding": "dynamic_array",
				"label": "struct MockConsumer.Proposal[]",
				"numberOfBytes": "32"
			},
			"t_bool": {
				"encoding": "inplace",
				"label": "bool",
				"numberOfBytes": "1"
			},
			"t_bytes32": {
				"encoding": "inplace",
				"label": "bytes32",
				"numberOfBytes": "32"
			},
			"t_bytes_storage": {
				"encoding": "bytes",
				"label": "bytes",
				"numberOfBytes": "32"
			},
			"t_contract(IERC20)9387": {
				"encoding": "inplace",
				"label": "contract IERC20",
				"numberOfBytes": "20"
			},
			"t_contract(IGovernor)27145": {
				"encoding": "inplace",
				"label": "contract IGovernor",
				"numberOfBytes": "20"
			},
			"t_contract(IGovernorToken)27180": {
				"encoding": "inplace",
				"label": "contract IGovernorToken",
				"numberOfBytes": "20"
			},
			"t_contract(ITimeLock)27243": {
				"encoding": "inplace",
				"label": "contract ITimeLock",
				"numberOfBytes": "20"
			},
			"t_contract(IVerifier)24860": {
				"encoding": "inplace",
				"label": "contract IVerifier",
				"numberOfBytes": "20"
			},
			"t_mapping(t_address,t_uint256)": {
				"encoding": "mapping",
				"key": "t_address",
				"label": "mapping(address => uint256)",
				"numberOfBytes": "32",
				"value": "t_uint256"
			},
			"t_mapping(t_bytes32,t_array(t_struct(Proposal)27696_storage)dyn_storage)": {
				"encoding": "mapping",
				"key": "t_bytes32",
				"label": "mapping(bytes32 => struct MockConsumer.Proposal[])",
				"numberOfBytes": "32",
				"value": "t_array(t_struct(Proposal)27696_storage)dyn_storage"
			},
			"t_mapping(t_bytes32,t_bool)": {
				"encoding": "mapping",
				"key": "t_bytes32",
				"label": "mapping(bytes32 => bool)",
				"numberOfBytes": "32",
				"value": "t_bool"
			},
			"t_mapping(t_bytes32,t_bytes_storage)": {
				"encoding": "mapping",
				"key": "t_bytes32",
				"label": "mapping(bytes32 => bytes)",
				"numberOfBytes": "32",
				"value": "t_bytes_storage"
			},
			"t_mapping(t_contract(IGovernor)27145,t_mapping(t_uint256,t_struct(Proposal)27696_storage))": {
				"encoding": "mapping",
				"key": "t_contract(IGovernor)27145",
				"label": "mapping(contract IGovernor => mapping(uint256 => struct MockConsumer.Proposal))",
				"numberOfBytes": "32",
				"value": "t_mapping(t_uint256,t_struct(Proposal)27696_storage)"
			},
			"t_mapping(t_uint256,t_struct(DAO)27286_storage)": {
				"encoding": "mapping",
				"key": "t_uint256",
				"label": "mapping(uint256 => struct IZKDAO.DAO)",
				"numberOfBytes": "32",
				"value": "t_struct(DAO)27286_storage"
			},
			"t_mapping(t_uint256,t_struct(Proposal)27696_storage)": {
				"encoding": "mapping",
				"key": "t_uint256",
				"label": "mapping(uint256 => struct MockConsumer.Proposal)",
				"numberOfBytes": "32",
				"value": "t_struct(Proposal)27696_storage"
			},
			"t_struct(DAO)27286_storage": {
				"encoding": "inplace",
				"label": "struct IZKDAO.DAO",
				"members": [
					{
						"astId": 27277,
						"contract": "contracts/core/mocks/MockZKDAO.sol:MockZKDAO",
						"label": "token",
						"offset": 0,
						"slot": "0",
						"type": "t_contract(IGovernorToken)27180"
					},
					{
						"astId": 27280,
						"contract": "contracts/core/mocks/MockZKDAO.sol:MockZKDAO",
						"label": "timelock",
						"offset": 0,
						"slot": "1",
						"type": "t_contract(ITimeLock)27243"
					},
					{
						"astId": 27283,
						"contract": "contracts/core/mocks/MockZKDAO.sol:MockZKDAO",
						"label": "governor",
						"offset": 0,
						"slot": "2",
						"type": "t_contract(IGovernor)27145"
					},
					{
						"astId": 27285,
						"contract": "contracts/core/mocks/MockZKDAO.sol:MockZKDAO",
						"label": "deployer",
						"offset": 0,
						"slot": "3",
						"type": "t_address"
					}
				],
				"numberOfBytes": "128"
			},
			"t_struct(Proposal)27696_storage": {
				"encoding": "inplace",
				"label": "struct MockConsumer.Proposal",
				"members": [
					{
						"astId": 27683,
						"contract": "contracts/core/mocks/MockZKDAO.sol:MockZKDAO",
						"label": "dao",
						"offset": 0,
						"slot": "0",
						"type": "t_contract(IGovernor)27145"
					},
					{
						"astId": 27685,
						"contract": "contracts/core/mocks/MockZKDAO.sol:MockZKDAO",
						"label": "daoId",
						"offset": 0,
						"slot": "1",
						"type": "t_uint256"
					},
					{
						"astId": 27687,
						"contract": "contracts/core/mocks/MockZKDAO.sol:MockZKDAO",
						"label": "proposalId",
						"offset": 0,
						"slot": "2",
						"type": "t_uint256"
					},
					{
						"astId": 27689,
						"contract": "contracts/core/mocks/MockZKDAO.sol:MockZKDAO",
						"label": "snapshot",
						"offset": 0,
						"slot": "3",
						"type": "t_uint256"
					},
					{
						"astId": 27691,
						"contract": "contracts/core/mocks/MockZKDAO.sol:MockZKDAO",
						"label": "voteToken",
						"offset": 0,
						"slot": "4",
						"type": "t_address"
					},
					{
						"astId": 27693,
						"contract": "contracts/core/mocks/MockZKDAO.sol:MockZKDAO",
						"label": "queued",
						"offset": 20,
						"slot": "4",
						"type": "t_bool"
					},
					{
						"astId": 27695,
						"contract": "contracts/core/mocks/MockZKDAO.sol:MockZKDAO",
						"label": "executed",
						"offset": 21,
						"slot": "4",
						"type": "t_bool"
					}
				],
				"numberOfBytes": "160"
			},
			"t_uint256": {
				"encoding": "inplace",
				"label": "uint256",
				"numberOfBytes": "32"
			}
		}
	}
}