{
	"address": "0xF9550726a1402FCA390B8c73681cbfA472C595D9",
	"abi": [
		{
			"inputs": [
				{
					"internalType": "address",
					"name": "_governorToken",
					"type": "address"
				},
				{
					"internalType": "address",
					"name": "_timelock",
					"type": "address"
				},
				{
					"internalType": "address",
					"name": "_governor",
					"type": "address"
				},
				{
					"internalType": "address",
					"name": "_verifier",
					"type": "address"
				},
				{
					"internalType": "address",
					"name": "_linkAddress",
					"type": "address"
				},
				{
					"internalType": "address",
					"name": "_factory",
					"type": "address"
				},
				{
					"internalType": "address",
					"name": "_router",
					"type": "address"
				},
				{
					"internalType": "uint64",
					"name": "_subscriptionId",
					"type": "uint64"
				},
				{
					"internalType": "uint32",
					"name": "_gasLimit",
					"type": "uint32"
				},
				{
					"internalType": "bytes32",
					"name": "_donID",
					"type": "bytes32"
				},
				{
					"internalType": "string",
					"name": "_source",
					"type": "string"
				}
			],
			"stateMutability": "nonpayable",
			"type": "constructor"
		},
		{
			"inputs": [],
			"name": "AMOUNT_MISMATCH",
			"type": "error"
		},
		{
			"inputs": [
				{
					"internalType": "uint256",
					"name": "daoId",
					"type": "uint256"
				}
			],
			"name": "DAONotFound",
			"type": "error"
		},
		{
			"inputs": [
				{
					"internalType": "uint256",
					"name": "daoId",
					"type": "uint256"
				}
			],
			"name": "DAO_NOT_FOUND",
			"type": "error"
		},
		{
			"inputs": [],
			"name": "EmptyArgs",
			"type": "error"
		},
		{
			"inputs": [],
			"name": "EmptySecrets",
			"type": "error"
		},
		{
			"inputs": [],
			"name": "EmptySource",
			"type": "error"
		},
		{
			"inputs": [],
			"name": "FailedDeployment",
			"type": "error"
		},
		{
			"inputs": [],
			"name": "INSUFFICIENT_ALLOWANCE",
			"type": "error"
		},
		{
			"inputs": [],
			"name": "INSUFFICIENT_FUNDS",
			"type": "error"
		},
		{
			"inputs": [],
			"name": "INVALID_NULLIFIER",
			"type": "error"
		},
		{
			"inputs": [],
			"name": "INVALID_PROPOSAL_ID",
			"type": "error"
		},
		{
			"inputs": [],
			"name": "INVALID_VOTE_TYPE",
			"type": "error"
		},
		{
			"inputs": [
				{
					"internalType": "uint256",
					"name": "balance",
					"type": "uint256"
				},
				{
					"internalType": "uint256",
					"name": "needed",
					"type": "uint256"
				}
			],
			"name": "InsufficientBalance",
			"type": "error"
		},
		{
			"inputs": [],
			"name": "InvalidArrayLength",
			"type": "error"
		},
		{
			"inputs": [],
			"name": "InvalidParameters",
			"type": "error"
		},
		{
			"inputs": [],
			"name": "MISMATCH",
			"type": "error"
		},
		{
			"inputs": [],
			"name": "NoInlineSecrets",
			"type": "error"
		},
		{
			"inputs": [],
			"name": "OnlyRouterCanFulfill",
			"type": "error"
		},
		{
			"inputs": [],
			"name": "UNAUTHORIZED",
			"type": "error"
		},
		{
			"inputs": [
				{
					"internalType": "bytes32",
					"name": "requestId",
					"type": "bytes32"
				}
			],
			"name": "UNEXPECTED_REQUEST_ID",
			"type": "error"
		},
		{
			"inputs": [],
			"name": "UnauthorizedCaller",
			"type": "error"
		},
		{
			"inputs": [],
			"name": "ZK_PROOF_FAILED",
			"type": "error"
		},
		{
			"anonymous": false,
			"inputs": [
				{
					"indexed": true,
					"internalType": "uint256",
					"name": "id",
					"type": "uint256"
				},
				{
					"indexed": true,
					"internalType": "address",
					"name": "deployer",
					"type": "address"
				},
				{
					"indexed": false,
					"internalType": "address",
					"name": "token",
					"type": "address"
				},
				{
					"indexed": false,
					"internalType": "address",
					"name": "timelock",
					"type": "address"
				},
				{
					"indexed": false,
					"internalType": "address",
					"name": "governor",
					"type": "address"
				}
			],
			"name": "DaoCreated",
			"type": "event"
		},
		{
			"anonymous": false,
			"inputs": [
				{
					"indexed": true,
					"internalType": "address",
					"name": "from",
					"type": "address"
				},
				{
					"indexed": true,
					"internalType": "address",
					"name": "to",
					"type": "address"
				}
			],
			"name": "OwnershipTransferRequested",
			"type": "event"
		},
		{
			"anonymous": false,
			"inputs": [
				{
					"indexed": true,
					"internalType": "address",
					"name": "from",
					"type": "address"
				},
				{
					"indexed": true,
					"internalType": "address",
					"name": "to",
					"type": "address"
				}
			],
			"name": "OwnershipTransferred",
			"type": "event"
		},
		{
			"anonymous": false,
			"inputs": [
				{
					"components": [
						{
							"internalType": "string",
							"name": "name",
							"type": "string"
						},
						{
							"internalType": "string",
							"name": "symbol",
							"type": "string"
						}
					],
					"indexed": false,
					"internalType": "struct ZKDAO.GovernorTokenParams",
					"name": "tokenParams",
					"type": "tuple"
				},
				{
					"indexed": false,
					"internalType": "uint256",
					"name": "minDelay",
					"type": "uint256"
				},
				{
					"components": [
						{
							"internalType": "string",
							"name": "name",
							"type": "string"
						},
						{
							"internalType": "uint48",
							"name": "votingDelay",
							"type": "uint48"
						},
						{
							"internalType": "uint32",
							"name": "votingPeriod",
							"type": "uint32"
						},
						{
							"internalType": "uint256",
							"name": "proposalThreshold",
							"type": "uint256"
						},
						{
							"internalType": "uint256",
							"name": "quorumFraction",
							"type": "uint256"
						},
						{
							"internalType": "string",
							"name": "description",
							"type": "string"
						},
						{
							"internalType": "string",
							"name": "logo",
							"type": "string"
						}
					],
					"indexed": false,
					"internalType": "struct ZKDAO.GovernorParams",
					"name": "governorParams",
					"type": "tuple"
				},
				{
					"indexed": false,
					"internalType": "address[]",
					"name": "to",
					"type": "address[]"
				},
				{
					"indexed": false,
					"internalType": "uint256[]",
					"name": "amounts",
					"type": "uint256[]"
				},
				{
					"indexed": false,
					"internalType": "uint256",
					"name": "value",
					"type": "uint256"
				}
			],
			"name": "PaidForDaoCreation",
			"type": "event"
		},
		{
			"anonymous": false,
			"inputs": [
				{
					"indexed": true,
					"internalType": "address",
					"name": "dao",
					"type": "address"
				},
				{
					"indexed": true,
					"internalType": "uint256",
					"name": "daoId",
					"type": "uint256"
				},
				{
					"indexed": true,
					"internalType": "uint256",
					"name": "proposalId",
					"type": "uint256"
				},
				{
					"indexed": false,
					"internalType": "uint256",
					"name": "snapshot",
					"type": "uint256"
				},
				{
					"indexed": false,
					"internalType": "address",
					"name": "voteToken",
					"type": "address"
				}
			],
			"name": "ProposalDequeued",
			"type": "event"
		},
		{
			"anonymous": false,
			"inputs": [
				{
					"indexed": true,
					"internalType": "address",
					"name": "dao",
					"type": "address"
				},
				{
					"indexed": true,
					"internalType": "uint256",
					"name": "daoId",
					"type": "uint256"
				},
				{
					"indexed": true,
					"internalType": "uint256",
					"name": "proposalId",
					"type": "uint256"
				},
				{
					"indexed": false,
					"internalType": "uint256",
					"name": "snapshot",
					"type": "uint256"
				},
				{
					"indexed": false,
					"internalType": "address",
					"name": "voteToken",
					"type": "address"
				}
			],
			"name": "ProposalQueued",
			"type": "event"
		},
		{
			"anonymous": false,
			"inputs": [
				{
					"indexed": true,
					"internalType": "bytes32",
					"name": "id",
					"type": "bytes32"
				}
			],
			"name": "RequestFulfilled",
			"type": "event"
		},
		{
			"anonymous": false,
			"inputs": [
				{
					"indexed": true,
					"internalType": "bytes32",
					"name": "id",
					"type": "bytes32"
				}
			],
			"name": "RequestSent",
			"type": "event"
		},
		{
			"anonymous": false,
			"inputs": [
				{
					"indexed": true,
					"internalType": "bytes32",
					"name": "requestId",
					"type": "bytes32"
				},
				{
					"indexed": false,
					"internalType": "bytes",
					"name": "response",
					"type": "bytes"
				},
				{
					"indexed": false,
					"internalType": "bytes",
					"name": "err",
					"type": "bytes"
				}
			],
			"name": "Response",
			"type": "event"
		},
		{
			"inputs": [],
			"name": "NATIVE",
			"outputs": [
				{
					"internalType": "address",
					"name": "",
					"type": "address"
				}
			],
			"stateMutability": "view",
			"type": "function"
		},
		{
			"inputs": [],
			"name": "acceptOwnership",
			"outputs": [],
			"stateMutability": "nonpayable",
			"type": "function"
		},
		{
			"inputs": [
				{
					"internalType": "bytes",
					"name": "",
					"type": "bytes"
				}
			],
			"name": "checkUpkeep",
			"outputs": [
				{
					"internalType": "bool",
					"name": "upkeepNeeded",
					"type": "bool"
				},
				{
					"internalType": "bytes",
					"name": "performData",
					"type": "bytes"
				}
			],
			"stateMutability": "view",
			"type": "function"
		},
		{
			"inputs": [
				{
					"components": [
						{
							"internalType": "string",
							"name": "name",
							"type": "string"
						},
						{
							"internalType": "string",
							"name": "symbol",
							"type": "string"
						}
					],
					"internalType": "struct ZKDAO.GovernorTokenParams",
					"name": "_tokenParams",
					"type": "tuple"
				},
				{
					"internalType": "uint256",
					"name": "_minDelay",
					"type": "uint256"
				},
				{
					"components": [
						{
							"internalType": "string",
							"name": "name",
							"type": "string"
						},
						{
							"internalType": "uint48",
							"name": "votingDelay",
							"type": "uint48"
						},
						{
							"internalType": "uint32",
							"name": "votingPeriod",
							"type": "uint32"
						},
						{
							"internalType": "uint256",
							"name": "proposalThreshold",
							"type": "uint256"
						},
						{
							"internalType": "uint256",
							"name": "quorumFraction",
							"type": "uint256"
						},
						{
							"internalType": "string",
							"name": "description",
							"type": "string"
						},
						{
							"internalType": "string",
							"name": "logo",
							"type": "string"
						}
					],
					"internalType": "struct ZKDAO.GovernorParams",
					"name": "_governorParams",
					"type": "tuple"
				},
				{
					"internalType": "address[]",
					"name": "_to",
					"type": "address[]"
				},
				{
					"internalType": "uint256[]",
					"name": "_amounts",
					"type": "uint256[]"
				}
			],
			"name": "createDao",
			"outputs": [],
			"stateMutability": "nonpayable",
			"type": "function"
		},
		{
			"inputs": [
				{
					"internalType": "uint256",
					"name": "id",
					"type": "uint256"
				}
			],
			"name": "getDao",
			"outputs": [
				{
					"components": [
						{
							"internalType": "contract IGovernorToken",
							"name": "token",
							"type": "address"
						},
						{
							"internalType": "contract ITimeLock",
							"name": "timelock",
							"type": "address"
						},
						{
							"internalType": "contract IGovernor",
							"name": "governor",
							"type": "address"
						},
						{
							"internalType": "address",
							"name": "deployer",
							"type": "address"
						}
					],
					"internalType": "struct ZKDAO.DAO",
					"name": "dao",
					"type": "tuple"
				}
			],
			"stateMutability": "view",
			"type": "function"
		},
		{
			"inputs": [],
			"name": "getDaoCounter",
			"outputs": [
				{
					"internalType": "uint256",
					"name": "",
					"type": "uint256"
				}
			],
			"stateMutability": "view",
			"type": "function"
		},
		{
			"inputs": [
				{
					"internalType": "address",
					"name": "account",
					"type": "address"
				}
			],
			"name": "getDaoId",
			"outputs": [
				{
					"internalType": "uint256",
					"name": "",
					"type": "uint256"
				}
			],
			"stateMutability": "view",
			"type": "function"
		},
		{
			"inputs": [],
			"name": "getDonID",
			"outputs": [
				{
					"internalType": "bytes32",
					"name": "",
					"type": "bytes32"
				}
			],
			"stateMutability": "view",
			"type": "function"
		},
		{
			"inputs": [],
			"name": "getGasLimit",
			"outputs": [
				{
					"internalType": "uint32",
					"name": "",
					"type": "uint32"
				}
			],
			"stateMutability": "view",
			"type": "function"
		},
		{
			"inputs": [],
			"name": "getImplementations",
			"outputs": [
				{
					"internalType": "address",
					"name": "_factory",
					"type": "address"
				},
				{
					"internalType": "address",
					"name": "_linkToken",
					"type": "address"
				},
				{
					"internalType": "address",
					"name": "_governorToken",
					"type": "address"
				},
				{
					"internalType": "address",
					"name": "_timelock",
					"type": "address"
				},
				{
					"internalType": "address",
					"name": "_governor",
					"type": "address"
				},
				{
					"internalType": "address",
					"name": "_verifier",
					"type": "address"
				}
			],
			"stateMutability": "view",
			"type": "function"
		},
		{
			"inputs": [
				{
					"internalType": "address",
					"name": "account",
					"type": "address"
				}
			],
			"name": "getNonce",
			"outputs": [
				{
					"internalType": "uint256",
					"name": "",
					"type": "uint256"
				}
			],
			"stateMutability": "view",
			"type": "function"
		},
		{
			"inputs": [],
			"name": "getPrice",
			"outputs": [
				{
					"internalType": "uint256",
					"name": "",
					"type": "uint256"
				}
			],
			"stateMutability": "view",
			"type": "function"
		},
		{
			"inputs": [],
			"name": "getQueue",
			"outputs": [
				{
					"components": [
						{
							"internalType": "contract IGovernor",
							"name": "dao",
							"type": "address"
						},
						{
							"internalType": "address",
							"name": "voteToken",
							"type": "address"
						},
						{
							"internalType": "uint256",
							"name": "daoId",
							"type": "uint256"
						},
						{
							"internalType": "uint256",
							"name": "proposalId",
							"type": "uint256"
						},
						{
							"internalType": "uint256",
							"name": "snapshot",
							"type": "uint256"
						},
						{
							"internalType": "bool",
							"name": "queued",
							"type": "bool"
						},
						{
							"internalType": "bool",
							"name": "executed",
							"type": "bool"
						}
					],
					"internalType": "struct Consumer.Proposal[]",
					"name": "",
					"type": "tuple[]"
				}
			],
			"stateMutability": "view",
			"type": "function"
		},
		{
			"inputs": [],
			"name": "getRequestCounter",
			"outputs": [
				{
					"internalType": "uint256",
					"name": "",
					"type": "uint256"
				}
			],
			"stateMutability": "view",
			"type": "function"
		},
		{
			"inputs": [],
			"name": "getSubscriptionId",
			"outputs": [
				{
					"internalType": "uint64",
					"name": "",
					"type": "uint64"
				}
			],
			"stateMutability": "view",
			"type": "function"
		},
		{
			"inputs": [
				{
					"internalType": "bytes32",
					"name": "requestId",
					"type": "bytes32"
				},
				{
					"internalType": "bytes",
					"name": "response",
					"type": "bytes"
				},
				{
					"internalType": "bytes",
					"name": "err",
					"type": "bytes"
				}
			],
			"name": "handleOracleFulfillment",
			"outputs": [],
			"stateMutability": "nonpayable",
			"type": "function"
		},
		{
			"inputs": [],
			"name": "owner",
			"outputs": [
				{
					"internalType": "address",
					"name": "",
					"type": "address"
				}
			],
			"stateMutability": "view",
			"type": "function"
		},
		{
			"inputs": [
				{
					"components": [
						{
							"internalType": "string",
							"name": "name",
							"type": "string"
						},
						{
							"internalType": "string",
							"name": "symbol",
							"type": "string"
						}
					],
					"internalType": "struct ZKDAO.GovernorTokenParams",
					"name": "_tokenParams",
					"type": "tuple"
				},
				{
					"internalType": "uint256",
					"name": "_minDelay",
					"type": "uint256"
				},
				{
					"components": [
						{
							"internalType": "string",
							"name": "name",
							"type": "string"
						},
						{
							"internalType": "uint48",
							"name": "votingDelay",
							"type": "uint48"
						},
						{
							"internalType": "uint32",
							"name": "votingPeriod",
							"type": "uint32"
						},
						{
							"internalType": "uint256",
							"name": "proposalThreshold",
							"type": "uint256"
						},
						{
							"internalType": "uint256",
							"name": "quorumFraction",
							"type": "uint256"
						},
						{
							"internalType": "string",
							"name": "description",
							"type": "string"
						},
						{
							"internalType": "string",
							"name": "logo",
							"type": "string"
						}
					],
					"internalType": "struct ZKDAO.GovernorParams",
					"name": "_governorParams",
					"type": "tuple"
				},
				{
					"internalType": "address[]",
					"name": "_to",
					"type": "address[]"
				},
				{
					"internalType": "uint256[]",
					"name": "_amounts",
					"type": "uint256[]"
				},
				{
					"internalType": "uint256",
					"name": "_value",
					"type": "uint256"
				}
			],
			"name": "payForDaoCreation",
			"outputs": [],
			"stateMutability": "payable",
			"type": "function"
		},
		{
			"inputs": [
				{
					"internalType": "bytes",
					"name": "performData",
					"type": "bytes"
				}
			],
			"name": "performUpkeep",
			"outputs": [],
			"stateMutability": "nonpayable",
			"type": "function"
		},
		{
			"inputs": [
				{
					"internalType": "uint256",
					"name": "daoId",
					"type": "uint256"
				},
				{
					"internalType": "uint256",
					"name": "proposalId",
					"type": "uint256"
				},
				{
					"internalType": "uint256",
					"name": "snapshot",
					"type": "uint256"
				},
				{
					"internalType": "address",
					"name": "voteToken",
					"type": "address"
				}
			],
			"name": "queueProposal",
			"outputs": [],
			"stateMutability": "nonpayable",
			"type": "function"
		},
		{
			"inputs": [
				{
					"internalType": "address",
					"name": "_token",
					"type": "address"
				},
				{
					"internalType": "address",
					"name": "_to",
					"type": "address"
				}
			],
			"name": "recoverFunds",
			"outputs": [],
			"stateMutability": "nonpayable",
			"type": "function"
		},
		{
			"inputs": [],
			"name": "s_lastError",
			"outputs": [
				{
					"internalType": "bytes",
					"name": "",
					"type": "bytes"
				}
			],
			"stateMutability": "view",
			"type": "function"
		},
		{
			"inputs": [],
			"name": "s_lastRequestId",
			"outputs": [
				{
					"internalType": "bytes32",
					"name": "",
					"type": "bytes32"
				}
			],
			"stateMutability": "view",
			"type": "function"
		},
		{
			"inputs": [],
			"name": "s_lastResponse",
			"outputs": [
				{
					"internalType": "bytes",
					"name": "",
					"type": "bytes"
				}
			],
			"stateMutability": "view",
			"type": "function"
		},
		{
			"inputs": [
				{
					"internalType": "bytes",
					"name": "_request",
					"type": "bytes"
				},
				{
					"internalType": "uint64",
					"name": "_subscriptionId",
					"type": "uint64"
				},
				{
					"internalType": "uint32",
					"name": "_gasLimit",
					"type": "uint32"
				},
				{
					"internalType": "bytes32",
					"name": "_donID",
					"type": "bytes32"
				}
			],
			"name": "sendRequestCBOR",
			"outputs": [
				{
					"internalType": "bytes32",
					"name": "requestId",
					"type": "bytes32"
				}
			],
			"stateMutability": "nonpayable",
			"type": "function"
		},
		{
			"inputs": [
				{
					"internalType": "bytes32",
					"name": "_donID",
					"type": "bytes32"
				}
			],
			"name": "setDonID",
			"outputs": [],
			"stateMutability": "nonpayable",
			"type": "function"
		},
		{
			"inputs": [
				{
					"internalType": "uint32",
					"name": "_gasLimit",
					"type": "uint32"
				}
			],
			"name": "setGasLimit",
			"outputs": [],
			"stateMutability": "nonpayable",
			"type": "function"
		},
		{
			"inputs": [
				{
					"internalType": "uint256",
					"name": "_price",
					"type": "uint256"
				}
			],
			"name": "setPrice",
			"outputs": [],
			"stateMutability": "nonpayable",
			"type": "function"
		},
		{
			"inputs": [
				{
					"internalType": "string",
					"name": "_source",
					"type": "string"
				}
			],
			"name": "setSource",
			"outputs": [],
			"stateMutability": "nonpayable",
			"type": "function"
		},
		{
			"inputs": [
				{
					"internalType": "uint64",
					"name": "_subscriptionId",
					"type": "uint64"
				}
			],
			"name": "setSubscriptionId",
			"outputs": [],
			"stateMutability": "nonpayable",
			"type": "function"
		},
		{
			"inputs": [],
			"name": "source",
			"outputs": [
				{
					"internalType": "string",
					"name": "",
					"type": "string"
				}
			],
			"stateMutability": "view",
			"type": "function"
		},
		{
			"inputs": [
				{
					"internalType": "address",
					"name": "to",
					"type": "address"
				}
			],
			"name": "transferOwnership",
			"outputs": [],
			"stateMutability": "nonpayable",
			"type": "function"
		},
		{
			"stateMutability": "payable",
			"type": "receive"
		}
	],
	"transactionHash": "0xb1fe91c8d72a57367cb002ecba4fb7d5eb42522775a87430045186997327df1c",
	"args": [
		"0x6b9cbDc172ddf2D6A8A3ba9D7861e62a520317fb",
		"0x8E8620C6eCAdd24F7e74e9BA3E02fcf678BE8f23",
		"0x7b9C3Db05D803CA35c9F3E97787D1a76D4C931e7",
		"0x59e2d994bbe81A24f085584fDaD7c3311c232534",
		"0x779877A7B0D9E8603169DdbD7836e478b4624789",
		"0x522D818751B7D596bDD4018065dA7408e2bB8251",
		"0xb83E47C2bC239B3bf370bc41e1459A34b41238D0",
		"5195",
		"300000",
		"0x66756e2d657468657265756d2d7365706f6c69612d3100000000000000000000",
		"https://example.com/source"
	],
	"numDeployments": 1,
	"solcInputHash": "d4bc7c773a51f2274bb801a11332e440",
	"bytecode": "0x60a0604052671bc16d674ec80000600c5534801561001c57600080fd5b5060405161523138038061523183398101604081905261003b916103ba565b6001600160a01b0385166080528484848484848484848433806000816100a85760405162461bcd60e51b815260206004820152601860248201527f43616e6e6f7420736574206f776e657220746f207a65726f000000000000000060448201526064015b60405180910390fd5b600080546001600160a01b0319166001600160a01b03848116919091179091558116156100d8576100d881610228565b5050600180546001600160a01b0316600160a01b6001600160401b038816026001600160e01b031617600160e01b63ffffffff87160217905550600282905560086101238282610532565b50505050505050505050508a601060006101000a8154816001600160a01b0302191690836001600160a01b0316021790555089601160006101000a8154816001600160a01b0302191690836001600160a01b0316021790555088601360006101000a8154816001600160a01b0302191690836001600160a01b0316021790555087601260006101000a8154816001600160a01b0302191690836001600160a01b0316021790555086600f60006101000a8154816001600160a01b0302191690836001600160a01b0316021790555085600e60006101000a8154816001600160a01b0302191690836001600160a01b0316021790555050505050505050505050506105f0565b336001600160a01b038216036102805760405162461bcd60e51b815260206004820152601760248201527f43616e6e6f74207472616e7366657220746f2073656c66000000000000000000604482015260640161009f565b600180546001600160a01b0319166001600160a01b0383811691821790925560008054604051929316917fed8889f560326eb138920d842192f0eb3dd22b4f139c87a2c57538e05bae12789190a350565b80516001600160a01b03811681146102e857600080fd5b919050565b805163ffffffff811681146102e857600080fd5b634e487b7160e01b600052604160045260246000fd5b600082601f83011261032857600080fd5b81516001600160401b0381111561034157610341610301565b604051601f8201601f19908116603f011681016001600160401b038111828210171561036f5761036f610301565b60405281815283820160200185101561038757600080fd5b60005b828110156103a65760208186018101518383018201520161038a565b506000918101602001919091529392505050565b60008060008060008060008060008060006101608c8e0312156103dc57600080fd5b6103e58c6102d1565b9a506103f360208d016102d1565b995061040160408d016102d1565b985061040f60608d016102d1565b975061041d60808d016102d1565b965061042b60a08d016102d1565b955061043960c08d016102d1565b60e08d01519095506001600160401b038116811461045657600080fd5b93506104656101008d016102ed565b6101208d01516101408e015191945092506001600160401b0381111561048a57600080fd5b6104968e828f01610317565b9150509295989b509295989b9093969950565b600181811c908216806104bd57607f821691505b6020821081036104dd57634e487b7160e01b600052602260045260246000fd5b50919050565b601f82111561052d57806000526020600020601f840160051c8101602085101561050a5750805b601f840160051c820191505b8181101561052a5760008155600101610516565b50505b505050565b81516001600160401b0381111561054b5761054b610301565b61055f8161055984546104a9565b846104e3565b6020601f821160018114610593576000831561057b5750848201515b600019600385901b1c1916600184901b17845561052a565b600084815260208120601f198516915b828110156105c357878501518255602094850194600190920191016105a3565b50848210156105e15786840151600019600387901b60f8161c191681555b50505050600190811b01905550565b608051614c1f6106126000396000818161082801526128960152614c1f6000f3fe6080604052600436106101e75760003560e01c80638a87136411610102578063a2785f0b11610095578063de3d9fb711610064578063de3d9fb7146106a5578063e8c016e6146106dd578063ea7b4f77146106fd578063f2fde38b1461074557600080fd5b8063a2785f0b14610624578063b1e2174914610639578063cfeaa3ec1461064f578063d94c3bc91461066f57600080fd5b806398d5fdca116100d157806398d5fdca146104f257806399d2545514610507578063a07b57f614610527578063a0cf0aea146105fc57600080fd5b80638a8713641461046d5780638da5cb5b1461048057806391b7f5ed146104b25780639681096f146104d257600080fd5b80634b0795a81161017a57806367e828bf1161014957806367e828bf146104005780636a6339c1146104155780636e04ff0d1461042a57806379ba50971461045857600080fd5b80634b0795a81461032957806352d84c621461033e5780635bd69c991461037e578063615f64fe1461039e57600080fd5b806324ae6a27116101b657806324ae6a27146102915780632d0335ab146102b15780633944ea3a146102e75780634585e33b1461030957600080fd5b806301fce27e146101f357806309a16bd51461021e5780630ca761751461023d5780631a93d1c31461025f57600080fd5b366101ee57005b600080fd5b3480156101ff57600080fd5b50610208610765565b604051610215919061394e565b60405180910390f35b34801561022a57600080fd5b50600d545b604051908152602001610215565b34801561024957600080fd5b5061025d610258366004613acc565b61081d565b005b34801561026b57600080fd5b50600154600160e01b900463ffffffff1660405163ffffffff9091168152602001610215565b34801561029d57600080fd5b5061025d6102ac366004613b51565b6108a1565b3480156102bd57600080fd5b5061022f6102cc366004613b8a565b6001600160a01b031660009081526014602052604090205490565b3480156102f357600080fd5b506102fc610948565b6040516102159190613bf7565b34801561031557600080fd5b5061025d610324366004613c0a565b6109d6565b34801561033557600080fd5b506102fc610e91565b34801561034a57600080fd5b5061025d610359366004613c90565b6001805463ffffffff909216600160e01b026001600160e01b03909216919091179055565b34801561038a57600080fd5b5061025d610399366004613d19565b610e9e565b3480156103aa57600080fd5b50600e54600f54601054601154601354601254604080516001600160a01b0397881681529587166020870152938616938501939093529084166060840152831660808301529190911660a082015260c001610215565b34801561040c57600080fd5b506102fc611404565b34801561042157600080fd5b5060025461022f565b34801561043657600080fd5b5061044a610445366004613c0a565b611411565b604051610215929190613deb565b34801561046457600080fd5b5061025d61175a565b61025d61047b366004613e06565b611809565b34801561048c57600080fd5b506000546001600160a01b03165b6040516001600160a01b039091168152602001610215565b3480156104be57600080fd5b5061025d6104cd366004613edf565b600c55565b3480156104de57600080fd5b5061022f6104ed366004613f0f565b6119ae565b3480156104fe57600080fd5b50600c5461022f565b34801561051357600080fd5b5061025d610522366004613f74565b6119ec565b34801561053357600080fd5b506105b9610542366004613edf565b60408051608081018252600080825260208201819052918101829052606081019190915250600090815260166020908152604091829020825160808101845281546001600160a01b039081168252600183015481169382019390935260028201548316938101939093526003015416606082015290565b604051610215919081516001600160a01b039081168252602080840151821690830152604080840151821690830152606092830151169181019190915260800190565b34801561060857600080fd5b5061049a73eeeeeeeeeeeeeeeeeeeeeeeeeeeeeeeeeeeeeeee81565b34801561063057600080fd5b5060045461022f565b34801561064557600080fd5b5061022f60035481565b34801561065b57600080fd5b5061025d61066a366004613edf565b600255565b34801561067b57600080fd5b5061022f61068a366004613b8a565b6001600160a01b031660009081526015602052604090205490565b3480156106b157600080fd5b50600154600160a01b90046001600160401b03166040516001600160401b039091168152602001610215565b3480156106e957600080fd5b5061025d6106f8366004613fbc565b6119fc565b34801561070957600080fd5b5061025d610718366004613ffd565b600180546001600160401b03909216600160a01b0267ffffffffffffffff60a01b19909216919091179055565b34801561075157600080fd5b5061025d610760366004613b8a565b611a7d565b60606005805480602002602001604051908101604052809291908181526020016000905b828210156108145760008481526020908190206040805160e0810182526006860290920180546001600160a01b0390811684526001808301549091168486015260028201549284019290925260038101546060840152600481015460808401526005015460ff808216151560a085015261010090910416151560c08301529083529092019101610789565b50505050905090565b336001600160a01b037f000000000000000000000000000000000000000000000000000000000000000016146108665760405163c6829f8360e01b815260040160405180910390fd5b610871838383611a91565b60405183907f85e1543bf2f84fe80c6badbce3648c8539ad1df4d2b3d822938ca0538be727e690600090a2505050565b60006001600160a01b03831673eeeeeeeeeeeeeeeeeeeeeeeeeeeeeeeeeeeeeeee14610934576040516370a0823160e01b81523060048201526001600160a01b038416906370a0823190602401602060405180830381865afa15801561090b573d6000803e3d6000fd5b505050506040513d601f19601f8201168201806040525081019061092f9190614018565b610936565b475b9050610943838383611df9565b505050565b6006805461095590614031565b80601f016020809104026020016040519081016040528092919081815260200182805461098190614031565b80156109ce5780601f106109a3576101008083540402835291602001916109ce565b820191906000526020600020905b8154815290600101906020018083116109b157829003601f168201915b505050505081565b60006109e482840184614075565b90506000805b8251811015610a885760096000848381518110610a0957610a0961419d565b6020026020010151600001516001600160a01b03166001600160a01b031681526020019081526020016000206000848381518110610a4957610a4961419d565b6020908102919091018101516060015182528101919091526040016000206005015460ff16610a805781610a7c816141c9565b9250505b6001016109ea565b506000816001600160401b03811115610aa357610aa36139d9565b604051908082528060200260200182016040528015610ad657816020015b6060815260200190600190039081610ac15790505b5090506000826001600160401b03811115610af357610af36139d9565b604051908082528060200260200182016040528015610b5a57816020015b6040805160e08101825260008082526020808301829052928201819052606082018190526080820181905260a0820181905260c08201528252600019909201910181610b115790505b5090506000805b8551811015610d18576000868281518110610b7e57610b7e61419d565b60209081029190910181015180516001600160a01b0316600090815260098352604080822060608401518352909352919091206005015490915060ff16610d0f5780516001600160a01b03166000908152600960209081526040808320606085015184529091528120600501805460ff191660011790558151610c0090611e33565b610c0d8360400151611fdc565b610c1a8460600151611fdc565b610c278560800151611fdc565b610c348660200151611e33565b604051602001610c489594939291906141fe565b604051602081830303815290604052905080868581518110610c6c57610c6c61419d565b602002602001018190525081858581518110610c8a57610c8a61419d565b60200260200101819052508160600151826040015183600001516001600160a01b03167fad6d7748d4173799962a6f0232022512e0aa048f40c007fa5039cf9fc6e0c66585608001518660200151604051610cf89291909182526001600160a01b0316602082015260400190565b60405180910390a483610d0a816141c9565b945050505b50600101610b61565b508315610e8857610e8660405180610120016040528060088054610d3b90614031565b80601f0160208091040260200160405190810160405280929190818152602001828054610d6790614031565b8015610db45780601f10610d8957610100808354040283529160200191610db4565b820191906000526020600020905b815481529060010190602001808311610d9757829003601f168201915b5050505050815260200160405180604001604052806002815260200161060f60f31b8152508152602001600060ff16815260200160006001600160401b0316815260200185815260200160006001600160401b03811115610e1757610e176139d9565b604051908082528060200260200182016040528015610e4a57816020015b6060815260200190600190039081610e355790505b508152600154600160a01b81046001600160401b03166020830152600160e01b900463ffffffff166040820152600254606090910152836120e4565b505b50505050505050565b6007805461095590614031565b600e546001600160a01b03163314610ec95760405163075fd2b160e01b815260040160405180910390fd5b828114610ee95760405163636e39bb60e01b815260040160405180910390fd5b33600090815260146020526040812080548290610f05906141c9565b91905081905590506000600d60008154610f1e906141c9565b9182905550601054909150600090610f40906001600160a01b031633856124e6565b601154909150600090610f67906001600160a01b031633610f628760016142da565b6124e6565b601354909150600090610f89906001600160a01b031633610f628860026142da565b9050610f968560026142da565b33600090815260146020526040902055610fb0838d61253e565b610fba828c6125bb565b601254610fd7908290859085906001600160a01b03168e896125ff565b816001600160a01b0316632f2ff15d836001600160a01b0316638f61f4f56040518163ffffffff1660e01b8152600401602060405180830381865afa158015611024573d6000803e3d6000fd5b505050506040513d601f19601f820116820180604052508101906110489190614018565b6040516001600160e01b031960e084901b16815260048101919091526001600160a01b0384166024820152604401600060405180830381600087803b15801561109057600080fd5b505af11580156110a4573d6000803e3d6000fd5b50505050816001600160a01b0316632f2ff15d836001600160a01b03166307bd02656040518163ffffffff1660e01b8152600401602060405180830381865afa1580156110f5573d6000803e3d6000fd5b505050506040513d601f19601f820116820180604052508101906111199190614018565b6040516001600160e01b031960e084901b168152600481019190915260006024820152604401600060405180830381600087803b15801561115957600080fd5b505af115801561116d573d6000803e3d6000fd5b50505050816001600160a01b03166336568abe836001600160a01b031663a217fddf6040518163ffffffff1660e01b8152600401602060405180830381865afa1580156111be573d6000803e3d6000fd5b505050506040513d601f19601f820116820180604052508101906111e29190614018565b6040516001600160e01b031960e084901b1681526004810191909152306024820152604401600060405180830381600087803b15801561122157600080fd5b505af1158015611235573d6000803e3d6000fd5b5050604051637c88e3d960e01b81526001600160a01b0386169250637c88e3d9915061126b908c908c908c908c9060040161435f565b600060405180830381600087803b15801561128557600080fd5b505af1158015611299573d6000803e3d6000fd5b505060405163f2fde38b60e01b81526001600160a01b0385811660048301528616925063f2fde38b9150602401600060405180830381600087803b1580156112e057600080fd5b505af11580156112f4573d6000803e3d6000fd5b5050506001600160a01b0380831660008181526015602090815260408083208a90558051608081018252898616815288861681840190815281830195865233606083018181528d8752601690955294839020915182549088166001600160a01b0319918216178355905160018301805491891691831691909117905594516002820180549188169187169190911790559151600390920180549290951691909316179092555190915085907f3b785ea6f499a552d583841394f9e27727de143f34ed2585796814f93887d84f906113ee908790879087906001600160a01b0393841681529183166020830152909116604082015260600190565b60405180910390a3505050505050505050505050565b6008805461095590614031565b600060606000805b6005548110156114f75742600582815481106114375761143761419d565b906000526020600020906006020160040154111580156114dc575060096000600583815481106114695761146961419d565b600091825260208083206006909202909101546001600160a01b03168352820192909252604001812060058054919291849081106114a9576114a961419d565b906000526020600020906006020160030154815260200190815260200160002060050160009054906101000a900460ff16155b156114ef57816114eb816141c9565b9250505b600101611419565b5080600003611519575050604080516020810190915260008082529150611753565b6000816001600160401b03811115611533576115336139d9565b60405190808252806020026020018201604052801561159a57816020015b6040805160e08101825260008082526020808301829052928201819052606082018190526080820181905260a0820181905260c082015282526000199092019101816115515790505b5090506000805b6005548110156117285742600582815481106115bf576115bf61419d565b90600052602060002090600602016004015411158015611664575060096000600583815481106115f1576115f161419d565b600091825260208083206006909202909101546001600160a01b03168352820192909252604001812060058054919291849081106116315761163161419d565b906000526020600020906006020160030154815260200190815260200160002060050160009054906101000a900460ff16155b15611720576005818154811061167c5761167c61419d565b60009182526020918290206040805160e081018252600690930290910180546001600160a01b03908116845260018201541693830193909352600283015490820152600382015460608201526004820154608082015260059091015460ff808216151560a084015261010090910416151560c082015283518490849081106117065761170661419d565b6020026020010181905250818061171c906141c9565b9250505b6001016115a1565b508160405160200161173a919061394e565b6040516020818303038152906040529350600194505050505b9250929050565b6001546001600160a01b031633146117b25760405162461bcd60e51b815260206004820152601660248201527526bab9ba10313290383937b837b9b2b21037bbb732b960511b60448201526064015b60405180910390fd5b60008054336001600160a01b0319808316821784556001805490911690556040516001600160a01b0390921692909183917f8be0079c531659141344cd1fd0a4f28419497f9722a3daafe3b4186f6b6457e091a350565b600c54600f546040516370a0823160e01b81523360048201526001600160a01b03909116906370a0823190602401602060405180830381865afa158015611854573d6000803e3d6000fd5b505050506040513d601f19601f820116820180604052508101906118789190614018565b101561189757604051631cf2628760e31b815260040160405180910390fd5b600c54600f54604051636eb1769f60e11b81523360048201523060248201526001600160a01b039091169063dd62ed3e90604401602060405180830381865afa1580156118e8573d6000803e3d6000fd5b505050506040513d601f19601f8201168201806040525081019061190c9190614018565b101561192b57604051630fd3919360e01b815260040160405180910390fd5b600f5460408051606081018252338152306020820152600c549181019190915261195e916001600160a01b0316906127bd565b507f6adf15f19798d7090e2bead7c783517a8205a8f6ea8a10df3bf541c971266404888888888888888860405161199c989796959493929190614415565b60405180910390a15050505050505050565b60006119b861283c565b6119c485858585612891565b60038190556000818152600b60205260409020805460ff191660011790559050949350505050565b60086119f882826145a5565b5050565b3360009081526015602052604081205490819003611a305760405163442d09d960e01b8152600481018290526024016117a9565b6000818152601660205260409020600201546001600160a01b03163314611a6a5760405163075fd2b160e01b815260040160405180910390fd5b611a7685858585612963565b5050505050565b611a8561283c565b611a8e81612b24565b50565b8260035414611ab6576040516367954e7760e01b8152600481018490526024016117a9565b6000838152600b60205260409020805460ff191690556006611ad883826145a5565b506007611ae582826145a5565b50815115611db857600082806020019051810190611b039190614663565b90506000611b1082612bcd565b90506000600a60006003548152602001908152602001600020805480602002602001604051908101604052809291908181526020016000905b82821015611bd45760008481526020908190206040805160e0810182526006860290920180546001600160a01b0390811684526001808301549091168486015260028201549284019290925260038101546060840152600481015460808401526005015460ff808216151560a085015261010090910416151560c08301529083529092019101611b49565b50505050905060005b8151811015611db35760096000838381518110611bfc57611bfc61419d565b6020026020010151600001516001600160a01b03166001600160a01b031681526020019081526020016000206000838381518110611c3c57611c3c61419d565b602002602001015160600151815260200190815260200160002060050160019054906101000a900460ff16611dab57818181518110611c7d57611c7d61419d565b6020026020010151600001516001600160a01b0316633216e1f6838381518110611ca957611ca961419d565b602002602001015160600151858481518110611cc757611cc761419d565b60200260200101516040518363ffffffff1660e01b8152600401611cec9291906146d9565b600060405180830381600087803b158015611d0657600080fd5b505af1158015611d1a573d6000803e3d6000fd5b50505050600160096000848481518110611d3657611d3661419d565b6020026020010151600001516001600160a01b03166001600160a01b031681526020019081526020016000206000848481518110611d7657611d7661419d565b602002602001015160600151815260200190815260200160002060050160016101000a81548160ff0219169083151502179055505b600101611bdd565b505050505b827f7873807bf6ddc50401cd3d29bbe0decee23fd4d68d273f4b5eb83cded4d2f17260066007604051611dec929190614775565b60405180910390a2505050565b73eeeeeeeeeeeeeeeeeeeeeeeeeeeeeeeeeeeeeeed196001600160a01b03841601611e28576109438282612e8f565b610943838383612eab565b60408051602a808252606082810190935260009190602082018180368337019050509050600360fc1b81600081518110611e6f57611e6f61419d565b60200101906001600160f81b031916908160001a905350600f60fb1b81600181518110611e9e57611e9e61419d565b60200101906001600160f81b031916908160001a90535060005b6014811015611fd5576000611ece82601361479a565b611ed99060086147ad565b611ee49060026148ab565b611ef7906001600160a01b0387166148cd565b60f81b9050600060108260f81c611f0e91906148e1565b60f81b905060008160f81c6010611f259190614903565b8360f81c611f33919061491f565b60f81b9050611f4182612efb565b85611f4d8660026147ad565b611f589060026142da565b81518110611f6857611f6861419d565b60200101906001600160f81b031916908160001a905350611f8881612efb565b85611f948660026147ad565b611f9f9060036142da565b81518110611faf57611faf61419d565b60200101906001600160f81b031916908160001a9053505060019092019150611eb89050565b5092915050565b6060816000036120035750506040805180820190915260018152600360fc1b602082015290565b6000825b801561202d5781612017816141c9565b92506120269050600a826148cd565b9050612007565b6000826001600160401b03811115612047576120476139d9565b6040519080825280601f01601f191660200182016040528015612071576020820181803683370190505b5090505b84156120dc5761208660018461479a565b9250612093600a86614938565b61209e9060306142da565b60f81b8184815181106120b3576120b361419d565b60200101906001600160f81b031916908160001a9053506120d5600a866148cd565b9450612075565b949350505050565b60006120ee61283c565b61212f6040805160e0810190915280600081526020016000815260200160008152602001606081526020016060815260200160608152602001606081525090565b835161213c908290612f36565b6020840151511561215c576020840151612157908290612f43565b612184565b60608401516001600160401b0316156121845760408401516060850151612184918391612f74565b6080840151511561219f57608084015161219f90829061300a565b60a084015151156121ba5760a08401516121ba908290613034565b6121db6121c68261305e565b8560c001518660e00151876101000151612891565b60038190556000818152600b60205260408120805460ff191660011790559092505b83518110156124dd576000838152600a6020526040902084518590839081106122285761222861419d565b6020908102919091018101518254600180820185556000948552838520835160069093020180546001600160a01b03199081166001600160a01b03948516178255948401519181018054909516919092161790925560408101516002830155606081015160038301556080810151600483015560a08101516005909201805460c09092015161ffff1990921692151561ff00191692909217610100911515919091021790555b6005548110156124d4578482815181106122ea576122ea61419d565b6020026020010151600001516001600160a01b0316600582815481106123125761231261419d565b60009182526020909120600690910201546001600160a01b031614801561237957508482815181106123465761234661419d565b602002602001015160600151600582815481106123655761236561419d565b906000526020600020906006020160030154145b156124cc576005805461238e9060019061479a565b8154811061239e5761239e61419d565b9060005260206000209060060201600582815481106123bf576123bf61419d565b60009182526020909120825460069092020180546001600160a01b03199081166001600160a01b03938416178255600180850154908301805490921693169290921790915560028083015490820155600380830154908201556004808301549082015560059182018054918301805460ff938416151560ff19821681178355925461010090819004909416151590930261ff001990921661ffff19909316929092171790558054806124735761247361494c565b60008281526020812060066000199093019283020180546001600160a01b03199081168255600182018054909116905560028101829055600381018290556004810191909155600501805461ffff1916905590556124d4565b6001016122ce565b506001016121fd565b50505b92915050565b6040516bffffffffffffffffffffffff19606084901b1660208201526034810182905260009081906054016040516020818303038152906040528051906020012090506125338582613326565b9150505b9392505050565b6001600160a01b03821663077f224a6125578380614962565b6125646020860186614962565b306040518663ffffffff1660e01b81526004016125859594939291906149a8565b600060405180830381600087803b15801561259f57600080fd5b505af11580156125b3573d6000803e3d6000fd5b505050505050565b604080516000808252602082019081528183019283905263c4c4c7b360e01b9092526001600160a01b0384169163c4c4c7b391612585918591903060448301614a25565b604080516101408101909152600090806126198580614962565b8080601f0160208091040260200160405190810160405280939291908181526020018383808284376000920191909152505050908252506001600160a01b0380891660208084019190915290881660408084019190915260609092019161268591908701908701614a6a565b65ffffffffffff1681526020016126a26060860160408701613c90565b63ffffffff16815260608086013560208301526080808701356040840152908201859052016126d460a0860186614962565b8080601f01602080910402602001604051908101604052809392919081815260200183838082843760009201919091525050509082525060200161271b60c0860186614962565b8080601f0160208091040260200160405190810160405280939291908181526020018383808284376000920191909152505050915250604051632c235d0d60e21b81529091506001600160a01b0388169063b08d7434906127829084908890600401614a85565b600060405180830381600087803b15801561279c57600080fd5b505af11580156127b0573d6000803e3d6000fd5b5050505050505050505050565b604081015160009073eeeeeeeeeeeeeeeeeeeeeeeeeeeeeeeeeeeeeeed196001600160a01b0385160161281e578034101561280b576040516374c5672b60e01b815260040160405180910390fd5b612819836020015182612e8f565b612832565b612832848460000151856020015184613334565b5060019392505050565b6000546001600160a01b0316331461288f5760405162461bcd60e51b815260206004820152601660248201527527b7363c9031b0b63630b1363290313c9037bbb732b960511b60448201526064016117a9565b565b6000807f00000000000000000000000000000000000000000000000000000000000000006001600160a01b031663461d27628688600188886040518663ffffffff1660e01b81526004016128e9959493929190614b71565b6020604051808303816000875af1158015612908573d6000803e3d6000fd5b505050506040513d601f19601f8201168201806040525081019061292c9190614018565b60405190915081907f1131472297a800fee664d1d89cfa8f7676ff07189ecc53f80bbb5f4969099db890600090a295945050505050565b6040805160e081018252338082526001600160a01b0384811660208085018281528587018b8152606087018b8152608088018b8152600060a08a0181815260c08b018281526005805460018101825593529a5160069092027f036b6384b5eca791c62761152d0c79bb0604c104a5fb6f4eb0703f3154bb3db081018054938b166001600160a01b031994851617905595517f036b6384b5eca791c62761152d0c79bb0604c104a5fb6f4eb0703f3154bb3db18701805491909a1692169190911790975591517f036b6384b5eca791c62761152d0c79bb0604c104a5fb6f4eb0703f3154bb3db2840155517f036b6384b5eca791c62761152d0c79bb0604c104a5fb6f4eb0703f3154bb3db3830155517f036b6384b5eca791c62761152d0c79bb0604c104a5fb6f4eb0703f3154bb3db482015592517f036b6384b5eca791c62761152d0c79bb0604c104a5fb6f4eb0703f3154bb3db59093018054955115156101000261ff00199415159490941661ffff199096169590951792909217909355835186815290810192909252859287927fb65a679ed33acf689f42e48df6479c5b17db675374667f1e11a2f24e3bed897a910160405180910390a450505050565b336001600160a01b03821603612b7c5760405162461bcd60e51b815260206004820152601760248201527f43616e6e6f74207472616e7366657220746f2073656c6600000000000000000060448201526064016117a9565b600180546001600160a01b0319166001600160a01b0383811691821790925560008054604051929316917fed8889f560326eb138920d842192f0eb3dd22b4f139c87a2c57538e05bae12789190a350565b606081600160005b8251811015612c1f57828181518110612bf057612bf061419d565b01602001516001600160f81b031916601f60fa1b03612c175781612c13816141c9565b9250505b600101612bd5565b506000816001600160401b03811115612c3a57612c3a6139d9565b604051908082528060200260200182016040528015612c6d57816020015b6060815260200190600190039081612c585790505b50905060008060005b8551811015612da057858181518110612c9157612c9161419d565b01602001516001600160f81b031916601f60fa1b03612d98576000612cb6848361479a565b6001600160401b03811115612ccd57612ccd6139d9565b6040519080825280601f01601f191660200182016040528015612cf7576020820181803683370190505b509050835b82811015612d5f57878181518110612d1657612d1661419d565b01602001516001600160f81b03191682612d30878461479a565b81518110612d4057612d4061419d565b60200101906001600160f81b031916908160001a905350600101612cfc565b50808584612d6c816141c9565b955081518110612d7e57612d7e61419d565b6020908102919091010152612d948260016142da565b9350505b600101612c76565b508451821015612e84576000828651612db9919061479a565b6001600160401b03811115612dd057612dd06139d9565b6040519080825280601f01601f191660200182016040528015612dfa576020820181803683370190505b509050825b8651811015612e6357868181518110612e1a57612e1a61419d565b01602001516001600160f81b03191682612e34868461479a565b81518110612e4457612e4461419d565b60200101906001600160f81b031916908160001a905350600101612dff565b5080848381518110612e7757612e7761419d565b6020026020010181905250505b509095945050505050565b60003860003884865af16119f85763b12d13eb6000526004601cfd5b816014528060345263a9059cbb60601b60005260206000604460106000875af18060016000511416612ef057803d853b151710612ef0576390b8ec186000526004601cfd5b506000603452505050565b6000600a60f883901c1015612f2257612f1960f883901c6030614bba565b60f81b92915050565b612f1960f883901c6057614bba565b919050565b6119f88260008084613392565b8051600003612f655760405163e889636f60e01b815260040160405180910390fd5b60016020830152608090910152565b6000612f81610100613410565b9050612fb4604051806040016040528060068152602001651cdb1bdd125160d21b8152508261343190919063ffffffff16565b612fc18160ff851661344a565b6040805180820190915260078152663b32b939b4b7b760c91b6020820152612fea908290613431565b612ff4818361344a565b6002602085015251516080909301929092525050565b805160000361302c5760405163fe936cb760e01b815260040160405180910390fd5b60a090910152565b80516000036130565760405163fe936cb760e01b815260040160405180910390fd5b60c090910152565b6060600061306d610100613410565b90506130a66040518060400160405280600c81526020016b31b7b232a637b1b0ba34b7b760a11b8152508261343190919063ffffffff16565b82516130c49060028111156130bd576130bd614bd3565b8290613456565b6040805180820190915260088152676c616e677561676560c01b60208201526130ee908290613431565b60408301516131059080156130bd576130bd614bd3565b604080518082019091526006815265736f7572636560d01b602082015261312d908290613431565b606083015161313d908290613431565b60a083015151156131c9576040805180820190915260048152636172677360e01b602082015261316e908290613431565b6131778161348f565b60005b8360a00151518110156131bf576131b78460a0015182815181106131a0576131a061419d565b60200260200101518361343190919063ffffffff16565b60010161317a565b506131c9816134b3565b6080830151511561328d576000836020015160028111156131ec576131ec614bd3565b0361320a5760405163a80d31f760e01b815260040160405180910390fd5b60408051808201909152600f81526e39b2b1b932ba39a637b1b0ba34b7b760891b602082015261323b908290613431565b613254836020015160028111156130bd576130bd614bd3565b6040805180820190915260078152667365637265747360c81b602082015261327d908290613431565b608083015161328d9082906134d1565b60c0830151511561331e5760408051808201909152600981526862797465734172677360b81b60208201526132c3908290613431565b6132cc8161348f565b60005b8360c00151518110156133145761330c8460c0015182815181106132f5576132f561419d565b6020026020010151836134d190919063ffffffff16565b6001016132cf565b5061331e816134b3565b515192915050565b6000612537838360006134de565b60405181606052826040528360601b602c526323b872dd60601b600c52602060006064601c6000895af1806001600051141661338357803d873b15171061338357637939f4246000526004601cfd5b50600060605260405250505050565b80516000036133b4576040516322ce3edd60e01b815260040160405180910390fd5b838360028111156133c7576133c7614bd3565b908160028111156133da576133da614bd3565b905250604084018280156133f0576133f0614bd3565b9081801561340057613400614bd3565b9052506060909301929092525050565b613418613919565b80516134249083613575565b5060006020820152919050565b61343e82600383516135ec565b8151610943908261370b565b6119f8826000836135ec565b81516134639060c261372c565b506119f8828260405160200161347b91815260200190565b6040516020818303038152906040526134d1565b61349a816004613795565b6001816020018181516134ad91906142da565b90525050565b6134be816007613795565b6001816020018181516134ad919061479a565b61343e82600283516135ec565b60008147101561350a5760405163cf47918160e01b8152476004820152602481018390526044016117a9565b763d602d80600a3d3981f3363d3d373d3d3d363d730000008460601b60e81c176000526e5af43d82803e903d91602b57fd5bf38460781b17602052826037600984f590506001600160a01b0381166125375760405163b06ebf3d60e01b815260040160405180910390fd5b604080518082019091526060815260006020820152613595602083614938565b156135bd576135a5602083614938565b6135b090602061479a565b6135ba90836142da565b91505b6020808401839052604051808552600081529081840101818110156135e157600080fd5b604052509192915050565b6017816001600160401b0316116136185782516136129060e0600585901b16831761372c565b50505050565b60ff816001600160401b031611613658578251613640906018611fe0600586901b161761372c565b508251613612906001600160401b03831660016137ac565b61ffff816001600160401b031611613699578251613681906019611fe0600586901b161761372c565b508251613612906001600160401b03831660026137ac565b63ffffffff816001600160401b0316116136dc5782516136c490601a611fe0600586901b161761372c565b508251613612906001600160401b03831660046137ac565b82516136f390601b611fe0600586901b161761372c565b508251613612906001600160401b03831660086137ac565b60408051808201909152606081526000602082015261253783838451613831565b60408051808201909152606081526000602082015282515160006137518260016142da565b905084602001518210613772576137728561376d8360026147ad565b613902565b845160208382010185815350805182111561378b578181525b5093949350505050565b815161094390601f611fe0600585901b161761372c565b60408051808201909152606081526000602082015283515160006137d082856142da565b905085602001518111156137ed576137ed8661376d8360026147ad565b600060016137fd866101006148ab565b613807919061479a565b90508651828101878319825116178152508051831115613825578281525b50959695505050505050565b604080518082019091526060815260006020820152825182111561385457600080fd5b835151600061386384836142da565b90508560200151811115613880576138808661376d8360026147ad565b85518051838201602001916000918085111561389a578482525b505050602086015b602086106138da57805182526138b96020836142da565b91506138c66020826142da565b90506138d360208761479a565b95506138a2565b51815160001960208890036101000a0190811690199190911617905250849150509392505050565b815161390e8383613575565b50613612838261370b565b6040518060400160405280613941604051806040016040528060608152602001600081525090565b8152602001600081525090565b602080825282518282018190526000918401906040840190835b81811015612e8457835180516001600160a01b0390811685526020808301519091168186015260408083015190860152606080830151908601526080808301519086015260a08083015115159086015260c0918201511515918501919091529093019260e090920191600101613968565b634e487b7160e01b600052604160045260246000fd5b60405160e081016001600160401b0381118282101715613a1157613a116139d9565b60405290565b604051601f8201601f191681016001600160401b0381118282101715613a3f57613a3f6139d9565b604052919050565b60006001600160401b03821115613a6057613a606139d9565b50601f01601f191660200190565b6000613a81613a7c84613a47565b613a17565b9050828152838383011115613a9557600080fd5b828260208301376000602084830101529392505050565b600082601f830112613abd57600080fd5b61253783833560208501613a6e565b600080600060608486031215613ae157600080fd5b8335925060208401356001600160401b03811115613afe57600080fd5b613b0a86828701613aac565b92505060408401356001600160401b03811115613b2657600080fd5b613b3286828701613aac565b9150509250925092565b6001600160a01b0381168114611a8e57600080fd5b60008060408385031215613b6457600080fd5b8235613b6f81613b3c565b91506020830135613b7f81613b3c565b809150509250929050565b600060208284031215613b9c57600080fd5b813561253781613b3c565b60005b83811015613bc2578181015183820152602001613baa565b50506000910152565b60008151808452613be3816020860160208601613ba7565b601f01601f19169290920160200192915050565b6020815260006125376020830184613bcb565b60008060208385031215613c1d57600080fd5b82356001600160401b03811115613c3357600080fd5b8301601f81018513613c4457600080fd5b80356001600160401b03811115613c5a57600080fd5b856020828401011115613c6c57600080fd5b6020919091019590945092505050565b803563ffffffff81168114612f3157600080fd5b600060208284031215613ca257600080fd5b61253782613c7c565b600060408284031215613cbd57600080fd5b50919050565b600060e08284031215613cbd57600080fd5b60008083601f840112613ce757600080fd5b5081356001600160401b03811115613cfe57600080fd5b6020830191508360208260051b850101111561175357600080fd5b600080600080600080600060a0888a031215613d3457600080fd5b87356001600160401b03811115613d4a57600080fd5b613d568a828b01613cab565b9750506020880135955060408801356001600160401b03811115613d7957600080fd5b613d858a828b01613cc3565b95505060608801356001600160401b03811115613da157600080fd5b613dad8a828b01613cd5565b90955093505060808801356001600160401b03811115613dcc57600080fd5b613dd88a828b01613cd5565b989b979a50959850939692959293505050565b82151581526040602082015260006120dc6040830184613bcb565b60008060008060008060008060c0898b031215613e2257600080fd5b88356001600160401b03811115613e3857600080fd5b613e448b828c01613cab565b9850506020890135965060408901356001600160401b03811115613e6757600080fd5b613e738b828c01613cc3565b96505060608901356001600160401b03811115613e8f57600080fd5b613e9b8b828c01613cd5565b90965094505060808901356001600160401b03811115613eba57600080fd5b613ec68b828c01613cd5565b999c989b50969995989497949560a00135949350505050565b600060208284031215613ef157600080fd5b5035919050565b80356001600160401b0381168114612f3157600080fd5b60008060008060808587031215613f2557600080fd5b84356001600160401b03811115613f3b57600080fd5b613f4787828801613aac565b945050613f5660208601613ef8565b9250613f6460408601613c7c565b9396929550929360600135925050565b600060208284031215613f8657600080fd5b81356001600160401b03811115613f9c57600080fd5b8201601f81018413613fad57600080fd5b6120dc84823560208401613a6e565b60008060008060808587031215613fd257600080fd5b8435935060208501359250604085013591506060850135613ff281613b3c565b939692955090935050565b60006020828403121561400f57600080fd5b61253782613ef8565b60006020828403121561402a57600080fd5b5051919050565b600181811c9082168061404557607f821691505b602082108103613cbd57634e487b7160e01b600052602260045260246000fd5b80358015158114612f3157600080fd5b60006020828403121561408757600080fd5b81356001600160401b0381111561409d57600080fd5b8201601f810184136140ae57600080fd5b80356001600160401b038111156140c7576140c76139d9565b6140d660208260051b01613a17565b80828252602082019150602060e084028501019250868311156140f857600080fd5b6020840193505b828410156141935760e0848803121561411757600080fd5b61411f6139ef565b843561412a81613b3c565b8152602085013561413a81613b3c565b602082015260408581013590820152606080860135908201526080808601359082015261416960a08601614065565b60a082015261417a60c08601614065565b60c0820152825260e093909301926020909101906140ff565b9695505050505050565b634e487b7160e01b600052603260045260246000fd5b634e487b7160e01b600052601160045260246000fd5b6000600182016141db576141db6141b3565b5060010190565b600081516141f4818560208601613ba7565b9290920192915050565b6364616f3d60e01b81526000865161421d816004850160208b01613ba7565b663b64616f49643d60c81b600491840191820152865161424481600b840160208b01613ba7565b6004818301019150506b3b70726f706f73616c49643d60a01b60078201528551614275816013840160208a01613ba7565b600781830101915050693b736e617073686f743d60b01b600c82015284516142a4816016840160208901613ba7565b6142cd6142c76016848401016a3b766f7465546f6b656e3d60a81b8152600b0190565b866141e2565b9998505050505050505050565b808201808211156124e0576124e06141b3565b81835260208301925060008160005b8481101561378b57813561430f81613b3c565b6001600160a01b0316865260209586019591909101906001016142fc565b81835260006001600160fb1b0383111561434657600080fd5b8260051b80836020870137939093016020019392505050565b6040815260006143736040830186886142ed565b828103602084015261438681858761432d565b979650505050505050565b6000808335601e198436030181126143a857600080fd5b83016020810192503590506001600160401b038111156143c757600080fd5b80360382131561175357600080fd5b81835281816020850137506000828201602090810191909152601f909101601f19169091010190565b803565ffffffffffff81168114612f3157600080fd5b60c0815260006144258a8b614391565b604060c085015261443b610100850182846143d6565b91505061444b60208c018c614391565b84830360bf190160e08601526144628382846143d6565b92505050896020840152828103604084015261447e898a614391565b60e0835261449060e0840182846143d6565b91505065ffffffffffff6144a660208c016143ff565b16602083015263ffffffff6144bd60408c01613c7c565b16604083015260608a810135908301526080808b0135908301526144e460a08b018b614391565b83830360a08501526144f78382846143d6565b9250505061450860c08b018b614391565b83830360c085015261451b8382846143d6565b9350505050828103606084015261453381888a6142ed565b9050828103608084015261454881868861432d565b9150508260a08301529998505050505050505050565b601f82111561094357806000526020600020601f840160051c810160208510156145855750805b601f840160051c820191505b81811015611a765760008155600101614591565b81516001600160401b038111156145be576145be6139d9565b6145d2816145cc8454614031565b8461455e565b6020601f82116001811461460657600083156145ee5750848201515b600019600385901b1c1916600184901b178455611a76565b600084815260208120601f198516915b828110156146365787850151825560209485019460019092019101614616565b50848210156146545786840151600019600387901b60f8161c191681555b50505050600190811b01905550565b60006020828403121561467557600080fd5b81516001600160401b0381111561468b57600080fd5b8201601f8101841361469c57600080fd5b80516146aa613a7c82613a47565b8181528560208385010111156146bf57600080fd5b6146d0826020830160208601613ba7565b95945050505050565b8281526040602082015260006120dc6040830184613bcb565b600081546146ff81614031565b80855260018216801561471957600181146147355761476c565b60ff1983166020870152602082151560051b870101935061476c565b84600052602060002060005b838110156147635781546020828a010152600182019150602081019050614741565b87016020019450505b50505092915050565b60408152600061478860408301856146f2565b828103602084015261253381856146f2565b818103818111156124e0576124e06141b3565b80820281158282048414176124e0576124e06141b3565b6001815b60018411156147ff578085048111156147e3576147e36141b3565b60018416156147f157908102905b60019390931c9280026147c8565b935093915050565b600082614816575060016124e0565b81614823575060006124e0565b816001811461483957600281146148435761485f565b60019150506124e0565b60ff841115614854576148546141b3565b50506001821b6124e0565b5060208310610133831016604e8410600b8410161715614882575081810a6124e0565b61488f60001984846147c4565b80600019048211156148a3576148a36141b3565b029392505050565b60006125378383614807565b634e487b7160e01b600052601260045260246000fd5b6000826148dc576148dc6148b7565b500490565b600060ff8316806148f4576148f46148b7565b8060ff84160491505092915050565b60ff8181168382160290811690818114611fd557611fd56141b3565b60ff82811682821603908111156124e0576124e06141b3565b600082614947576149476148b7565b500690565b634e487b7160e01b600052603160045260246000fd5b6000808335601e1984360301811261497957600080fd5b8301803591506001600160401b0382111561499357600080fd5b60200191503681900382131561175357600080fd5b6060815260006149bc6060830187896143d6565b82810360208401526149cf8186886143d6565b91505060018060a01b03831660408301529695505050505050565b600081518084526020840193506020830160005b8281101561378b5781516001600160a01b03168652602095860195909101906001016149fe565b848152608060208201526000614a3e60808301866149ea565b8281036040840152614a5081866149ea565b91505060018060a01b038316606083015295945050505050565b600060208284031215614a7c57600080fd5b612537826143ff565b60408152600083516101406040840152614aa3610180840182613bcb565b90506020850151614abf60608501826001600160a01b03169052565b5060408501516001600160a01b038116608085015250606085015165ffffffffffff811660a085015250608085015163ffffffff811660c08501525060a085015160e084015260c085015161010084015260e0850151610120840152610100850151603f1984830301610140850152614b388282613bcb565b915050610120850151603f1984830301610160850152614b588282613bcb565b9250505061253760208301846001600160a01b03169052565b6001600160401b038616815260a060208201526000614b9360a0830187613bcb565b61ffff9590951660408301525063ffffffff92909216606083015260809091015292915050565b60ff81811683821601908111156124e0576124e06141b3565b634e487b7160e01b600052602160045260246000fdfea264697066735822122005ca3f9419bf78de8aeb2ea87e09e5e7abcae4cba0751923bf10aa3872a5d8e364736f6c634300081c0033",
	"devdoc": {
		"errors": {
			"FailedDeployment()": [
				{
					"details": "The deployment failed."
				}
			],
			"InsufficientBalance(uint256,uint256)": [
				{
					"details": "The ETH balance of the account is not enough to perform the operation."
				}
			]
		},
		"kind": "dev",
		"methods": {
			"handleOracleFulfillment(bytes32,bytes,bytes)": {
				"details": "Either response or error parameter will be set, but never both.",
				"params": {
					"err": "Aggregated error either from the request's source code or from the execution pipeline.",
					"requestId": "The requestId returned by FunctionsClient.sendRequest().",
					"response": "Aggregated response from the request's source code."
				}
			},
			"performUpkeep(bytes)": {
				"details": "The input to this method should not be trusted, and the caller of the method should not even be restricted to any single registry. Anyone should be able call it, and the input should be validated, there is no guarantee that the data passed in is the performData returned from checkUpkeep. This could happen due to malicious keepers, racing keepers, or simply a state change while the performUpkeep transaction is waiting for confirmation. Always validate the data passed in.",
				"params": {
					"performData": "is the data which was passed back from the checkData simulation. If it is encoded, it can easily be decoded into other types by calling `abi.decode`. This data should not be trusted, and should be validated against the contract's current state."
				}
			},
			"sendRequestCBOR(bytes,uint64,uint32,bytes32)": {
				"params": {
					"_donID": "ID of the job to be invoked",
					"_gasLimit": "The maximum amount of gas the request can consume",
					"_request": "CBOR-encoded request data",
					"_subscriptionId": "Billing ID"
				},
				"returns": {
					"requestId": "The ID of the sent request"
				}
			}
		},
		"version": 1
	},
	"userdoc": {
		"errors": {
			"DAO_NOT_FOUND(uint256)": [
				{
					"notice": "====================== ======= ZK DAO ======= ======================"
				}
			],
			"INSUFFICIENT_ALLOWANCE()": [
				{
					"notice": "====================== ====== Generic ======= ======================"
				}
			],
			"INVALID_VOTE_TYPE()": [
				{
					"notice": "====================== ====== Governor ====== ======================"
				}
			]
		},
		"events": {
			"DaoCreated(uint256,address,address,address,address)": {
				"notice": "====================== ======= Events ======= ======================"
			},
			"ProposalQueued(address,uint256,uint256,uint256,address)": {
				"notice": "====================== ======= Events ======= ======================"
			},
			"Response(bytes32,bytes,bytes)": {
				"notice": "====================== ======= Events ======= ======================"
			}
		},
		"kind": "user",
		"methods": {
			"acceptOwnership()": {
				"notice": "Allows an ownership transfer to be completed by the recipient."
			},
			"checkUpkeep(bytes)": {
				"notice": "========================== === External Functions === =========================="
			},
			"getPrice()": {
				"notice": "========================== === External Functions === =========================="
			},
			"getSubscriptionId()": {
				"notice": "========================== === External Functions === =========================="
			},
			"handleOracleFulfillment(bytes32,bytes,bytes)": {
				"notice": "Chainlink Functions response handler called by the Functions Router during fullilment from the designated transmitter node in an OCR round."
			},
			"owner()": {
				"notice": "Get the current owner"
			},
			"performUpkeep(bytes)": {
				"notice": "method that is actually executed by the keepers, via the registry. The data returned by the checkUpkeep simulation will be passed into this method to actually be executed."
			},
			"sendRequestCBOR(bytes,uint64,uint32,bytes32)": {
				"notice": "Send a pre-encoded CBOR request"
			},
			"transferOwnership(address)": {
				"notice": "Allows an owner to begin transferring ownership to a new address."
			}
		},
		"version": 1
	},
	"storageLayout": {
		"storage": [
			{
				"astId": 884,
				"contract": "contracts/core/ZKDAO.sol:ZKDAO",
				"label": "s_owner",
				"offset": 0,
				"slot": "0",
				"type": "t_address"
			},
			{
				"astId": 886,
				"contract": "contracts/core/ZKDAO.sol:ZKDAO",
				"label": "s_pendingOwner",
				"offset": 0,
				"slot": "1",
				"type": "t_address"
			},
			{
				"astId": 5500,
				"contract": "contracts/core/ZKDAO.sol:ZKDAO",
				"label": "subscriptionId",
				"offset": 20,
				"slot": "1",
				"type": "t_uint64"
			},
			{
				"astId": 5502,
				"contract": "contracts/core/ZKDAO.sol:ZKDAO",
				"label": "gasLimit",
				"offset": 28,
				"slot": "1",
				"type": "t_uint32"
			},
			{
				"astId": 5504,
				"contract": "contracts/core/ZKDAO.sol:ZKDAO",
				"label": "donID",
				"offset": 0,
				"slot": "2",
				"type": "t_bytes32"
			},
			{
				"astId": 5506,
				"contract": "contracts/core/ZKDAO.sol:ZKDAO",
				"label": "s_lastRequestId",
				"offset": 0,
				"slot": "3",
				"type": "t_bytes32"
			},
			{
				"astId": 5508,
				"contract": "contracts/core/ZKDAO.sol:ZKDAO",
				"label": "requestCounter",
				"offset": 0,
				"slot": "4",
				"type": "t_uint256"
			},
			{
				"astId": 5512,
				"contract": "contracts/core/ZKDAO.sol:ZKDAO",
				"label": "queue",
				"offset": 0,
				"slot": "5",
				"type": "t_array(t_struct(Proposal)5476_storage)dyn_storage"
			},
			{
				"astId": 5514,
				"contract": "contracts/core/ZKDAO.sol:ZKDAO",
				"label": "s_lastResponse",
				"offset": 0,
				"slot": "6",
				"type": "t_bytes_storage"
			},
			{
				"astId": 5516,
				"contract": "contracts/core/ZKDAO.sol:ZKDAO",
				"label": "s_lastError",
				"offset": 0,
				"slot": "7",
				"type": "t_bytes_storage"
			},
			{
				"astId": 5518,
				"contract": "contracts/core/ZKDAO.sol:ZKDAO",
				"label": "source",
				"offset": 0,
				"slot": "8",
				"type": "t_string_storage"
			},
			{
				"astId": 5526,
				"contract": "contracts/core/ZKDAO.sol:ZKDAO",
				"label": "proposals",
				"offset": 0,
				"slot": "9",
				"type": "t_mapping(t_contract(IGovernor)16255,t_mapping(t_uint256,t_struct(Proposal)5476_storage))"
			},
			{
				"astId": 5532,
				"contract": "contracts/core/ZKDAO.sol:ZKDAO",
				"label": "pendingProposals",
				"offset": 0,
				"slot": "10",
				"type": "t_mapping(t_bytes32,t_array(t_struct(Proposal)5476_storage)dyn_storage)"
			},
			{
				"astId": 5536,
				"contract": "contracts/core/ZKDAO.sol:ZKDAO",
				"label": "pendingRequests",
				"offset": 0,
				"slot": "11",
				"type": "t_mapping(t_bytes32,t_bool)"
			},
			{
				"astId": 15398,
				"contract": "contracts/core/ZKDAO.sol:ZKDAO",
				"label": "price",
				"offset": 0,
				"slot": "12",
				"type": "t_uint256"
			},
			{
				"astId": 15400,
				"contract": "contracts/core/ZKDAO.sol:ZKDAO",
				"label": "daoCounter",
				"offset": 0,
				"slot": "13",
				"type": "t_uint256"
			},
			{
				"astId": 15402,
				"contract": "contracts/core/ZKDAO.sol:ZKDAO",
				"label": "factory",
				"offset": 0,
				"slot": "14",
				"type": "t_address"
			},
			{
				"astId": 15405,
				"contract": "contracts/core/ZKDAO.sol:ZKDAO",
				"label": "linkToken",
				"offset": 0,
				"slot": "15",
				"type": "t_contract(IERC20)5017"
			},
			{
				"astId": 15408,
				"contract": "contracts/core/ZKDAO.sol:ZKDAO",
				"label": "governorToken",
				"offset": 0,
				"slot": "16",
				"type": "t_contract(IGovernorToken)16290"
			},
			{
				"astId": 15411,
				"contract": "contracts/core/ZKDAO.sol:ZKDAO",
				"label": "timelock",
				"offset": 0,
				"slot": "17",
				"type": "t_contract(ITimeLock)16338"
			},
			{
				"astId": 15414,
				"contract": "contracts/core/ZKDAO.sol:ZKDAO",
				"label": "verifier",
				"offset": 0,
				"slot": "18",
				"type": "t_contract(IVerifier)13777"
			},
			{
				"astId": 15417,
				"contract": "contracts/core/ZKDAO.sol:ZKDAO",
				"label": "governor",
				"offset": 0,
				"slot": "19",
				"type": "t_contract(IGovernor)16255"
			},
			{
				"astId": 15421,
				"contract": "contracts/core/ZKDAO.sol:ZKDAO",
				"label": "nonces",
				"offset": 0,
				"slot": "20",
				"type": "t_mapping(t_address,t_uint256)"
			},
			{
				"astId": 15425,
				"contract": "contracts/core/ZKDAO.sol:ZKDAO",
				"label": "daoIds",
				"offset": 0,
				"slot": "21",
				"type": "t_mapping(t_address,t_uint256)"
			},
			{
				"astId": 15430,
				"contract": "contracts/core/ZKDAO.sol:ZKDAO",
				"label": "daos",
				"offset": 0,
				"slot": "22",
				"type": "t_mapping(t_uint256,t_struct(DAO)15394_storage)"
			}
		],
		"types": {
			"t_address": {
				"encoding": "inplace",
				"label": "address",
				"numberOfBytes": "20"
			},
			"t_array(t_struct(Proposal)5476_storage)dyn_storage": {
				"base": "t_struct(Proposal)5476_storage",
				"encoding": "dynamic_array",
				"label": "struct Consumer.Proposal[]",
				"numberOfBytes": "32"
			},
			"t_bool": {
				"encoding": "inplace",
				"label": "bool",
				"numberOfBytes": "1"
			},
			"t_bytes32": {
				"encoding": "inplace",
				"label": "bytes32",
				"numberOfBytes": "32"
			},
			"t_bytes_storage": {
				"encoding": "bytes",
				"label": "bytes",
				"numberOfBytes": "32"
			},
			"t_contract(IERC20)5017": {
				"encoding": "inplace",
				"label": "contract IERC20",
				"numberOfBytes": "20"
			},
			"t_contract(IGovernor)16255": {
				"encoding": "inplace",
				"label": "contract IGovernor",
				"numberOfBytes": "20"
			},
			"t_contract(IGovernorToken)16290": {
				"encoding": "inplace",
				"label": "contract IGovernorToken",
				"numberOfBytes": "20"
			},
			"t_contract(ITimeLock)16338": {
				"encoding": "inplace",
				"label": "contract ITimeLock",
				"numberOfBytes": "20"
			},
			"t_contract(IVerifier)13777": {
				"encoding": "inplace",
				"label": "contract IVerifier",
				"numberOfBytes": "20"
			},
			"t_mapping(t_address,t_uint256)": {
				"encoding": "mapping",
				"key": "t_address",
				"label": "mapping(address => uint256)",
				"numberOfBytes": "32",
				"value": "t_uint256"
			},
			"t_mapping(t_bytes32,t_array(t_struct(Proposal)5476_storage)dyn_storage)": {
				"encoding": "mapping",
				"key": "t_bytes32",
				"label": "mapping(bytes32 => struct Consumer.Proposal[])",
				"numberOfBytes": "32",
				"value": "t_array(t_struct(Proposal)5476_storage)dyn_storage"
			},
			"t_mapping(t_bytes32,t_bool)": {
				"encoding": "mapping",
				"key": "t_bytes32",
				"label": "mapping(bytes32 => bool)",
				"numberOfBytes": "32",
				"value": "t_bool"
			},
			"t_mapping(t_contract(IGovernor)16255,t_mapping(t_uint256,t_struct(Proposal)5476_storage))": {
				"encoding": "mapping",
				"key": "t_contract(IGovernor)16255",
				"label": "mapping(contract IGovernor => mapping(uint256 => struct Consumer.Proposal))",
				"numberOfBytes": "32",
				"value": "t_mapping(t_uint256,t_struct(Proposal)5476_storage)"
			},
			"t_mapping(t_uint256,t_struct(DAO)15394_storage)": {
				"encoding": "mapping",
				"key": "t_uint256",
				"label": "mapping(uint256 => struct ZKDAO.DAO)",
				"numberOfBytes": "32",
				"value": "t_struct(DAO)15394_storage"
			},
			"t_mapping(t_uint256,t_struct(Proposal)5476_storage)": {
				"encoding": "mapping",
				"key": "t_uint256",
				"label": "mapping(uint256 => struct Consumer.Proposal)",
				"numberOfBytes": "32",
				"value": "t_struct(Proposal)5476_storage"
			},
			"t_string_storage": {
				"encoding": "bytes",
				"label": "string",
				"numberOfBytes": "32"
			},
			"t_struct(DAO)15394_storage": {
				"encoding": "inplace",
				"label": "struct ZKDAO.DAO",
				"members": [
					{
						"astId": 15385,
						"contract": "contracts/core/ZKDAO.sol:ZKDAO",
						"label": "token",
						"offset": 0,
						"slot": "0",
						"type": "t_contract(IGovernorToken)16290"
					},
					{
						"astId": 15388,
						"contract": "contracts/core/ZKDAO.sol:ZKDAO",
						"label": "timelock",
						"offset": 0,
						"slot": "1",
						"type": "t_contract(ITimeLock)16338"
					},
					{
						"astId": 15391,
						"contract": "contracts/core/ZKDAO.sol:ZKDAO",
						"label": "governor",
						"offset": 0,
						"slot": "2",
						"type": "t_contract(IGovernor)16255"
					},
					{
						"astId": 15393,
						"contract": "contracts/core/ZKDAO.sol:ZKDAO",
						"label": "deployer",
						"offset": 0,
						"slot": "3",
						"type": "t_address"
					}
				],
				"numberOfBytes": "128"
			},
			"t_struct(Proposal)5476_storage": {
				"encoding": "inplace",
				"label": "struct Consumer.Proposal",
				"members": [
					{
						"astId": 5463,
						"contract": "contracts/core/ZKDAO.sol:ZKDAO",
						"label": "dao",
						"offset": 0,
						"slot": "0",
						"type": "t_contract(IGovernor)16255"
					},
					{
						"astId": 5465,
						"contract": "contracts/core/ZKDAO.sol:ZKDAO",
						"label": "voteToken",
						"offset": 0,
						"slot": "1",
						"type": "t_address"
					},
					{
						"astId": 5467,
						"contract": "contracts/core/ZKDAO.sol:ZKDAO",
						"label": "daoId",
						"offset": 0,
						"slot": "2",
						"type": "t_uint256"
					},
					{
						"astId": 5469,
						"contract": "contracts/core/ZKDAO.sol:ZKDAO",
						"label": "proposalId",
						"offset": 0,
						"slot": "3",
						"type": "t_uint256"
					},
					{
						"astId": 5471,
						"contract": "contracts/core/ZKDAO.sol:ZKDAO",
						"label": "snapshot",
						"offset": 0,
						"slot": "4",
						"type": "t_uint256"
					},
					{
						"astId": 5473,
						"contract": "contracts/core/ZKDAO.sol:ZKDAO",
						"label": "queued",
						"offset": 0,
						"slot": "5",
						"type": "t_bool"
					},
					{
						"astId": 5475,
						"contract": "contracts/core/ZKDAO.sol:ZKDAO",
						"label": "executed",
						"offset": 1,
						"slot": "5",
						"type": "t_bool"
					}
				],
				"numberOfBytes": "192"
			},
			"t_uint256": {
				"encoding": "inplace",
				"label": "uint256",
				"numberOfBytes": "32"
			},
			"t_uint32": {
				"encoding": "inplace",
				"label": "uint32",
				"numberOfBytes": "4"
			},
			"t_uint64": {
				"encoding": "inplace",
				"label": "uint64",
				"numberOfBytes": "8"
			}
		}
	}
}