{
	"address": "0x0F2742DB0a81168ca621CddA1AcA66E87F4579a4",
	"abi": [
		{
			"inputs": [],
			"name": "AMOUNT_MISMATCH",
			"type": "error"
		},
		{
			"inputs": [
				{
					"internalType": "uint256",
					"name": "daoId",
					"type": "uint256"
				}
			],
			"name": "DAONotFound",
			"type": "error"
		},
		{
			"inputs": [
				{
					"internalType": "uint256",
					"name": "daoId",
					"type": "uint256"
				}
			],
			"name": "DAO_NOT_FOUND",
			"type": "error"
		},
		{
			"inputs": [],
			"name": "DOUBLE_VOTE",
			"type": "error"
		},
		{
			"inputs": [
				{
					"internalType": "uint64",
					"name": "destinationChainSelector",
					"type": "uint64"
				}
			],
			"name": "DestinationChainNotAllowlisted",
			"type": "error"
		},
		{
			"inputs": [],
			"name": "EmptyArgs",
			"type": "error"
		},
		{
			"inputs": [],
			"name": "EmptySecrets",
			"type": "error"
		},
		{
			"inputs": [],
			"name": "EmptySource",
			"type": "error"
		},
		{
			"inputs": [],
			"name": "FailedDeployment",
			"type": "error"
		},
		{
			"inputs": [
				{
					"internalType": "address",
					"name": "owner",
					"type": "address"
				},
				{
					"internalType": "address",
					"name": "target",
					"type": "address"
				},
				{
					"internalType": "uint256",
					"name": "value",
					"type": "uint256"
				}
			],
			"name": "FailedToWithdrawEth",
			"type": "error"
		},
		{
			"inputs": [],
			"name": "INSUFFICIENT_ALLOWANCE",
			"type": "error"
		},
		{
			"inputs": [],
			"name": "INSUFFICIENT_FUNDS",
			"type": "error"
		},
		{
			"inputs": [],
			"name": "INVALID_NULLIFIER",
			"type": "error"
		},
		{
			"inputs": [],
			"name": "INVALID_PROPOSAL_ID",
			"type": "error"
		},
		{
			"inputs": [],
			"name": "INVALID_VOTE_TYPE",
			"type": "error"
		},
		{
			"inputs": [
				{
					"internalType": "uint256",
					"name": "balance",
					"type": "uint256"
				},
				{
					"internalType": "uint256",
					"name": "needed",
					"type": "uint256"
				}
			],
			"name": "InsufficientBalance",
			"type": "error"
		},
		{
			"inputs": [],
			"name": "InvalidArrayLength",
			"type": "error"
		},
		{
			"inputs": [],
			"name": "InvalidParameters",
			"type": "error"
		},
		{
			"inputs": [],
			"name": "InvalidReceiverAddress",
			"type": "error"
		},
		{
			"inputs": [],
			"name": "MISMATCH",
			"type": "error"
		},
		{
			"inputs": [],
			"name": "NoInlineSecrets",
			"type": "error"
		},
		{
			"inputs": [
				{
					"internalType": "uint256",
					"name": "currentBalance",
					"type": "uint256"
				},
				{
					"internalType": "uint256",
					"name": "calculatedfee",
					"type": "uint256"
				}
			],
			"name": "NotEnoughBalance",
			"type": "error"
		},
		{
			"inputs": [],
			"name": "NothingToWithdraw",
			"type": "error"
		},
		{
			"inputs": [],
			"name": "OnlyRouterCanFulfill",
			"type": "error"
		},
		{
			"inputs": [],
			"name": "UNAUTHORIZED",
			"type": "error"
		},
		{
			"inputs": [
				{
					"internalType": "bytes32",
					"name": "requestId",
					"type": "bytes32"
				}
			],
			"name": "UNEXPECTED_REQUEST_ID",
			"type": "error"
		},
		{
			"inputs": [],
			"name": "UnauthorizedCaller",
			"type": "error"
		},
		{
			"inputs": [],
			"name": "VOTING_CLOSED",
			"type": "error"
		},
		{
			"inputs": [],
			"name": "ZK_PROOF_FAILED",
			"type": "error"
		},
		{
			"anonymous": false,
			"inputs": [
				{
					"indexed": true,
					"internalType": "uint256",
					"name": "id",
					"type": "uint256"
				},
				{
					"indexed": true,
					"internalType": "address",
					"name": "deployer",
					"type": "address"
				},
				{
					"indexed": false,
					"internalType": "address",
					"name": "token",
					"type": "address"
				},
				{
					"indexed": false,
					"internalType": "address",
					"name": "timelock",
					"type": "address"
				},
				{
					"indexed": false,
					"internalType": "address",
					"name": "governor",
					"type": "address"
				}
			],
			"name": "DaoCreated",
			"type": "event"
		},
		{
			"anonymous": false,
			"inputs": [
				{
					"components": [
						{
							"internalType": "string",
							"name": "name",
							"type": "string"
						},
						{
							"internalType": "string",
							"name": "symbol",
							"type": "string"
						}
					],
					"indexed": false,
					"internalType": "struct ZKDAO.GovernorTokenParams",
					"name": "tokenParams",
					"type": "tuple"
				},
				{
					"indexed": false,
					"internalType": "uint256",
					"name": "minDelay",
					"type": "uint256"
				},
				{
					"components": [
						{
							"internalType": "string",
							"name": "name",
							"type": "string"
						},
						{
							"internalType": "uint48",
							"name": "votingDelay",
							"type": "uint48"
						},
						{
							"internalType": "uint32",
							"name": "votingPeriod",
							"type": "uint32"
						},
						{
							"internalType": "uint256",
							"name": "proposalThreshold",
							"type": "uint256"
						},
						{
							"internalType": "uint256",
							"name": "quorumFraction",
							"type": "uint256"
						},
						{
							"internalType": "string",
							"name": "description",
							"type": "string"
						},
						{
							"internalType": "string",
							"name": "logo",
							"type": "string"
						}
					],
					"indexed": false,
					"internalType": "struct ZKDAO.GovernorParams",
					"name": "governorParams",
					"type": "tuple"
				},
				{
					"indexed": false,
					"internalType": "address[]",
					"name": "to",
					"type": "address[]"
				},
				{
					"indexed": false,
					"internalType": "uint256[]",
					"name": "amounts",
					"type": "uint256[]"
				},
				{
					"indexed": false,
					"internalType": "uint256",
					"name": "value",
					"type": "uint256"
				},
				{
					"indexed": false,
					"internalType": "address",
					"name": "creator",
					"type": "address"
				}
			],
			"name": "PaidForDaoCreation",
			"type": "event"
		},
		{
			"anonymous": false,
			"inputs": [
				{
					"indexed": true,
					"internalType": "address",
					"name": "dao",
					"type": "address"
				},
				{
					"indexed": true,
					"internalType": "uint256",
					"name": "daoId",
					"type": "uint256"
				},
				{
					"indexed": true,
					"internalType": "uint256",
					"name": "proposalId",
					"type": "uint256"
				},
				{
					"indexed": false,
					"internalType": "uint256",
					"name": "snapshot",
					"type": "uint256"
				},
				{
					"indexed": false,
					"internalType": "uint256",
					"name": "proposalBlock",
					"type": "uint256"
				},
				{
					"indexed": false,
					"internalType": "address",
					"name": "voteToken",
					"type": "address"
				},
				{
					"indexed": false,
					"internalType": "string[]",
					"name": "args",
					"type": "string[]"
				}
			],
			"name": "ProposalDequeued",
			"type": "event"
		},
		{
			"anonymous": false,
			"inputs": [
				{
					"indexed": true,
					"internalType": "address",
					"name": "dao",
					"type": "address"
				},
				{
					"indexed": true,
					"internalType": "uint256",
					"name": "daoId",
					"type": "uint256"
				},
				{
					"indexed": true,
					"internalType": "uint256",
					"name": "proposalId",
					"type": "uint256"
				},
				{
					"indexed": false,
					"internalType": "uint256",
					"name": "snapshot",
					"type": "uint256"
				},
				{
					"indexed": false,
					"internalType": "uint256",
					"name": "proposalBlock",
					"type": "uint256"
				},
				{
					"indexed": false,
					"internalType": "address",
					"name": "voteToken",
					"type": "address"
				}
			],
			"name": "ProposalQueued",
			"type": "event"
		},
		{
			"anonymous": false,
			"inputs": [
				{
					"indexed": true,
					"internalType": "bytes32",
					"name": "id",
					"type": "bytes32"
				}
			],
			"name": "RequestFulfilled",
			"type": "event"
		},
		{
			"anonymous": false,
			"inputs": [
				{
					"indexed": true,
					"internalType": "bytes32",
					"name": "id",
					"type": "bytes32"
				}
			],
			"name": "RequestSent",
			"type": "event"
		},
		{
			"anonymous": false,
			"inputs": [
				{
					"indexed": true,
					"internalType": "bytes32",
					"name": "requestId",
					"type": "bytes32"
				},
				{
					"indexed": false,
					"internalType": "bytes",
					"name": "response",
					"type": "bytes"
				},
				{
					"indexed": false,
					"internalType": "bytes",
					"name": "err",
					"type": "bytes"
				}
			],
			"name": "Response",
			"type": "event"
		},
		{
			"anonymous": false,
			"inputs": [
				{
					"indexed": true,
					"internalType": "bytes32",
					"name": "messageId",
					"type": "bytes32"
				},
				{
					"indexed": true,
					"internalType": "uint64",
					"name": "destinationChainSelector",
					"type": "uint64"
				},
				{
					"indexed": false,
					"internalType": "address",
					"name": "receiver",
					"type": "address"
				},
				{
					"indexed": false,
					"internalType": "address",
					"name": "token",
					"type": "address"
				},
				{
					"indexed": false,
					"internalType": "uint256",
					"name": "tokenAmount",
					"type": "uint256"
				},
				{
					"indexed": false,
					"internalType": "address",
					"name": "feeToken",
					"type": "address"
				},
				{
					"indexed": false,
					"internalType": "uint256",
					"name": "fee",
					"type": "uint256"
				}
			],
			"name": "TokensTransferred",
			"type": "event"
		},
		{
			"inputs": [],
			"name": "NATIVE",
			"outputs": [
				{
					"internalType": "address",
					"name": "",
					"type": "address"
				}
			],
			"stateMutability": "view",
			"type": "function"
		},
		{
			"inputs": [
				{
					"internalType": "uint64",
					"name": "_destinationChainSelector",
					"type": "uint64"
				},
				{
					"internalType": "bool",
					"name": "allowed",
					"type": "bool"
				}
			],
			"name": "allowlistDestinationChain",
			"outputs": [],
			"stateMutability": "nonpayable",
			"type": "function"
		},
		{
			"inputs": [
				{
					"internalType": "uint64",
					"name": "",
					"type": "uint64"
				}
			],
			"name": "allowlistedChains",
			"outputs": [
				{
					"internalType": "bool",
					"name": "",
					"type": "bool"
				}
			],
			"stateMutability": "view",
			"type": "function"
		},
		{
			"inputs": [
				{
					"internalType": "bytes",
					"name": "",
					"type": "bytes"
				}
			],
			"name": "checkUpkeep",
			"outputs": [
				{
					"internalType": "bool",
					"name": "upkeepNeeded",
					"type": "bool"
				},
				{
					"internalType": "bytes",
					"name": "performData",
					"type": "bytes"
				}
			],
			"stateMutability": "view",
			"type": "function"
		},
		{
			"inputs": [
				{
					"components": [
						{
							"internalType": "string",
							"name": "name",
							"type": "string"
						},
						{
							"internalType": "string",
							"name": "symbol",
							"type": "string"
						}
					],
					"internalType": "struct ZKDAO.GovernorTokenParams",
					"name": "_tokenParams",
					"type": "tuple"
				},
				{
					"internalType": "uint256",
					"name": "_minDelay",
					"type": "uint256"
				},
				{
					"components": [
						{
							"internalType": "string",
							"name": "name",
							"type": "string"
						},
						{
							"internalType": "uint48",
							"name": "votingDelay",
							"type": "uint48"
						},
						{
							"internalType": "uint32",
							"name": "votingPeriod",
							"type": "uint32"
						},
						{
							"internalType": "uint256",
							"name": "proposalThreshold",
							"type": "uint256"
						},
						{
							"internalType": "uint256",
							"name": "quorumFraction",
							"type": "uint256"
						},
						{
							"internalType": "string",
							"name": "description",
							"type": "string"
						},
						{
							"internalType": "string",
							"name": "logo",
							"type": "string"
						}
					],
					"internalType": "struct ZKDAO.GovernorParams",
					"name": "_governorParams",
					"type": "tuple"
				},
				{
					"internalType": "address[]",
					"name": "_to",
					"type": "address[]"
				},
				{
					"internalType": "uint256[]",
					"name": "_amounts",
					"type": "uint256[]"
				},
				{
					"internalType": "address",
					"name": "creator",
					"type": "address"
				}
			],
			"name": "createDao",
			"outputs": [],
			"stateMutability": "nonpayable",
			"type": "function"
		},
		{
			"inputs": [
				{
					"internalType": "address",
					"name": "_token",
					"type": "address"
				},
				{
					"internalType": "address",
					"name": "_account",
					"type": "address"
				}
			],
			"name": "getBalance",
			"outputs": [],
			"stateMutability": "view",
			"type": "function"
		},
		{
			"inputs": [
				{
					"internalType": "address",
					"name": "_receiver",
					"type": "address"
				},
				{
					"internalType": "address",
					"name": "_token",
					"type": "address"
				},
				{
					"internalType": "uint256",
					"name": "_amount",
					"type": "uint256"
				}
			],
			"name": "getCcipFee",
			"outputs": [
				{
					"internalType": "uint256",
					"name": "",
					"type": "uint256"
				}
			],
			"stateMutability": "view",
			"type": "function"
		},
		{
			"inputs": [],
			"name": "getCcipRouter",
			"outputs": [
				{
					"internalType": "contract IRouterClient",
					"name": "",
					"type": "address"
				}
			],
			"stateMutability": "view",
			"type": "function"
		},
		{
			"inputs": [
				{
					"internalType": "uint256",
					"name": "id",
					"type": "uint256"
				}
			],
			"name": "getDao",
			"outputs": [
				{
					"components": [
						{
							"internalType": "uint256",
							"name": "id",
							"type": "uint256"
						},
						{
							"internalType": "uint256",
							"name": "createdAt",
							"type": "uint256"
						},
						{
							"internalType": "address",
							"name": "creator",
							"type": "address"
						},
						{
							"internalType": "contract IGovernorToken",
							"name": "token",
							"type": "address"
						},
						{
							"internalType": "contract ITimeLock",
							"name": "timelock",
							"type": "address"
						},
						{
							"internalType": "contract IGovernor",
							"name": "governor",
							"type": "address"
						},
						{
							"internalType": "string",
							"name": "name",
							"type": "string"
						},
						{
							"internalType": "string",
							"name": "description",
							"type": "string"
						},
						{
							"internalType": "string",
							"name": "logo",
							"type": "string"
						}
					],
					"internalType": "struct ZKDAO.Dao",
					"name": "",
					"type": "tuple"
				}
			],
			"stateMutability": "view",
			"type": "function"
		},
		{
			"inputs": [],
			"name": "getDaoCounter",
			"outputs": [
				{
					"internalType": "uint256",
					"name": "",
					"type": "uint256"
				}
			],
			"stateMutability": "view",
			"type": "function"
		},
		{
			"inputs": [
				{
					"internalType": "address",
					"name": "account",
					"type": "address"
				}
			],
			"name": "getDaoId",
			"outputs": [
				{
					"internalType": "uint256",
					"name": "",
					"type": "uint256"
				}
			],
			"stateMutability": "view",
			"type": "function"
		},
		{
			"inputs": [],
			"name": "getDestinationChainSelector",
			"outputs": [
				{
					"internalType": "uint64",
					"name": "",
					"type": "uint64"
				}
			],
			"stateMutability": "view",
			"type": "function"
		},
		{
			"inputs": [],
			"name": "getDonID",
			"outputs": [
				{
					"internalType": "bytes32",
					"name": "",
					"type": "bytes32"
				}
			],
			"stateMutability": "view",
			"type": "function"
		},
		{
			"inputs": [],
			"name": "getFactory",
			"outputs": [
				{
					"internalType": "address",
					"name": "",
					"type": "address"
				}
			],
			"stateMutability": "view",
			"type": "function"
		},
		{
			"inputs": [],
			"name": "getGasLimit",
			"outputs": [
				{
					"internalType": "uint32",
					"name": "",
					"type": "uint32"
				}
			],
			"stateMutability": "view",
			"type": "function"
		},
		{
			"inputs": [],
			"name": "getImplementations",
			"outputs": [
				{
					"internalType": "address",
					"name": "_factory",
					"type": "address"
				},
				{
					"internalType": "address",
					"name": "_linkToken",
					"type": "address"
				},
				{
					"internalType": "address",
					"name": "_governorToken",
					"type": "address"
				},
				{
					"internalType": "address",
					"name": "_timelock",
					"type": "address"
				},
				{
					"internalType": "address",
					"name": "_governor",
					"type": "address"
				},
				{
					"internalType": "address",
					"name": "_verifier",
					"type": "address"
				}
			],
			"stateMutability": "view",
			"type": "function"
		},
		{
			"inputs": [],
			"name": "getLinkToken",
			"outputs": [
				{
					"internalType": "contract IERC20",
					"name": "",
					"type": "address"
				}
			],
			"stateMutability": "view",
			"type": "function"
		},
		{
			"inputs": [],
			"name": "getNonce",
			"outputs": [
				{
					"internalType": "uint256",
					"name": "",
					"type": "uint256"
				}
			],
			"stateMutability": "view",
			"type": "function"
		},
		{
			"inputs": [],
			"name": "getPrice",
			"outputs": [
				{
					"internalType": "uint256",
					"name": "",
					"type": "uint256"
				}
			],
			"stateMutability": "view",
			"type": "function"
		},
		{
			"inputs": [],
			"name": "getQueue",
			"outputs": [
				{
					"components": [
						{
							"internalType": "contract IGovernor",
							"name": "dao",
							"type": "address"
						},
						{
							"internalType": "address",
							"name": "voteToken",
							"type": "address"
						},
						{
							"internalType": "uint256",
							"name": "daoId",
							"type": "uint256"
						},
						{
							"internalType": "uint256",
							"name": "proposalId",
							"type": "uint256"
						},
						{
							"internalType": "uint256",
							"name": "snapshot",
							"type": "uint256"
						},
						{
							"internalType": "uint256",
							"name": "proposalBlock",
							"type": "uint256"
						},
						{
							"internalType": "bool",
							"name": "queued",
							"type": "bool"
						},
						{
							"internalType": "bool",
							"name": "executed",
							"type": "bool"
						}
					],
					"internalType": "struct ConsumerUpgradable.Proposal[]",
					"name": "",
					"type": "tuple[]"
				}
			],
			"stateMutability": "view",
			"type": "function"
		},
		{
			"inputs": [],
			"name": "getQueueWithTimeLeft",
			"outputs": [
				{
					"components": [
						{
							"internalType": "contract IGovernor",
							"name": "dao",
							"type": "address"
						},
						{
							"internalType": "address",
							"name": "voteToken",
							"type": "address"
						},
						{
							"internalType": "uint256",
							"name": "daoId",
							"type": "uint256"
						},
						{
							"internalType": "uint256",
							"name": "proposalId",
							"type": "uint256"
						},
						{
							"internalType": "uint256",
							"name": "snapshot",
							"type": "uint256"
						},
						{
							"internalType": "uint256",
							"name": "proposalBlock",
							"type": "uint256"
						},
						{
							"internalType": "uint256",
							"name": "timeLeft",
							"type": "uint256"
						},
						{
							"internalType": "bool",
							"name": "queued",
							"type": "bool"
						},
						{
							"internalType": "bool",
							"name": "executed",
							"type": "bool"
						}
					],
					"internalType": "struct ConsumerUpgradable.ProposalWithTimeLeft[]",
					"name": "_allProposals",
					"type": "tuple[]"
				}
			],
			"stateMutability": "view",
			"type": "function"
		},
		{
			"inputs": [],
			"name": "getRequestCounter",
			"outputs": [
				{
					"internalType": "uint256",
					"name": "",
					"type": "uint256"
				}
			],
			"stateMutability": "view",
			"type": "function"
		},
		{
			"inputs": [],
			"name": "getSubscriptionId",
			"outputs": [
				{
					"internalType": "uint64",
					"name": "",
					"type": "uint64"
				}
			],
			"stateMutability": "view",
			"type": "function"
		},
		{
			"inputs": [],
			"name": "getTreasury",
			"outputs": [
				{
					"internalType": "uint256",
					"name": "",
					"type": "uint256"
				}
			],
			"stateMutability": "view",
			"type": "function"
		},
		{
			"inputs": [
				{
					"internalType": "bytes32",
					"name": "requestId",
					"type": "bytes32"
				},
				{
					"internalType": "bytes",
					"name": "response",
					"type": "bytes"
				},
				{
					"internalType": "bytes",
					"name": "err",
					"type": "bytes"
				}
			],
			"name": "handleOracleFulfillment",
			"outputs": [],
			"stateMutability": "nonpayable",
			"type": "function"
		},
		{
			"inputs": [
				{
					"components": [
						{
							"internalType": "address",
							"name": "governorToken",
							"type": "address"
						},
						{
							"internalType": "address",
							"name": "timelock",
							"type": "address"
						},
						{
							"internalType": "address",
							"name": "governor",
							"type": "address"
						},
						{
							"internalType": "address",
							"name": "verifier",
							"type": "address"
						}
					],
					"internalType": "struct ZKDAO.Implementations",
					"name": "_implementations",
					"type": "tuple"
				},
				{
					"components": [
						{
							"internalType": "address",
							"name": "linkToken",
							"type": "address"
						},
						{
							"internalType": "address",
							"name": "ccipRouter",
							"type": "address"
						},
						{
							"internalType": "address",
							"name": "ccipBnmToken",
							"type": "address"
						},
						{
							"internalType": "address",
							"name": "ccipLnmToken",
							"type": "address"
						},
						{
							"internalType": "address",
							"name": "usdcToken",
							"type": "address"
						},
						{
							"internalType": "uint64",
							"name": "destinationChainSelector",
							"type": "uint64"
						}
					],
					"internalType": "struct ZKDAO.CcipParams",
					"name": "_ccipParams",
					"type": "tuple"
				},
				{
					"internalType": "address",
					"name": "_factory",
					"type": "address"
				},
				{
					"internalType": "address",
					"name": "_functionsRouter",
					"type": "address"
				},
				{
					"internalType": "uint64",
					"name": "_subscriptionId",
					"type": "uint64"
				},
				{
					"internalType": "uint32",
					"name": "_gasLimit",
					"type": "uint32"
				},
				{
					"internalType": "bytes32",
					"name": "_donID",
					"type": "bytes32"
				},
				{
					"internalType": "string",
					"name": "_source",
					"type": "string"
				}
			],
			"name": "initialize",
			"outputs": [],
			"stateMutability": "nonpayable",
			"type": "function"
		},
		{
			"inputs": [
				{
					"components": [
						{
							"internalType": "string",
							"name": "name",
							"type": "string"
						},
						{
							"internalType": "string",
							"name": "symbol",
							"type": "string"
						}
					],
					"internalType": "struct ZKDAO.GovernorTokenParams",
					"name": "_tokenParams",
					"type": "tuple"
				},
				{
					"internalType": "uint256",
					"name": "_minDelay",
					"type": "uint256"
				},
				{
					"components": [
						{
							"internalType": "string",
							"name": "name",
							"type": "string"
						},
						{
							"internalType": "uint48",
							"name": "votingDelay",
							"type": "uint48"
						},
						{
							"internalType": "uint32",
							"name": "votingPeriod",
							"type": "uint32"
						},
						{
							"internalType": "uint256",
							"name": "proposalThreshold",
							"type": "uint256"
						},
						{
							"internalType": "uint256",
							"name": "quorumFraction",
							"type": "uint256"
						},
						{
							"internalType": "string",
							"name": "description",
							"type": "string"
						},
						{
							"internalType": "string",
							"name": "logo",
							"type": "string"
						}
					],
					"internalType": "struct ZKDAO.GovernorParams",
					"name": "_governorParams",
					"type": "tuple"
				},
				{
					"internalType": "address[]",
					"name": "_to",
					"type": "address[]"
				},
				{
					"internalType": "uint256[]",
					"name": "_amounts",
					"type": "uint256[]"
				},
				{
					"internalType": "uint256",
					"name": "_value",
					"type": "uint256"
				}
			],
			"name": "payForDaoCreation",
			"outputs": [],
			"stateMutability": "payable",
			"type": "function"
		},
		{
			"inputs": [
				{
					"internalType": "bytes",
					"name": "performData",
					"type": "bytes"
				}
			],
			"name": "performUpkeep",
			"outputs": [],
			"stateMutability": "nonpayable",
			"type": "function"
		},
		{
			"inputs": [
				{
					"internalType": "uint256",
					"name": "daoId",
					"type": "uint256"
				},
				{
					"internalType": "uint256",
					"name": "proposalId",
					"type": "uint256"
				},
				{
					"internalType": "uint256",
					"name": "snapshot",
					"type": "uint256"
				},
				{
					"internalType": "uint256",
					"name": "proposalBlock",
					"type": "uint256"
				},
				{
					"internalType": "address",
					"name": "voteToken",
					"type": "address"
				}
			],
			"name": "queueProposal",
			"outputs": [],
			"stateMutability": "nonpayable",
			"type": "function"
		},
		{
			"inputs": [
				{
					"internalType": "address",
					"name": "_token",
					"type": "address"
				},
				{
					"internalType": "address",
					"name": "_to",
					"type": "address"
				}
			],
			"name": "recoverFunds",
			"outputs": [],
			"stateMutability": "nonpayable",
			"type": "function"
		},
		{
			"inputs": [],
			"name": "s_lastError",
			"outputs": [
				{
					"internalType": "bytes",
					"name": "",
					"type": "bytes"
				}
			],
			"stateMutability": "view",
			"type": "function"
		},
		{
			"inputs": [],
			"name": "s_lastRequestId",
			"outputs": [
				{
					"internalType": "bytes32",
					"name": "",
					"type": "bytes32"
				}
			],
			"stateMutability": "view",
			"type": "function"
		},
		{
			"inputs": [],
			"name": "s_lastResponse",
			"outputs": [
				{
					"internalType": "bytes",
					"name": "",
					"type": "bytes"
				}
			],
			"stateMutability": "view",
			"type": "function"
		},
		{
			"inputs": [
				{
					"internalType": "bytes",
					"name": "_request",
					"type": "bytes"
				},
				{
					"internalType": "uint64",
					"name": "_subscriptionId",
					"type": "uint64"
				},
				{
					"internalType": "uint32",
					"name": "_gasLimit",
					"type": "uint32"
				},
				{
					"internalType": "bytes32",
					"name": "_donID",
					"type": "bytes32"
				}
			],
			"name": "sendRequestCBOR",
			"outputs": [
				{
					"internalType": "bytes32",
					"name": "requestId",
					"type": "bytes32"
				}
			],
			"stateMutability": "nonpayable",
			"type": "function"
		},
		{
			"inputs": [
				{
					"internalType": "bytes32",
					"name": "_donID",
					"type": "bytes32"
				}
			],
			"name": "setDonID",
			"outputs": [],
			"stateMutability": "nonpayable",
			"type": "function"
		},
		{
			"inputs": [
				{
					"internalType": "address",
					"name": "_factory",
					"type": "address"
				}
			],
			"name": "setFactory",
			"outputs": [],
			"stateMutability": "nonpayable",
			"type": "function"
		},
		{
			"inputs": [
				{
					"internalType": "uint32",
					"name": "_gasLimit",
					"type": "uint32"
				}
			],
			"name": "setGasLimit",
			"outputs": [],
			"stateMutability": "nonpayable",
			"type": "function"
		},
		{
			"inputs": [
				{
					"internalType": "address",
					"name": "_governor",
					"type": "address"
				}
			],
			"name": "setGovernor",
			"outputs": [],
			"stateMutability": "nonpayable",
			"type": "function"
		},
		{
			"inputs": [
				{
					"internalType": "address",
					"name": "_governorToken",
					"type": "address"
				}
			],
			"name": "setGovernorToken",
			"outputs": [],
			"stateMutability": "nonpayable",
			"type": "function"
		},
		{
			"inputs": [
				{
					"internalType": "uint256",
					"name": "_price",
					"type": "uint256"
				}
			],
			"name": "setPrice",
			"outputs": [],
			"stateMutability": "nonpayable",
			"type": "function"
		},
		{
			"inputs": [
				{
					"internalType": "string",
					"name": "_source",
					"type": "string"
				}
			],
			"name": "setSource",
			"outputs": [],
			"stateMutability": "nonpayable",
			"type": "function"
		},
		{
			"inputs": [
				{
					"internalType": "uint64",
					"name": "_subscriptionId",
					"type": "uint64"
				}
			],
			"name": "setSubscriptionId",
			"outputs": [],
			"stateMutability": "nonpayable",
			"type": "function"
		},
		{
			"inputs": [
				{
					"internalType": "address",
					"name": "_timelock",
					"type": "address"
				}
			],
			"name": "setTimelock",
			"outputs": [],
			"stateMutability": "nonpayable",
			"type": "function"
		},
		{
			"inputs": [],
			"name": "source",
			"outputs": [
				{
					"internalType": "string",
					"name": "",
					"type": "string"
				}
			],
			"stateMutability": "view",
			"type": "function"
		},
		{
			"inputs": [
				{
					"internalType": "address",
					"name": "_receiver",
					"type": "address"
				},
				{
					"internalType": "address",
					"name": "_token",
					"type": "address"
				},
				{
					"internalType": "uint256",
					"name": "_amount",
					"type": "uint256"
				},
				{
					"internalType": "uint256",
					"name": "_fee",
					"type": "uint256"
				}
			],
			"name": "transferCrosschain",
			"outputs": [
				{
					"internalType": "bytes32",
					"name": "messageId",
					"type": "bytes32"
				}
			],
			"stateMutability": "nonpayable",
			"type": "function"
		},
		{
			"stateMutability": "payable",
			"type": "receive"
		}
	],
	"numDeployments": 4,
	"solcInputHash": "60b0d40accb152e3816fed52aab69c8e",
	"bytecode": "0x6080604052670de0b6b3a7640000600b55348015601b57600080fd5b50615f0e8061002b6000396000f3fe6080604052600436106102365760003560e01c80639681096f1161012f578063c0cc3fcf116100b1578063c0cc3fcf14610735578063c42cf53514610753578063cfeaa3ec14610790578063d087d288146107b0578063d0a5e6ce146107d2578063d4fac45d1461080f578063d94c3bc91461082f578063da51c3ac14610865578063de3d9fb714610885578063e76d5168146108be578063ea7b4f77146108dc578063fb512c551461092457600080fd5b80639681096f1461059b57806396d3b83d146105bb578063976931071461060157806398d5fdca1461062357806399d25455146106385780639d3795e414610658578063a07b57f614610678578063a0cf0aea146106a5578063a2785f0b146106cd578063b1e21749146106e2578063bdacb303146106f857600080fd5b80634b0795a8116101b85780634b0795a8146103d557806352d84c62146103ea5780635bb478081461042a578063615f64fe1461046757806367e828bf146104c95780636a6339c1146104de5780636aac7002146104f35780636e04ff0d1461051357806388cc58e4146105415780638a8713641461056857806391b7f5ed1461057b57600080fd5b806301fce27e1461024257806309a16bd51461026d5780630bb106eb1461028c5780630ca76175146102cc5780631a3b149d146102ee5780631a93d1c31461030e5780631d41b5c41461034057806324ae6a27146103605780633944ea3a146103805780633b19e84a146103a25780634585e33b146103b557600080fd5b3661023d57005b600080fd5b34801561024e57600080fd5b50610257610949565b604051610264919061469f565b60405180910390f35b34801561027957600080fd5b50600c545b604051908152602001610264565b34801561029857600080fd5b506102bc6102a7366004614759565b60196020526000908152604090205460ff1681565b6040519015158152602001610264565b3480156102d857600080fd5b506102ec6102e736600461487b565b610a0c565b005b3480156102fa57600080fd5b5061027e61030936600461490e565b610a72565b34801561031a57600080fd5b50600054600160e01b900463ffffffff1660405163ffffffff9091168152602001610264565b34801561034c57600080fd5b506102ec61035b366004614a13565b610d27565b34801561036c57600080fd5b506102ec61037b366004614b19565b610df3565b34801561038c57600080fd5b50610395610e9f565b6040516102649190614ba2565b3480156103ae57600080fd5b504761027e565b3480156103c157600080fd5b506102ec6103d0366004614bb5565b610f2d565b3480156103e157600080fd5b506103956113b1565b3480156103f657600080fd5b506102ec610405366004614c27565b6000805463ffffffff909216600160e01b026001600160e01b03909216919091179055565b34801561043657600080fd5b506102ec610445366004614c42565b601380546001600160a01b0319166001600160a01b0392909216919091179055565b34801561047357600080fd5b50601354601154600d54600e54601054600f54604080516001600160a01b0397881681529587166020870152938616938501939093529084166060840152831660808301529190911660a082015260c001610264565b3480156104d557600080fd5b506103956113be565b3480156104ea57600080fd5b5060015461027e565b3480156104ff57600080fd5b5061027e61050e366004614c5f565b6113cb565b34801561051f57600080fd5b5061053361052e366004614bb5565b611473565b604051610264929190614ca0565b34801561054d57600080fd5b506013546001600160a01b03165b6040516102649190614cbb565b6102ec610576366004614d3d565b611797565b34801561058757600080fd5b506102ec610596366004614e16565b600b55565b3480156105a757600080fd5b5061027e6105b6366004614e2f565b611943565b3480156105c757600080fd5b506102ec6105d6366004614ead565b6001600160401b03919091166000908152601960205260409020805460ff1916911515919091179055565b34801561060d57600080fd5b5061061661197a565b6040516102649190614ed9565b34801561062f57600080fd5b50600b5461027e565b34801561064457600080fd5b506102ec610653366004614f93565b611b99565b34801561066457600080fd5b506102ec610673366004614fc7565b611ba9565b34801561068457600080fd5b50610698610693366004614e16565b6122ba565b60405161026491906150a9565b3480156106b157600080fd5b5061055b73eeeeeeeeeeeeeeeeeeeeeeeeeeeeeeeeeeeeeeee81565b3480156106d957600080fd5b5060035461027e565b3480156106ee57600080fd5b5061027e60025481565b34801561070457600080fd5b506102ec610713366004614c42565b600e80546001600160a01b0319166001600160a01b0392909216919091179055565b34801561074157600080fd5b506012546001600160a01b031661055b565b34801561075f57600080fd5b506102ec61076e366004614c42565b601080546001600160a01b0319166001600160a01b0392909216919091179055565b34801561079c57600080fd5b506102ec6107ab366004614e16565b600155565b3480156107bc57600080fd5b503360009081526018602052604090205461027e565b3480156107de57600080fd5b506102ec6107ed366004614c42565b600d80546001600160a01b0319166001600160a01b0392909216919091179055565b34801561081b57600080fd5b506102ec61082a366004614b19565b6125d5565b34801561083b57600080fd5b5061027e61084a366004614c42565b6001600160a01b031660009081526016602052604090205490565b34801561087157600080fd5b506102ec610880366004615165565b6125df565b34801561089157600080fd5b50600054600160a01b90046001600160401b03165b6040516001600160401b039091168152602001610264565b3480156108ca57600080fd5b506011546001600160a01b031661055b565b3480156108e857600080fd5b506102ec6108f7366004614759565b600080546001600160401b03909216600160a01b0267ffffffffffffffff60a01b19909216919091179055565b34801561093057600080fd5b50601354600160a01b90046001600160401b03166108a6565b60606004805480602002602001604051908101604052809291908181526020016000905b82821015610a035760008481526020908190206040805161010080820183526007870290930180546001600160a01b039081168352600180830154909116838701526002820154938301939093526003810154606083015260048101546080830152600581015460a08301526006015460ff808216151560c0840152939004909216151560e0830152908352909201910161096d565b50505050905090565b6000546001600160a01b03163314610a375760405163c6829f8360e01b815260040160405180910390fd5b610a42838383612662565b60405183907f85e1543bf2f84fe80c6badbce3648c8539ad1df4d2b3d822938ca0538be727e690600090a2505050565b33600090815260166020526040812054808203610aaa5760405163442d09d960e01b8152600481018290526024015b60405180910390fd5b6000818152601460205260409020600501546001600160a01b03163314610ae45760405163075fd2b160e01b815260040160405180910390fd5b856001600160a01b038116610b0c5760405163502ffa3f60e11b815260040160405180910390fd5b601154600090610b2a908990899089906001600160a01b03166129be565b60115460125460405163095ea7b360e01b81529293506001600160a01b039182169263095ea7b392610b6292169089906004016151b2565b6020604051808303816000875af1158015610b81573d6000803e3d6000fd5b505050506040513d601f19601f82011682018060405250810190610ba591906151cb565b5060125460405163095ea7b360e01b81526001600160a01b038981169263095ea7b392610bda92909116908a906004016151b2565b6020604051808303816000875af1158015610bf9573d6000803e3d6000fd5b505050506040513d601f19601f82011682018060405250810190610c1d91906151cb565b506012546013546040516396f4e9f960e01b81526001600160a01b03909216916396f4e9f991610c6391600160a01b9091046001600160401b03169085906004016151e8565b6020604051808303816000875af1158015610c82573d6000803e3d6000fd5b505050506040513d601f19601f82011682018060405250810190610ca691906152c9565b601354601154604080516001600160a01b03808e168252808d1660208301529181018b90529116606082015260808101889052919550600160a01b90046001600160401b03169085907fc15fb748c32ba4eb29c1c311e78533f93b4425eab49ea87c6fe4279ecadca0439060a00160405180910390a3505050949350505050565b8751600d80546001600160a01b03199081166001600160a01b03938416179091556020808b0151600e8054841691851691909117905560408b015160108054841691851691909117905560608b0151600f80548416918516919091179055895160118054841691851691909117905589015160128054831691841691909117905560a0890151601380546001600160e01b031916600160a01b6001600160401b039093169290920290921617918816919091179055610de98585858585612b41565b5050505050505050565b60006001600160a01b03831673eeeeeeeeeeeeeeeeeeeeeeeeeeeeeeeeeeeeeeee14610e8b576040516370a0823160e01b81526001600160a01b038416906370a0823190610e45903090600401614cbb565b602060405180830381865afa158015610e62573d6000803e3d6000fd5b505050506040513d601f19601f82011682018060405250810190610e8691906152c9565b610e8d565b475b9050610e9a838383612b87565b505050565b60058054610eac906152e2565b80601f0160208091040260200160405190810160405280929190818152602001828054610ed8906152e2565b8015610f255780601f10610efa57610100808354040283529160200191610f25565b820191906000526020600020905b815481529060010190602001808311610f0857829003601f168201915b505050505081565b6000610f3b82840184615316565b90506000805b8251811015610fdf5760086000848381518110610f6057610f60615448565b6020026020010151600001516001600160a01b03166001600160a01b031681526020019081526020016000206000848381518110610fa057610fa0615448565b6020908102919091018101516060015182528101919091526040016000206006015460ff16610fd75781610fd381615474565b9250505b600101610f41565b506000816001600160401b03811115610ffa57610ffa614774565b60405190808252806020026020018201604052801561102d57816020015b60608152602001906001900390816110185790505b5090506000826001600160401b0381111561104a5761104a614774565b60405190808252806020026020018201604052801561108357816020015b6110706145fd565b8152602001906001900390816110685790505b5090506000805b85518110156112455760008682815181106110a7576110a7615448565b60209081029190910181015180516001600160a01b0316600090815260088352604080822060608401518352909352919091206006015490915060ff1661123c5780516001600160a01b03166000908152600860209081526040808320606085015184529091528120600601805460ff19166001179055815161112990612bc1565b6111368360400151612d6a565b6111438460600151612d6a565b6111508560800151612d6a565b61115d8660a00151612d6a565b61116a8760200151612bc1565b60405160200161117f969594939291906154a9565b6040516020818303038152906040529050808685815181106111a3576111a3615448565b6020026020010181905250818585815181106111c1576111c1615448565b60200260200101819052508160600151826040015183600001516001600160a01b03167f4faaacddef25e33933b6bb8be5852d80c222368e2f127653865bda8b517a440c85608001518660a0015187602001518c60405161122594939291906155ad565b60405180910390a48361123781615474565b945050505b5060010161108a565b5083156113a857610de960405180610120016040528060078054611268906152e2565b80601f0160208091040260200160405190810160405280929190818152602001828054611294906152e2565b80156112e15780601f106112b6576101008083540402835291602001916112e1565b820191906000526020600020905b8154815290600101906020018083116112c457829003601f168201915b50505050508152602001604051806020016040528060008152508152602001600060ff16815260200160006001600160401b0316815260200185815260200160006001600160401b0381111561133957611339614774565b60405190808252806020026020018201604052801561136c57816020015b60608152602001906001900390816113575790505b508152600054600160a01b81046001600160401b03166020830152600160e01b900463ffffffff16604082015260015460609091015283612e6a565b50505050505050565b60068054610eac906152e2565b60078054610eac906152e2565b6012546013546011546000926001600160a01b03908116926320487ded92600160a01b9091046001600160401b03169161140b91899189918991166129be565b6040518363ffffffff1660e01b81526004016114289291906151e8565b602060405180830381865afa158015611445573d6000803e3d6000fd5b505050506040513d601f19601f8201168201806040525081019061146991906152c9565b90505b9392505050565b600060606000805b60045481101561155957426004828154811061149957611499615448565b9060005260206000209060070201600401541115801561153e575060086000600483815481106114cb576114cb615448565b600091825260208083206007909202909101546001600160a01b031683528201929092526040018120600480549192918490811061150b5761150b615448565b906000526020600020906007020160030154815260200190815260200160002060060160009054906101000a900460ff16155b15611551578161154d81615474565b9250505b60010161147b565b508060000361157b575050604080516020810190915260008082529150611790565b6000816001600160401b0381111561159557611595614774565b6040519080825280602002602001820160405280156115ce57816020015b6115bb6145fd565b8152602001906001900390816115b35790505b5090506000805b6004548110156117655742600482815481106115f3576115f3615448565b906000526020600020906007020160040154111580156116985750600860006004838154811061162557611625615448565b600091825260208083206007909202909101546001600160a01b031683528201929092526040018120600480549192918490811061166557611665615448565b906000526020600020906007020160030154815260200190815260200160002060060160009054906101000a900460ff16155b1561175d57600481815481106116b0576116b0615448565b6000918252602091829020604080516101008082018352600790940290920180546001600160a01b039081168452600182015416948301949094526002840154908201526003830154606082015260048301546080820152600583015460a082015260069092015460ff808216151560c085015291900416151560e0820152835184908490811061174357611743615448565b6020026020010181905250818061175990615474565b9250505b6001016115d5565b5081604051602001611777919061469f565b6040516020818303038152906040529350600194505050505b9250929050565b600b546011546040516370a0823160e01b81526001600160a01b03909116906370a08231906117ca903390600401614cbb565b602060405180830381865afa1580156117e7573d6000803e3d6000fd5b505050506040513d601f19601f8201168201806040525081019061180b91906152c9565b101561182a57604051631cf2628760e31b815260040160405180910390fd5b600b54601154604051636eb1769f60e11b81523360048201523060248201526001600160a01b039091169063dd62ed3e90604401602060405180830381865afa15801561187b573d6000803e3d6000fd5b505050506040513d601f19601f8201168201806040525081019061189f91906152c9565b10156118be57604051630fd3919360e01b815260040160405180910390fd5b60115460408051606081018252338152306020820152600b54918101919091526118f1916001600160a01b031690613282565b507f76dce1c3fdc4d27b2f00ebc0d6d819bda910678c5aa4b6c30bea2bff32f526ab88888888888888883360405161193199989796959493929190615725565b60405180910390a15050505050505050565b600061195185858585613301565b60028190556000818152600a60205260409020805460ff1916600117905590505b949350505050565b600454606090806001600160401b0381111561199857611998614774565b604051908082528060200260200182016040528015611a2e57816020015b611a1b60405180610120016040528060006001600160a01b0316815260200160006001600160a01b0316815260200160008152602001600081526020016000815260200160008152602001600081526020016000151581526020016000151581525090565b8152602001906001900390816119b65790505b50915060005b81811015611b9457600060048281548110611a5157611a51615448565b60009182526020808320604080516101008082018352600790950290920180546001600160a01b0390811684526001820154169383019390935260028301549082015260038201546060820152600482015460808201819052600583015460a083015260069092015460ff808216151560c0840152939004909216151560e0830152909250421015611af257428260800151611aed919061586f565b611af5565b60005b905060405180610120016040528083600001516001600160a01b0316815260200183602001516001600160a01b031681526020018360400151815260200183606001518152602001836080015181526020018360a0015181526020018281526020018360c00151151581526020018360e001511515815250858481518110611b7f57611b7f615448565b60209081029190910101525050600101611a34565b505090565b6007611ba582826158d0565b5050565b6013546001600160a01b03163314611bd45760405163075fd2b160e01b815260040160405180910390fd5b838214611bf45760405163636e39bb60e01b815260040160405180910390fd5b33600090815260186020526040812080548290611c1090615474565b91905081905590506000600c60008154611c2990615474565b9182905550600d54909150600090611c4b906001600160a01b031633856133b5565b600e54909150600090611c72906001600160a01b031633611c6d87600161598e565b6133b5565b601054909150600090611c94906001600160a01b031633611c6d88600261598e565b9050611ca185600261598e565b33600090815260186020526040902055611cbb838e613406565b611cc5828d61347b565b600f54611ce2908290859085906001600160a01b03168f896134bf565b816001600160a01b0316632f2ff15d836001600160a01b0316638f61f4f56040518163ffffffff1660e01b8152600401602060405180830381865afa158015611d2f573d6000803e3d6000fd5b505050506040513d601f19601f82011682018060405250810190611d5391906152c9565b836040518363ffffffff1660e01b8152600401611d719291906159a1565b600060405180830381600087803b158015611d8b57600080fd5b505af1158015611d9f573d6000803e3d6000fd5b50505050816001600160a01b0316632f2ff15d836001600160a01b03166307bd02656040518163ffffffff1660e01b8152600401602060405180830381865afa158015611df0573d6000803e3d6000fd5b505050506040513d601f19601f82011682018060405250810190611e1491906152c9565b60006040518363ffffffff1660e01b8152600401611e339291906159a1565b600060405180830381600087803b158015611e4d57600080fd5b505af1158015611e61573d6000803e3d6000fd5b50505050816001600160a01b03166336568abe836001600160a01b031663a217fddf6040518163ffffffff1660e01b8152600401602060405180830381865afa158015611eb2573d6000803e3d6000fd5b505050506040513d601f19601f82011682018060405250810190611ed691906152c9565b306040518363ffffffff1660e01b8152600401611ef49291906159a1565b600060405180830381600087803b158015611f0e57600080fd5b505af1158015611f22573d6000803e3d6000fd5b5050604051637c88e3d960e01b81526001600160a01b0386169250637c88e3d99150611f58908d908d908d908d906004016159b8565b600060405180830381600087803b158015611f7257600080fd5b505af1158015611f86573d6000803e3d6000fd5b505060405163f2fde38b60e01b81526001600160a01b038616925063f2fde38b9150611fb6908590600401614cbb565b600060405180830381600087803b158015611fd057600080fd5b505af1158015611fe4573d6000803e3d6000fd5b5050601154600b5460405163a9059cbb60e01b81526001600160a01b03909216935063a9059cbb925061201c918591906004016151b2565b6020604051808303816000875af115801561203b573d6000803e3d6000fd5b505050506040513d601f19601f8201168201806040525081019061205f91906151cb565b506001600160a01b038083166000818152601760209081526040808320899055858516808452601683529281902089905580516101208101825289815242928101929092528a8516908201529286166060840152608083019190915260a082015260c081016120ce8d806159df565b8080601f01602080910402602001604051908101604052809392919081815260200183838082843760009201919091525050509082525060200161211560a08e018e6159df565b8080601f01602080910402602001604051908101604052809392919081815260200183838082843760009201919091525050509082525060200161215c60c08e018e6159df565b8080601f01602080910402602001604051908101604052809392919081815260200183838082843760009201829052509390945250508681526014602090815260409182902084518155908401516001820155908301516002820180546001600160a01b039283166001600160a01b0319918216179091556060850151600384018054918416918316919091179055608085015160048401805491841691831691909117905560a085015160058401805491909316911617905560c0830151909150600682019061222d90826158d0565b5060e0820151600782019061224290826158d0565b50610100820151600882019061225890826158d0565b5050604080516001600160a01b0386811682528581166020830152841681830152905133925086917f3b785ea6f499a552d583841394f9e27727de143f34ed2585796814f93887d84f919081900360600190a350505050505050505050505050565b61232d604051806101200160405280600081526020016000815260200160006001600160a01b0316815260200160006001600160a01b0316815260200160006001600160a01b0316815260200160006001600160a01b031681526020016060815260200160608152602001606081525090565b81158061233b5750600c5482115b156123a9575050604080516101208101825260008082526020808301829052828401829052606083018290526080830182905260a083018290528351808201855282815260c08401528351808201855282815260e08401528351908101909352825261010081019190915290565b6000828152601460209081526040918290208251610120810184528154815260018201549281019290925260028101546001600160a01b0390811693830193909352600381015483166060830152600481015483166080830152600581015490921660a082015260068201805491929160c084019190612428906152e2565b80601f0160208091040260200160405190810160405280929190818152602001828054612454906152e2565b80156124a15780601f10612476576101008083540402835291602001916124a1565b820191906000526020600020905b81548152906001019060200180831161248457829003601f168201915b505050505081526020016007820180546124ba906152e2565b80601f01602080910402602001604051908101604052809291908181526020018280546124e6906152e2565b80156125335780601f1061250857610100808354040283529160200191612533565b820191906000526020600020905b81548152906001019060200180831161251657829003601f168201915b5050505050815260200160088201805461254c906152e2565b80601f0160208091040260200160405190810160405280929190818152602001828054612578906152e2565b80156125c55780601f1061259a576101008083540402835291602001916125c5565b820191906000526020600020905b8154815290600101906020018083116125a857829003601f168201915b5050505050815250509050919050565b610e9a8282613685565b33600090815260166020526040812054908190036126135760405163442d09d960e01b815260048101829052602401610aa1565b6000818152601460205260409020600501546001600160a01b0316331461264d5760405163075fd2b160e01b815260040160405180910390fd5b61265a86868686866136ce565b505050505050565b8260025414612687576040516367954e7760e01b815260048101849052602401610aa1565b6000838152600a60205260409020805460ff1916905560056126a983826158d0565b5060066126b682826158d0565b5081511561297d578160006126ca826138c6565b90506000600960006002548152602001908152602001600020805480602002602001604051908101604052809291908181526020016000905b828210156127995760008481526020908190206040805161010080820183526007870290930180546001600160a01b039081168352600180830154909116838701526002820154938301939093526003810154606083015260048101546080830152600581015460a08301526006015460ff808216151560c0840152939004909216151560e08301529083529092019101612703565b50505050905060005b815181101561297857600860008383815181106127c1576127c1615448565b6020026020010151600001516001600160a01b03166001600160a01b03168152602001908152602001600020600083838151811061280157612801615448565b602002602001015160600151815260200190815260200160002060060160019054906101000a900460ff166129705781818151811061284257612842615448565b6020026020010151600001516001600160a01b0316633216e1f683838151811061286e5761286e615448565b60200260200101516060015185848151811061288c5761288c615448565b60200260200101516040518363ffffffff1660e01b81526004016128b1929190615a25565b600060405180830381600087803b1580156128cb57600080fd5b505af11580156128df573d6000803e3d6000fd5b505050506001600860008484815181106128fb576128fb615448565b6020026020010151600001516001600160a01b03166001600160a01b03168152602001908152602001600020600084848151811061293b5761293b615448565b602002602001015160600151815260200190815260200160002060060160016101000a81548160ff0219169083151502179055505b6001016127a2565b505050505b827f7873807bf6ddc50401cd3d29bbe0decee23fd4d68d273f4b5eb83cded4d2f172600560066040516129b1929190615ac1565b60405180910390a2505050565b6129f96040518060a0016040528060608152602001606081526020016060815260200160006001600160a01b03168152602001606081525090565b604080516001808252818301909252600091816020015b6040805180820190915260008082526020820152815260200190600190039081612a105790505090506040518060400160405280866001600160a01b031681526020018581525081600081518110612a6a57612a6a615448565b60200260200101819052506040518060a0016040528087604051602001612a919190614cbb565b6040516020818303038152906040528152602001604051806020016040528060008152508152602001828152602001846001600160a01b03168152602001612b35604051806040016040528060008152602001600115158152506040805182516024820152602092830151151560448083019190915282518083039091018152606490910190915290810180516001600160e01b0316630181dcf160e41b17905290565b90529695505050505050565b63ffffffff8316600160e01b026001600160e01b036001600160401b038616600160a01b02166001600160a01b03871617176000556001829055600761265a82826158d0565b73eeeeeeeeeeeeeeeeeeeeeeeeeeeeeeeeeeeeeeed196001600160a01b03841601612bb657610e9a8282613b88565b610e9a838383613ba4565b60408051602a808252606082810190935260009190602082018180368337019050509050600360fc1b81600081518110612bfd57612bfd615448565b60200101906001600160f81b031916908160001a905350600f60fb1b81600181518110612c2c57612c2c615448565b60200101906001600160f81b031916908160001a90535060005b6014811015612d63576000612c5c82601361586f565b612c67906008615ae6565b612c72906002615be4565b612c85906001600160a01b038716615c06565b60f81b9050600060108260f81c612c9c9190615c1a565b60f81b905060008160f81c6010612cb39190615c3c565b8360f81c612cc19190615c58565b60f81b9050612ccf82613bf4565b85612cdb866002615ae6565b612ce690600261598e565b81518110612cf657612cf6615448565b60200101906001600160f81b031916908160001a905350612d1681613bf4565b85612d22866002615ae6565b612d2d90600361598e565b81518110612d3d57612d3d615448565b60200101906001600160f81b031916908160001a9053505060019092019150612c469050565b5092915050565b606081600003612d915750506040805180820190915260018152600360fc1b602082015290565b6000825b8015612dbb5781612da581615474565b9250612db49050600a82615c06565b9050612d95565b6000826001600160401b03811115612dd557612dd5614774565b6040519080825280601f01601f191660200182016040528015612dff576020820181803683370190505b5090505b841561197257612e1460018461586f565b9250612e21600a86615c71565b612e2c90603061598e565b60f81b818481518110612e4157612e41615448565b60200101906001600160f81b031916908160001a905350612e63600a86615c06565b9450612e03565b6000612ead6040805160e0810190915280600081526020016000815260200160008152602001606081526020016060815260200160608152602001606081525090565b8351612eba908290613c2f565b60208401515115612eda576020840151612ed5908290613c3c565b612f02565b60608401516001600160401b031615612f025760408401516060850151612f02918391613c6d565b60808401515115612f1d576080840151612f1d908290613d03565b60a08401515115612f385760a0840151612f38908290613d2d565b612f59612f4482613d57565b8560c001518660e00151876101000151613301565b60028190556000818152600a60205260408120805460ff191660011790559092505b83518110156132795760008381526009602052604090208451859083908110612fa657612fa6615448565b6020908102919091018101518254600180820185556000948552838520835160079093020180546001600160a01b03199081166001600160a01b03948516178255948401519181018054909516919092161790925560408101516002830155606081015160038301556080810151600483015560a0810151600583015560c08101516006909201805460e09092015161ffff1990921692151561ff00191692909217610100911515919091021790555b6004548110156132705784828151811061307257613072615448565b6020026020010151600001516001600160a01b03166004828154811061309a5761309a615448565b60009182526020909120600790910201546001600160a01b031614801561310157508482815181106130ce576130ce615448565b602002602001015160600151600482815481106130ed576130ed615448565b906000526020600020906007020160030154145b1561326857600480546131169060019061586f565b8154811061312657613126615448565b90600052602060002090600702016004828154811061314757613147615448565b60009182526020909120825460079092020180546001600160a01b039283166001600160a01b0319918216178255600180850154908301805491909416911617909155600280830154908201556003808301549082015560048083015481830155600580840154908301556006928301805493909201805460ff19811660ff95861615159081178355935461ffff1990911661ff00199094169390931761010093849004909416151590920292909217905580548061320857613208615c85565b60008281526020812060076000199093019283020180546001600160a01b0319908116825560018201805490911690556002810182905560038101829055600481018290556005810191909155600601805461ffff191690559055613270565b600101613056565b50600101612f7b565b50505b92915050565b604081015160009073eeeeeeeeeeeeeeeeeeeeeeeeeeeeeeeeeeeeeeed196001600160a01b038516016132e357803410156132d0576040516374c5672b60e01b815260040160405180910390fd5b6132de836020015182613b88565b6132f7565b6132f784846000015185602001518461401f565b5060019392505050565b6000805460405163230e93b160e11b815282916001600160a01b03169063461d27629061333b9088908a906001908a908a90600401615c9b565b6020604051808303816000875af115801561335a573d6000803e3d6000fd5b505050506040513d601f19601f8201168201806040525081019061337e91906152c9565b60405190915081907f1131472297a800fee664d1d89cfa8f7676ff07189ecc53f80bbb5f4969099db890600090a295945050505050565b6040516001600160601b0319606084901b1660208201526034810182905260009081906054016040516020818303038152906040528051906020012090506133fd858261407d565b95945050505050565b6001600160a01b03821663077f224a61341f83806159df565b61342c60208601866159df565b306040518663ffffffff1660e01b815260040161344d959493929190615ce4565b600060405180830381600087803b15801561346757600080fd5b505af115801561265a573d6000803e3d6000fd5b604080516000808252602082019081528183019283905263c4c4c7b360e01b9092526001600160a01b0384169163c4c4c7b39161344d918591903060448301615d61565b604080516101408101909152600090806134d985806159df565b8080601f0160208091040260200160405190810160405280939291908181526020018383808284376000920191909152505050908252506001600160a01b0380891660208084019190915290881660408084019190915260609092019161354591908701908701615da6565b65ffffffffffff1681526020016135626060860160408701614c27565b63ffffffff168152606080860135602083015260808087013560408401529082018590520161359460a08601866159df565b8080601f0160208091040260200160405190810160405280939291908181526020018383808284376000920191909152505050908252506020016135db60c08601866159df565b8080601f0160208091040260200160405190810160405280939291908181526020018383808284376000920191909152505050915250601154604051633f329cd560e21b81529192506001600160a01b03808a169263fcca73549261364a9286928a9290911690600401615dc1565b600060405180830381600087803b15801561366457600080fd5b505af1158015613678573d6000803e3d6000fd5b5050505050505050505050565b600073eeeeeeeeeeeeeeeeeeeeeeeeeeeeeeeeeeeeeeed196001600160a01b038416016136bd57506001600160a01b0381163161327c565b6136c7838361408b565b905061327c565b604080516101008082018352338083526001600160a01b0385811660208086018281528688018d815260608089018e815260808a018e815260a08b018e8152600060c08d0181815260e08e018281526004805460018101825593529d5160079092027f8a35acfbc15ff81a39ae7d344fd709f28e8600b4aa8c65c6b64bfe7fe36bd19b81018054938d166001600160a01b031994851617905597517f8a35acfbc15ff81a39ae7d344fd709f28e8600b4aa8c65c6b64bfe7fe36bd19c8901805491909c1692169190911790995593517f8a35acfbc15ff81a39ae7d344fd709f28e8600b4aa8c65c6b64bfe7fe36bd19d86015590517f8a35acfbc15ff81a39ae7d344fd709f28e8600b4aa8c65c6b64bfe7fe36bd19e850155517f8a35acfbc15ff81a39ae7d344fd709f28e8600b4aa8c65c6b64bfe7fe36bd19f84015590517f8a35acfbc15ff81a39ae7d344fd709f28e8600b4aa8c65c6b64bfe7fe36bd1a083015593517f8a35acfbc15ff81a39ae7d344fd709f28e8600b4aa8c65c6b64bfe7fe36bd1a190910180549751151590960261ff00199115159190911661ffff199097169690961795909517909355845188815293840187905293830191909152869288927fce2df6fbb048de1d0af3bc2af20822ee09ffb85d9115939f7cca593511811d0c910160405180910390a45050505050565b606081600160005b8251811015613918578281815181106138e9576138e9615448565b01602001516001600160f81b031916601f60fa1b03613910578161390c81615474565b9250505b6001016138ce565b506000816001600160401b0381111561393357613933614774565b60405190808252806020026020018201604052801561396657816020015b60608152602001906001900390816139515790505b50905060008060005b8551811015613a995785818151811061398a5761398a615448565b01602001516001600160f81b031916601f60fa1b03613a915760006139af848361586f565b6001600160401b038111156139c6576139c6614774565b6040519080825280601f01601f1916602001820160405280156139f0576020820181803683370190505b509050835b82811015613a5857878181518110613a0f57613a0f615448565b01602001516001600160f81b03191682613a29878461586f565b81518110613a3957613a39615448565b60200101906001600160f81b031916908160001a9053506001016139f5565b50808584613a6581615474565b955081518110613a7757613a77615448565b6020908102919091010152613a8d82600161598e565b9350505b60010161396f565b508451821015613b7d576000828651613ab2919061586f565b6001600160401b03811115613ac957613ac9614774565b6040519080825280601f01601f191660200182016040528015613af3576020820181803683370190505b509050825b8651811015613b5c57868181518110613b1357613b13615448565b01602001516001600160f81b03191682613b2d868461586f565b81518110613b3d57613b3d615448565b60200101906001600160f81b031916908160001a905350600101613af8565b5080848381518110613b7057613b70615448565b6020026020010181905250505b509095945050505050565b60003860003884865af1611ba55763b12d13eb6000526004601cfd5b816014528060345263a9059cbb60601b60005260206000604460106000875af18060016000511416613be957803d853b151710613be9576390b8ec186000526004601cfd5b506000603452505050565b6000600a60f883901c1015613c1b57613c1260f883901c6030615ea9565b60f81b92915050565b613c1260f883901c6057615ea9565b919050565b611ba582600080846140b7565b8051600003613c5e5760405163e889636f60e01b815260040160405180910390fd5b60016020830152608090910152565b6000613c7a610100614135565b9050613cad604051806040016040528060068152602001651cdb1bdd125160d21b8152508261415690919063ffffffff16565b613cba8160ff851661416f565b6040805180820190915260078152663b32b939b4b7b760c91b6020820152613ce3908290614156565b613ced818361416f565b6002602085015251516080909301929092525050565b8051600003613d255760405163fe936cb760e01b815260040160405180910390fd5b60a090910152565b8051600003613d4f5760405163fe936cb760e01b815260040160405180910390fd5b60c090910152565b60606000613d66610100614135565b9050613d9f6040518060400160405280600c81526020016b31b7b232a637b1b0ba34b7b760a11b8152508261415690919063ffffffff16565b8251613dbd906002811115613db657613db6615ec2565b829061417b565b6040805180820190915260088152676c616e677561676560c01b6020820152613de7908290614156565b6040830151613dfe908015613db657613db6615ec2565b604080518082019091526006815265736f7572636560d01b6020820152613e26908290614156565b6060830151613e36908290614156565b60a08301515115613ec2576040805180820190915260048152636172677360e01b6020820152613e67908290614156565b613e70816141b4565b60005b8360a0015151811015613eb857613eb08460a001518281518110613e9957613e99615448565b60200260200101518361415690919063ffffffff16565b600101613e73565b50613ec2816141d8565b60808301515115613f8657600083602001516002811115613ee557613ee5615ec2565b03613f035760405163a80d31f760e01b815260040160405180910390fd5b60408051808201909152600f81526e39b2b1b932ba39a637b1b0ba34b7b760891b6020820152613f34908290614156565b613f4d83602001516002811115613db657613db6615ec2565b6040805180820190915260078152667365637265747360c81b6020820152613f76908290614156565b6080830151613f869082906141f6565b60c083015151156140175760408051808201909152600981526862797465734172677360b81b6020820152613fbc908290614156565b613fc5816141b4565b60005b8360c001515181101561400d576140058460c001518281518110613fee57613fee615448565b6020026020010151836141f690919063ffffffff16565b600101613fc8565b50614017816141d8565b515192915050565b60405181606052826040528360601b602c526323b872dd60601b600c52602060006064601c6000895af1806001600051141661406e57803d873b15171061406e57637939f4246000526004601cfd5b50600060605260405250505050565b600061146c83836000614203565b6000816014526370a0823160601b60005260208060246010865afa601f3d111660205102905092915050565b80516000036140d9576040516322ce3edd60e01b815260040160405180910390fd5b838360028111156140ec576140ec615ec2565b908160028111156140ff576140ff615ec2565b9052506040840182801561411557614115615ec2565b9081801561412557614125615ec2565b9052506060909301929092525050565b61413d614658565b8051614149908361429a565b5060006020820152919050565b6141638260038351614304565b8151610e9a9082614423565b611ba582600083614304565b81516141889060c2614437565b50611ba582826040516020016141a091815260200190565b6040516020818303038152906040526141f6565b6141bf816004614493565b6001816020018181516141d2919061598e565b90525050565b6141e3816007614493565b6001816020018181516141d2919061586f565b6141638260028351614304565b60008147101561422f5760405163cf47918160e01b815247600482015260248101839052604401610aa1565b763d602d80600a3d3981f3363d3d373d3d3d363d730000008460601b60e81c176000526e5af43d82803e903d91602b57fd5bf38460781b17602052826037600984f590506001600160a01b03811661146c5760405163b06ebf3d60e01b815260040160405180910390fd5b6142a2614678565b6142ad602083615c71565b156142d5576142bd602083615c71565b6142c890602061586f565b6142d2908361598e565b91505b6020808401839052604051808552600081529081840101818110156142f957600080fd5b604052509192915050565b6017816001600160401b03161161433057825161432a9060e0600585901b168317614437565b50505050565b60ff816001600160401b031611614370578251614358906018611fe0600586901b1617614437565b50825161432a906001600160401b03831660016144aa565b61ffff816001600160401b0316116143b1578251614399906019611fe0600586901b1617614437565b50825161432a906001600160401b03831660026144aa565b63ffffffff816001600160401b0316116143f45782516143dc90601a611fe0600586901b1617614437565b50825161432a906001600160401b03831660046144aa565b825161440b90601b611fe0600586901b1617614437565b50825161432a906001600160401b03831660086144aa565b61442b614678565b61146c83838451614522565b61443f614678565b825151600061444f82600161598e565b905084602001518210614470576144708561446b836002615ae6565b6145e6565b8451602083820101858153508051821115614489578181525b5093949350505050565b8151610e9a90601f611fe0600585901b1617614437565b6144b2614678565b83515160006144c1828561598e565b905085602001518111156144de576144de8661446b836002615ae6565b600060016144ee86610100615be4565b6144f8919061586f565b90508651828101878319825116178152508051831115614516578281525b50959695505050505050565b61452a614678565b825182111561453857600080fd5b8351516000614547848361598e565b90508560200151811115614564576145648661446b836002615ae6565b85518051838201602001916000918085111561457e578482525b505050602086015b602086106145be578051825261459d60208361598e565b91506145aa60208261598e565b90506145b760208761586f565b9550614586565b51815160001960208890036101000a0190811690199190911617905250849150509392505050565b81516145f2838361429a565b5061432a8382614423565b60405180610100016040528060006001600160a01b0316815260200160006001600160a01b03168152602001600081526020016000815260200160008152602001600081526020016000151581526020016000151581525090565b604051806040016040528061466b614678565b8152602001600081525090565b604051806040016040528060608152602001600081525090565b6001600160a01b03169052565b602080825282518282018190526000918401906040840190835b81811015613b7d57835160018060a01b03815116845260018060a01b03602082015116602085015260408101516040850152606081015160608501526080810151608085015260a081015160a085015260c0810151151560c085015260e0810151905061472a60e085018215159052565b506020939093019261010092909201916001016146b9565b80356001600160401b0381168114613c2a57600080fd5b60006020828403121561476b57600080fd5b61146c82614742565b634e487b7160e01b600052604160045260246000fd5b604051608081016001600160401b03811182821017156147ac576147ac614774565b60405290565b60405161010081016001600160401b03811182821017156147ac576147ac614774565b604051601f8201601f191681016001600160401b03811182821017156147fd576147fd614774565b604052919050565b600082601f83011261481657600080fd5b8135602083016000806001600160401b0384111561483657614836614774565b50601f8301601f191660200161484b816147d5565b91505082815285838301111561486057600080fd5b82826020830137600092810160200192909252509392505050565b60008060006060848603121561489057600080fd5b8335925060208401356001600160401b038111156148ad57600080fd5b6148b986828701614805565b92505060408401356001600160401b038111156148d557600080fd5b6148e186828701614805565b9150509250925092565b6001600160a01b038116811461490057600080fd5b50565b8035613c2a816148eb565b6000806000806080858703121561492457600080fd5b843561492f816148eb565b9350602085013561493f816148eb565b93969395505050506040820135916060013590565b600060c0828403121561496657600080fd5b60405160c081016001600160401b038111828210171561498857614988614774565b6040529050808235614999816148eb565b815260208301356149a9816148eb565b602082015260408301356149bc816148eb565b604082015260608301356149cf816148eb565b606082015260808301356149e2816148eb565b60808201526149f360a08401614742565b60a08201525092915050565b803563ffffffff81168114613c2a57600080fd5b600080600080600080600080888a03610200811215614a3157600080fd5b6080811215614a3f57600080fd5b50614a4861478a565b8935614a53816148eb565b815260208a0135614a63816148eb565b602082015260408a0135614a76816148eb565b604082015260608a0135614a89816148eb565b60608201529750614a9d8a60808b01614954565b9650614aac6101408a01614903565b9550614abb6101608a01614903565b9450614aca6101808a01614742565b9350614ad96101a08a016149ff565b92506101c089013591506101e08901356001600160401b03811115614afd57600080fd5b614b098b828c01614805565b9150509295985092959890939650565b60008060408385031215614b2c57600080fd5b8235614b37816148eb565b91506020830135614b47816148eb565b809150509250929050565b60005b83811015614b6d578181015183820152602001614b55565b50506000910152565b60008151808452614b8e816020860160208601614b52565b601f01601f19169290920160200192915050565b60208152600061146c6020830184614b76565b60008060208385031215614bc857600080fd5b82356001600160401b03811115614bde57600080fd5b8301601f81018513614bef57600080fd5b80356001600160401b03811115614c0557600080fd5b856020828401011115614c1757600080fd5b6020919091019590945092505050565b600060208284031215614c3957600080fd5b61146c826149ff565b600060208284031215614c5457600080fd5b813561146c816148eb565b600080600060608486031215614c7457600080fd5b8335614c7f816148eb565b92506020840135614c8f816148eb565b929592945050506040919091013590565b82151581526040602082015260006114696040830184614b76565b6001600160a01b0391909116815260200190565b600060408284031215614ce157600080fd5b50919050565b600060e08284031215614ce157600080fd5b60008083601f840112614d0b57600080fd5b5081356001600160401b03811115614d2257600080fd5b6020830191508360208260051b850101111561179057600080fd5b60008060008060008060008060c0898b031215614d5957600080fd5b88356001600160401b03811115614d6f57600080fd5b614d7b8b828c01614ccf565b9850506020890135965060408901356001600160401b03811115614d9e57600080fd5b614daa8b828c01614ce7565b96505060608901356001600160401b03811115614dc657600080fd5b614dd28b828c01614cf9565b90965094505060808901356001600160401b03811115614df157600080fd5b614dfd8b828c01614cf9565b999c989b50969995989497949560a00135949350505050565b600060208284031215614e2857600080fd5b5035919050565b60008060008060808587031215614e4557600080fd5b84356001600160401b03811115614e5b57600080fd5b614e6787828801614805565b945050614e7660208601614742565b9250614e84604086016149ff565b9396929550929360600135925050565b801515811461490057600080fd5b8035613c2a81614e94565b60008060408385031215614ec057600080fd5b614ec983614742565b91506020830135614b4781614e94565b602080825282518282018190526000918401906040840190835b81811015613b7d57835180516001600160a01b0316845260208082015190614f1d90860182614692565b5060408101516040850152606081015160608501526080810151608085015260a081015160a085015260c081015160c085015260e0810151614f6360e086018215159052565b506101008101519050614f7b61010085018215159052565b50602093909301926101209290920191600101614ef3565b600060208284031215614fa557600080fd5b81356001600160401b03811115614fbb57600080fd5b61197284828501614805565b60008060008060008060008060c0898b031215614fe357600080fd5b88356001600160401b03811115614ff957600080fd5b6150058b828c01614ccf565b9850506020890135965060408901356001600160401b0381111561502857600080fd5b6150348b828c01614ce7565b96505060608901356001600160401b0381111561505057600080fd5b61505c8b828c01614cf9565b90965094505060808901356001600160401b0381111561507b57600080fd5b6150878b828c01614cf9565b909450925061509a905060a08a01614903565b90509295985092959890939650565b602081528151602082015260208201516040820152600060408301516150d26060840182614692565b5060608301516150e56080840182614692565b5060808301516150f860a0840182614692565b5060a083015161510b60c0840182614692565b5060c083015161012060e0840152615127610140840182614b76565b905060e0840151601f19848303016101008501526151458282614b76565b915050610100840151601f19848303016101208501526133fd8282614b76565b600080600080600060a0868803121561517d57600080fd5b8535945060208601359350604086013592506060860135915060808601356151a4816148eb565b809150509295509295909350565b6001600160a01b03929092168252602082015260400190565b6000602082840312156151dd57600080fd5b815161146c81614e94565b6001600160401b0383168152604060208201526000825160a0604084015261521360e0840182614b76565b90506020840151603f198483030160608501526152308282614b76565b6040860151858203603f19016080870152805180835260209182019450600093509101905b8083101561528c57835180516001600160a01b03168352602090810151818401529093019260019290920191604090910190615255565b50606086015192506152a160a0860184614692565b6080860151858203603f190160c087015292506152be8184614b76565b979650505050505050565b6000602082840312156152db57600080fd5b5051919050565b600181811c908216806152f657607f821691505b602082108103614ce157634e487b7160e01b600052602260045260246000fd5b60006020828403121561532857600080fd5b81356001600160401b0381111561533e57600080fd5b8201601f8101841361534f57600080fd5b80356001600160401b0381111561536857615368614774565b61537760208260051b016147d5565b8082825260208201915060208360081b85010192508683111561539957600080fd5b6020840193505b8284101561543e5761010084880312156153b957600080fd5b6153c16147b2565b84356153cc816148eb565b81526153da60208601614903565b602082015260408581013590820152606080860135908201526080808601359082015260a0808601359082015261541360c08601614ea2565b60c082015261542460e08601614ea2565b60e0820152825261010093909301926020909101906153a0565b9695505050505050565b634e487b7160e01b600052603260045260246000fd5b634e487b7160e01b600052601160045260246000fd5b6000600182016154865761548661545e565b5060010190565b6000815161549f818560208601614b52565b9290920192915050565b6364616f3d60e01b8152600087516154c8816004850160208c01614b52565b663b64616f49643d60c81b60049184019182015287516154ef81600b840160208c01614b52565b6004818301019150506b3b70726f706f73616c49643d60a01b60078201528651615520816013840160208b01614b52565b600781830101915050693b736e617073686f743d60b01b600c820152855161554f816016840160208a01614b52565b61559f61559961558261557c6016868601016e3b70726f706f73616c426c6f636b3d60881b8152600f0190565b8961548d565b6a3b766f7465546f6b656e3d60a81b8152600b0190565b8661548d565b9a9950505050505050505050565b60006080820186835285602084015260018060a01b03851660408401526080606084015280845180835260a08501915060a08160051b86010192506020860160005b8281101561562057609f1987860301845261560b858351614b76565b945060209384019391909101906001016155ef565b50929998505050505050505050565b6000808335601e1984360301811261564657600080fd5b83016020810192503590506001600160401b0381111561566557600080fd5b80360382131561179057600080fd5b81835281816020850137506000828201602090810191909152601f909101601f19169091010190565b803565ffffffffffff81168114613c2a57600080fd5b81835260208301925060008160005b848110156144895781356156d5816148eb565b6001600160a01b0316865260209586019591909101906001016156c2565b81835260006001600160fb1b0383111561570c57600080fd5b8260051b80836020870137939093016020019392505050565b60e0815260006157358b8c61562f565b604060e085015261574b61012085018284615674565b91505061575b60208d018d61562f565b84830360df1901610100860152615773838284615674565b925050508a6020840152828103604084015261578f8a8b61562f565b60e083526157a160e084018284615674565b91505065ffffffffffff6157b760208d0161569d565b16602083015263ffffffff6157ce60408d016149ff565b16604083015260608b810135908301526080808c0135908301526157f560a08c018c61562f565b83830360a0850152615808838284615674565b9250505061581960c08c018c61562f565b83830360c085015261582c838284615674565b9350505050828103606084015261584481898b6156b3565b905082810360808401526158598187896156f3565b9150508360a083015261559f60c0830184614692565b8181038181111561327c5761327c61545e565b601f821115610e9a57806000526020600020601f840160051c810160208510156158a95750805b601f840160051c820191505b818110156158c957600081556001016158b5565b5050505050565b81516001600160401b038111156158e9576158e9614774565b6158fd816158f784546152e2565b84615882565b6020601f82116001811461593157600083156159195750848201515b600019600385901b1c1916600184901b1784556158c9565b600084815260208120601f198516915b828110156159615787850151825560209485019460019092019101615941565b508482101561597f5786840151600019600387901b60f8161c191681555b50505050600190811b01905550565b8082018082111561327c5761327c61545e565b9182526001600160a01b0316602082015260400190565b6040815260006159cc6040830186886156b3565b82810360208401526152be8185876156f3565b6000808335601e198436030181126159f657600080fd5b8301803591506001600160401b03821115615a1057600080fd5b60200191503681900382131561179057600080fd5b8281526040602082015260006114696040830184614b76565b60008154615a4b816152e2565b808552600182168015615a655760018114615a8157615ab8565b60ff1983166020870152602082151560051b8701019350615ab8565b84600052602060002060005b83811015615aaf5781546020828a010152600182019150602081019050615a8d565b87016020019450505b50505092915050565b604081526000615ad46040830185615a3e565b82810360208401526133fd8185615a3e565b808202811582820484141761327c5761327c61545e565b6001815b6001841115615b3857808504811115615b1c57615b1c61545e565b6001841615615b2a57908102905b60019390931c928002615b01565b935093915050565b600082615b4f5750600161327c565b81615b5c5750600061327c565b8160018114615b725760028114615b7c57615b98565b600191505061327c565b60ff841115615b8d57615b8d61545e565b50506001821b61327c565b5060208310610133831016604e8410600b8410161715615bbb575081810a61327c565b615bc86000198484615afd565b8060001904821115615bdc57615bdc61545e565b029392505050565b600061146c8383615b40565b634e487b7160e01b600052601260045260246000fd5b600082615c1557615c15615bf0565b500490565b600060ff831680615c2d57615c2d615bf0565b8060ff84160491505092915050565b60ff8181168382160290811690818114612d6357612d6361545e565b60ff828116828216039081111561327c5761327c61545e565b600082615c8057615c80615bf0565b500690565b634e487b7160e01b600052603160045260246000fd5b6001600160401b038616815260a060208201526000615cbd60a0830187614b76565b61ffff9590951660408301525063ffffffff92909216606083015260809091015292915050565b606081526000615cf8606083018789615674565b8281036020840152615d0b818688615674565b91505060018060a01b03831660408301529695505050505050565b600081518084526020840193506020830160005b828110156144895781516001600160a01b0316865260209586019590910190600101615d3a565b848152608060208201526000615d7a6080830186615d26565b8281036040840152615d8c8186615d26565b91505060018060a01b038316606083015295945050505050565b600060208284031215615db857600080fd5b61146c8261569d565b60608152600084516101406060840152615ddf6101a0840182614b76565b90506020860151615df36080850182614692565b506040860151615e0660a0850182614692565b50606086015165ffffffffffff811660c085015250608086015163ffffffff811660e08501525060a086015161010084015260c086015161012084015260e0860151610140840152610100860151605f1984830301610160850152615e6b8282614b76565b915050610120860151605f1984830301610180850152615e8b8282614b76565b92505050615e9c6020830185614692565b6119726040830184614692565b60ff818116838216019081111561327c5761327c61545e565b634e487b7160e01b600052602160045260246000fdfea26469706673582212203dbf572de2c943bd6f7383820d813cfdec4f53d54cf423627fb8ec49cf511f4764736f6c634300081c0033",
	"devdoc": {
		"errors": {
			"FailedDeployment()": [
				{
					"details": "The deployment failed."
				}
			],
			"InsufficientBalance(uint256,uint256)": [
				{
					"details": "The ETH balance of the account is not enough to perform the operation."
				}
			]
		},
		"kind": "dev",
		"methods": {
			"handleOracleFulfillment(bytes32,bytes,bytes)": {
				"details": "Either response or error parameter will be set, but never both.",
				"params": {
					"err": "Aggregated error either from the request's source code or from the execution pipeline.",
					"requestId": "The requestId returned by FunctionsClient.sendRequest().",
					"response": "Aggregated response from the request's source code."
				}
			},
			"performUpkeep(bytes)": {
				"details": "The input to this method should not be trusted, and the caller of the method should not even be restricted to any single registry. Anyone should be able call it, and the input should be validated, there is no guarantee that the data passed in is the performData returned from checkUpkeep. This could happen due to malicious keepers, racing keepers, or simply a state change while the performUpkeep transaction is waiting for confirmation. Always validate the data passed in.",
				"params": {
					"performData": "is the data which was passed back from the checkData simulation. If it is encoded, it can easily be decoded into other types by calling `abi.decode`. This data should not be trusted, and should be validated against the contract's current state."
				}
			},
			"sendRequestCBOR(bytes,uint64,uint32,bytes32)": {
				"params": {
					"_donID": "ID of the job to be invoked",
					"_gasLimit": "The maximum amount of gas the request can consume",
					"_request": "CBOR-encoded request data",
					"_subscriptionId": "Billing ID"
				},
				"returns": {
					"requestId": "The ID of the sent request"
				}
			}
		},
		"version": 1
	},
	"userdoc": {
		"errors": {
			"DAO_NOT_FOUND(uint256)": [
				{
					"notice": "====================== ======= ZK DAO ======= ======================"
				}
			],
			"INSUFFICIENT_ALLOWANCE()": [
				{
					"notice": "====================== ====== Generic ======= ======================"
				}
			],
			"INVALID_VOTE_TYPE()": [
				{
					"notice": "====================== ====== Governor ====== ======================"
				}
			],
			"NotEnoughBalance(uint256,uint256)": [
				{
					"notice": "====================== ======= Errors ======= ======================"
				}
			]
		},
		"events": {
			"DaoCreated(uint256,address,address,address,address)": {
				"notice": "====================== ======= Events ======= ======================"
			},
			"ProposalQueued(address,uint256,uint256,uint256,uint256,address)": {
				"notice": "====================== ======= Events ======= ======================"
			},
			"Response(bytes32,bytes,bytes)": {
				"notice": "====================== ======= Events ======= ======================"
			}
		},
		"kind": "user",
		"methods": {
			"checkUpkeep(bytes)": {
				"notice": "========================== === External Functions === =========================="
			},
			"getPrice()": {
				"notice": "========================== === External Functions === =========================="
			},
			"getSubscriptionId()": {
				"notice": "========================== === External Functions === =========================="
			},
			"handleOracleFulfillment(bytes32,bytes,bytes)": {
				"notice": "Chainlink Functions response handler called by the Functions Router during fullilment from the designated transmitter node in an OCR round."
			},
			"initialize((address,address,address,address),(address,address,address,address,address,uint64),address,address,uint64,uint32,bytes32,string)": {
				"notice": "========================= ====== Initializer ====== ========================="
			},
			"performUpkeep(bytes)": {
				"notice": "method that is actually executed by the keepers, via the registry. The data returned by the checkUpkeep simulation will be passed into this method to actually be executed."
			},
			"sendRequestCBOR(bytes,uint64,uint32,bytes32)": {
				"notice": "Send a pre-encoded CBOR request"
			}
		},
		"version": 1
	},
	"storageLayout": {
		"storage": [
			{
				"astId": 30405,
				"contract": "contracts/core/ZKDAO.sol:ZKDAO",
				"label": "i_router",
				"offset": 0,
				"slot": "0",
				"type": "t_contract(IFunctionsRouter)407"
			},
			{
				"astId": 29614,
				"contract": "contracts/core/ZKDAO.sol:ZKDAO",
				"label": "subscriptionId",
				"offset": 20,
				"slot": "0",
				"type": "t_uint64"
			},
			{
				"astId": 29616,
				"contract": "contracts/core/ZKDAO.sol:ZKDAO",
				"label": "gasLimit",
				"offset": 28,
				"slot": "0",
				"type": "t_uint32"
			},
			{
				"astId": 29618,
				"contract": "contracts/core/ZKDAO.sol:ZKDAO",
				"label": "donID",
				"offset": 0,
				"slot": "1",
				"type": "t_bytes32"
			},
			{
				"astId": 29620,
				"contract": "contracts/core/ZKDAO.sol:ZKDAO",
				"label": "s_lastRequestId",
				"offset": 0,
				"slot": "2",
				"type": "t_bytes32"
			},
			{
				"astId": 29622,
				"contract": "contracts/core/ZKDAO.sol:ZKDAO",
				"label": "requestCounter",
				"offset": 0,
				"slot": "3",
				"type": "t_uint256"
			},
			{
				"astId": 29626,
				"contract": "contracts/core/ZKDAO.sol:ZKDAO",
				"label": "queue",
				"offset": 0,
				"slot": "4",
				"type": "t_array(t_struct(Proposal)29570_storage)dyn_storage"
			},
			{
				"astId": 29628,
				"contract": "contracts/core/ZKDAO.sol:ZKDAO",
				"label": "s_lastResponse",
				"offset": 0,
				"slot": "5",
				"type": "t_bytes_storage"
			},
			{
				"astId": 29630,
				"contract": "contracts/core/ZKDAO.sol:ZKDAO",
				"label": "s_lastError",
				"offset": 0,
				"slot": "6",
				"type": "t_bytes_storage"
			},
			{
				"astId": 29632,
				"contract": "contracts/core/ZKDAO.sol:ZKDAO",
				"label": "source",
				"offset": 0,
				"slot": "7",
				"type": "t_string_storage"
			},
			{
				"astId": 29640,
				"contract": "contracts/core/ZKDAO.sol:ZKDAO",
				"label": "proposals",
				"offset": 0,
				"slot": "8",
				"type": "t_mapping(t_contract(IGovernor)28971,t_mapping(t_uint256,t_struct(Proposal)29570_storage))"
			},
			{
				"astId": 29646,
				"contract": "contracts/core/ZKDAO.sol:ZKDAO",
				"label": "pendingProposals",
				"offset": 0,
				"slot": "9",
				"type": "t_mapping(t_bytes32,t_array(t_struct(Proposal)29570_storage)dyn_storage)"
			},
			{
				"astId": 29650,
				"contract": "contracts/core/ZKDAO.sol:ZKDAO",
				"label": "pendingRequests",
				"offset": 0,
				"slot": "10",
				"type": "t_mapping(t_bytes32,t_bool)"
			},
			{
				"astId": 27666,
				"contract": "contracts/core/ZKDAO.sol:ZKDAO",
				"label": "price",
				"offset": 0,
				"slot": "11",
				"type": "t_uint256"
			},
			{
				"astId": 27668,
				"contract": "contracts/core/ZKDAO.sol:ZKDAO",
				"label": "daoCounter",
				"offset": 0,
				"slot": "12",
				"type": "t_uint256"
			},
			{
				"astId": 27671,
				"contract": "contracts/core/ZKDAO.sol:ZKDAO",
				"label": "governorToken",
				"offset": 0,
				"slot": "13",
				"type": "t_contract(IGovernorToken)29006"
			},
			{
				"astId": 27674,
				"contract": "contracts/core/ZKDAO.sol:ZKDAO",
				"label": "timelock",
				"offset": 0,
				"slot": "14",
				"type": "t_contract(ITimeLock)29054"
			},
			{
				"astId": 27677,
				"contract": "contracts/core/ZKDAO.sol:ZKDAO",
				"label": "verifier",
				"offset": 0,
				"slot": "15",
				"type": "t_contract(IVerifier)25966"
			},
			{
				"astId": 27680,
				"contract": "contracts/core/ZKDAO.sol:ZKDAO",
				"label": "governor",
				"offset": 0,
				"slot": "16",
				"type": "t_contract(IGovernor)28971"
			},
			{
				"astId": 27683,
				"contract": "contracts/core/ZKDAO.sol:ZKDAO",
				"label": "linkToken",
				"offset": 0,
				"slot": "17",
				"type": "t_contract(IERC20)10243"
			},
			{
				"astId": 27686,
				"contract": "contracts/core/ZKDAO.sol:ZKDAO",
				"label": "ccipRouter",
				"offset": 0,
				"slot": "18",
				"type": "t_contract(IRouterClient)42"
			},
			{
				"astId": 27688,
				"contract": "contracts/core/ZKDAO.sol:ZKDAO",
				"label": "factory",
				"offset": 0,
				"slot": "19",
				"type": "t_address"
			},
			{
				"astId": 27690,
				"contract": "contracts/core/ZKDAO.sol:ZKDAO",
				"label": "destinationChainSelector",
				"offset": 20,
				"slot": "19",
				"type": "t_uint64"
			},
			{
				"astId": 27695,
				"contract": "contracts/core/ZKDAO.sol:ZKDAO",
				"label": "daos",
				"offset": 0,
				"slot": "20",
				"type": "t_mapping(t_uint256,t_struct(Dao)27662_storage)"
			},
			{
				"astId": 27699,
				"contract": "contracts/core/ZKDAO.sol:ZKDAO",
				"label": "daoIdByProposalId",
				"offset": 0,
				"slot": "21",
				"type": "t_mapping(t_uint256,t_uint256)"
			},
			{
				"astId": 27703,
				"contract": "contracts/core/ZKDAO.sol:ZKDAO",
				"label": "daoIdByAddress",
				"offset": 0,
				"slot": "22",
				"type": "t_mapping(t_address,t_uint256)"
			},
			{
				"astId": 27707,
				"contract": "contracts/core/ZKDAO.sol:ZKDAO",
				"label": "daoIdByTimelock",
				"offset": 0,
				"slot": "23",
				"type": "t_mapping(t_address,t_uint256)"
			},
			{
				"astId": 27711,
				"contract": "contracts/core/ZKDAO.sol:ZKDAO",
				"label": "nonces",
				"offset": 0,
				"slot": "24",
				"type": "t_mapping(t_address,t_uint256)"
			},
			{
				"astId": 27715,
				"contract": "contracts/core/ZKDAO.sol:ZKDAO",
				"label": "allowlistedChains",
				"offset": 0,
				"slot": "25",
				"type": "t_mapping(t_uint64,t_bool)"
			}
		],
		"types": {
			"t_address": {
				"encoding": "inplace",
				"label": "address",
				"numberOfBytes": "20"
			},
			"t_array(t_struct(Proposal)29570_storage)dyn_storage": {
				"base": "t_struct(Proposal)29570_storage",
				"encoding": "dynamic_array",
				"label": "struct ConsumerUpgradable.Proposal[]",
				"numberOfBytes": "32"
			},
			"t_bool": {
				"encoding": "inplace",
				"label": "bool",
				"numberOfBytes": "1"
			},
			"t_bytes32": {
				"encoding": "inplace",
				"label": "bytes32",
				"numberOfBytes": "32"
			},
			"t_bytes_storage": {
				"encoding": "bytes",
				"label": "bytes",
				"numberOfBytes": "32"
			},
			"t_contract(IERC20)10243": {
				"encoding": "inplace",
				"label": "contract IERC20",
				"numberOfBytes": "20"
			},
			"t_contract(IFunctionsRouter)407": {
				"encoding": "inplace",
				"label": "contract IFunctionsRouter",
				"numberOfBytes": "20"
			},
			"t_contract(IGovernor)28971": {
				"encoding": "inplace",
				"label": "contract IGovernor",
				"numberOfBytes": "20"
			},
			"t_contract(IGovernorToken)29006": {
				"encoding": "inplace",
				"label": "contract IGovernorToken",
				"numberOfBytes": "20"
			},
			"t_contract(IRouterClient)42": {
				"encoding": "inplace",
				"label": "contract IRouterClient",
				"numberOfBytes": "20"
			},
			"t_contract(ITimeLock)29054": {
				"encoding": "inplace",
				"label": "contract ITimeLock",
				"numberOfBytes": "20"
			},
			"t_contract(IVerifier)25966": {
				"encoding": "inplace",
				"label": "contract IVerifier",
				"numberOfBytes": "20"
			},
			"t_mapping(t_address,t_uint256)": {
				"encoding": "mapping",
				"key": "t_address",
				"label": "mapping(address => uint256)",
				"numberOfBytes": "32",
				"value": "t_uint256"
			},
			"t_mapping(t_bytes32,t_array(t_struct(Proposal)29570_storage)dyn_storage)": {
				"encoding": "mapping",
				"key": "t_bytes32",
				"label": "mapping(bytes32 => struct ConsumerUpgradable.Proposal[])",
				"numberOfBytes": "32",
				"value": "t_array(t_struct(Proposal)29570_storage)dyn_storage"
			},
			"t_mapping(t_bytes32,t_bool)": {
				"encoding": "mapping",
				"key": "t_bytes32",
				"label": "mapping(bytes32 => bool)",
				"numberOfBytes": "32",
				"value": "t_bool"
			},
			"t_mapping(t_contract(IGovernor)28971,t_mapping(t_uint256,t_struct(Proposal)29570_storage))": {
				"encoding": "mapping",
				"key": "t_contract(IGovernor)28971",
				"label": "mapping(contract IGovernor => mapping(uint256 => struct ConsumerUpgradable.Proposal))",
				"numberOfBytes": "32",
				"value": "t_mapping(t_uint256,t_struct(Proposal)29570_storage)"
			},
			"t_mapping(t_uint256,t_struct(Dao)27662_storage)": {
				"encoding": "mapping",
				"key": "t_uint256",
				"label": "mapping(uint256 => struct ZKDAO.Dao)",
				"numberOfBytes": "32",
				"value": "t_struct(Dao)27662_storage"
			},
			"t_mapping(t_uint256,t_struct(Proposal)29570_storage)": {
				"encoding": "mapping",
				"key": "t_uint256",
				"label": "mapping(uint256 => struct ConsumerUpgradable.Proposal)",
				"numberOfBytes": "32",
				"value": "t_struct(Proposal)29570_storage"
			},
			"t_mapping(t_uint256,t_uint256)": {
				"encoding": "mapping",
				"key": "t_uint256",
				"label": "mapping(uint256 => uint256)",
				"numberOfBytes": "32",
				"value": "t_uint256"
			},
			"t_mapping(t_uint64,t_bool)": {
				"encoding": "mapping",
				"key": "t_uint64",
				"label": "mapping(uint64 => bool)",
				"numberOfBytes": "32",
				"value": "t_bool"
			},
			"t_string_storage": {
				"encoding": "bytes",
				"label": "string",
				"numberOfBytes": "32"
			},
			"t_struct(Dao)27662_storage": {
				"encoding": "inplace",
				"label": "struct ZKDAO.Dao",
				"members": [
					{
						"astId": 27642,
						"contract": "contracts/core/ZKDAO.sol:ZKDAO",
						"label": "id",
						"offset": 0,
						"slot": "0",
						"type": "t_uint256"
					},
					{
						"astId": 27644,
						"contract": "contracts/core/ZKDAO.sol:ZKDAO",
						"label": "createdAt",
						"offset": 0,
						"slot": "1",
						"type": "t_uint256"
					},
					{
						"astId": 27646,
						"contract": "contracts/core/ZKDAO.sol:ZKDAO",
						"label": "creator",
						"offset": 0,
						"slot": "2",
						"type": "t_address"
					},
					{
						"astId": 27649,
						"contract": "contracts/core/ZKDAO.sol:ZKDAO",
						"label": "token",
						"offset": 0,
						"slot": "3",
						"type": "t_contract(IGovernorToken)29006"
					},
					{
						"astId": 27652,
						"contract": "contracts/core/ZKDAO.sol:ZKDAO",
						"label": "timelock",
						"offset": 0,
						"slot": "4",
						"type": "t_contract(ITimeLock)29054"
					},
					{
						"astId": 27655,
						"contract": "contracts/core/ZKDAO.sol:ZKDAO",
						"label": "governor",
						"offset": 0,
						"slot": "5",
						"type": "t_contract(IGovernor)28971"
					},
					{
						"astId": 27657,
						"contract": "contracts/core/ZKDAO.sol:ZKDAO",
						"label": "name",
						"offset": 0,
						"slot": "6",
						"type": "t_string_storage"
					},
					{
						"astId": 27659,
						"contract": "contracts/core/ZKDAO.sol:ZKDAO",
						"label": "description",
						"offset": 0,
						"slot": "7",
						"type": "t_string_storage"
					},
					{
						"astId": 27661,
						"contract": "contracts/core/ZKDAO.sol:ZKDAO",
						"label": "logo",
						"offset": 0,
						"slot": "8",
						"type": "t_string_storage"
					}
				],
				"numberOfBytes": "288"
			},
			"t_struct(Proposal)29570_storage": {
				"encoding": "inplace",
				"label": "struct ConsumerUpgradable.Proposal",
				"members": [
					{
						"astId": 29555,
						"contract": "contracts/core/ZKDAO.sol:ZKDAO",
						"label": "dao",
						"offset": 0,
						"slot": "0",
						"type": "t_contract(IGovernor)28971"
					},
					{
						"astId": 29557,
						"contract": "contracts/core/ZKDAO.sol:ZKDAO",
						"label": "voteToken",
						"offset": 0,
						"slot": "1",
						"type": "t_address"
					},
					{
						"astId": 29559,
						"contract": "contracts/core/ZKDAO.sol:ZKDAO",
						"label": "daoId",
						"offset": 0,
						"slot": "2",
						"type": "t_uint256"
					},
					{
						"astId": 29561,
						"contract": "contracts/core/ZKDAO.sol:ZKDAO",
						"label": "proposalId",
						"offset": 0,
						"slot": "3",
						"type": "t_uint256"
					},
					{
						"astId": 29563,
						"contract": "contracts/core/ZKDAO.sol:ZKDAO",
						"label": "snapshot",
						"offset": 0,
						"slot": "4",
						"type": "t_uint256"
					},
					{
						"astId": 29565,
						"contract": "contracts/core/ZKDAO.sol:ZKDAO",
						"label": "proposalBlock",
						"offset": 0,
						"slot": "5",
						"type": "t_uint256"
					},
					{
						"astId": 29567,
						"contract": "contracts/core/ZKDAO.sol:ZKDAO",
						"label": "queued",
						"offset": 0,
						"slot": "6",
						"type": "t_bool"
					},
					{
						"astId": 29569,
						"contract": "contracts/core/ZKDAO.sol:ZKDAO",
						"label": "executed",
						"offset": 1,
						"slot": "6",
						"type": "t_bool"
					}
				],
				"numberOfBytes": "224"
			},
			"t_uint256": {
				"encoding": "inplace",
				"label": "uint256",
				"numberOfBytes": "32"
			},
			"t_uint32": {
				"encoding": "inplace",
				"label": "uint32",
				"numberOfBytes": "4"
			},
			"t_uint64": {
				"encoding": "inplace",
				"label": "uint64",
				"numberOfBytes": "8"
			}
		}
	}
}